:020000040800F2
:10000000480700209D010008EF1400084313000872
:10001000ED140008A9020008171D000800000000E8
:100020000000000000000000000000009917000818
:10003000B5020008000000002D170008B1180008E4
:10004000B7010008B7010008B7010008B7010008B0
:10005000B7010008B7010008B7010008B7010008A0
:10006000B7010008B7010008B7010008B701000890
:10007000B7010008B7010008B7010008B701000880
:10008000B7010008B7010008B7010008B701000870
:10009000B7010008B7010008B7010008B701000860
:1000A000B7010008B7010008B7010008B701000850
:1000B000B7010008B7010008B7010008B701000840
:1000C000B7010008B7010008B7010008B701000830
:1000D000B7010008091D0008B7010008B7010008B2
:1000E000B7010008B7010008B7010008B701000810
:1000F000B7010008B7010008B7010008B701000800
:10010000B7010008B7010008B7010008B7010008EF
:10011000B7010008B701000859190008B701000825
:10012000B7010008B7010008B7010008B7010008CF
:10013000B7010008B7010008B7010008B7010008BF
:10014000B7010008B7010008B7010008B7010008AF
:10015000B7010008B7010008B7010008B70100089F
:10016000B7010008B7010008B7010008B70100088F
:10017000B7010008B7010008B7010008000000003F
:10018000B7010008B7010008DFF80CD000F07AF8DA
:1001900000480047F521000848070020064880472E
:1001A00006480047FEE7FEE7FEE7FEE7FEE7FEE75C
:1001B000FEE7FEE7FEE7FEE74919000889010008AF
:1001C0002DE9F05F0546002092469B46884606468C
:1001D000814640241BE0284641464746224600F01F
:1001E00041F853465A46C01A914110D31146184659
:1001F000224600F028F82D1A67EB01084F462246E8
:100200000120002100F01FF817EB00094E41201ECD
:10021000A4F10104DFDC484631462A464346BDE8E6
:10022000F09FD2B201E000F8012B491EFBD27047CB
:100230000022F6E710B513460A4604461946FFF7B2
:10024000F0FF204610BD202A04DB203A00FA02F11C
:10025000002070479140C2F1200320FA03F31943B4
:1002600090407047202A04DB203A21FA02F0002156
:10027000704721FA02F3D040C2F1200291400843B6
:1002800019467047064C074D06E0E06840F0010350
:1002900094E8070098471034AC42F6D3FFF778FF94
:1002A000C8230008E8230008FEE7010A01EB00204C
:1002B00080B27047704772B6FEE72DE9F041044600
:1002C000876D00F065F9064694F835000025022890
:1002D00006D08020606584F834500120BDE8F081AC
:1002E0002068016821F0160101602068416921F051
:1002F00080014161206C08B9A06C20B120680168C0
:1003000021F0080101602068016821F0010101600D
:100310000CE000F03DF9801B052807D9202060651E
:10032000032084F8350084F83450D7E7206800684B
:10033000C007EED194F85C103F208840B8600120DF
:1003400084F8350084F834500020C7E790F8351061
:10035000022903D08021416501207047052180F8E2
:1003600035100068016821F001010160002070472C
:1003700070B5044600F00CF90546601C02D0044834
:100380000078044400F004F9401BA042FAD370BD89
:10039000080000202DE9F84FDFF8BCA1002201255C
:1003A00003264FF00F090AF1040BAAF1040E00BF57
:1003B0000B6805FA02F42340A34270D10F7907F0CD
:1003C0000307012F01D0022F16D187684FEA420898
:1003D00006FA08FC27EA0C07D1F80CC00CFA08FC56
:1003E0004CEA070CC0F808C04768A7430C79C4F36F
:1003F000001494403C4344600C79E443A4070AD0C1
:10040000C4684FEA420C06FA0CF7BC438F6807FA3F
:100410000CF72743C7600C7904F00304022C12D1B7
:10042000D40800EB840CDCF820405707FF0E09FAD3
:1004300007F824EA0804D1F8108008FA07F848EA17
:100440000408CCF8208004684FEA420C06FA0CF746
:10045000BC430F7907F0030707FA0CF7274307603F
:100460004C6814F4403F70D03C4C276847F48047F8
:100470002760246822F0030704F480440094384C79
:1004800007EB040CDCF8084897074FEA177809FADD
:1004900008F7BC43334FB84202D1002724E054E0B0
:1004A000314FB84201D101271EE0304FB84201D18F
:1004B000022719E02E4FB84201D1032714E02D4F37
:1004C000B84201D104270FE02B4FB84201D10527D4
:1004D0000AE02A4FB84201D1062705E0284FB8426A
:1004E00001D1072700E0082707FA08F72743CCF8CF
:1004F0000878DAF800405746D1F804C09C435FEA18
:10050000CC2C00D51C433C60DBF800405F46D1F8A2
:1005100004C09C435FEA8C2C00D51C433C60DEF891
:1005200000407746D1F804C09C435FEA8C3C00D57C
:100530001C433C60084F083F3C68D1F804C09C4312
:100540005FEACC3C00D51C433C60521C102AFFF4EF
:100550002FAFBDE8F88F0000083C0140443802404E
:100560000030014000000240000402400008024048
:10057000000C02400010024000140240001802402B
:10058000001C02400AB1816170470904FBE70000CA
:100590000148806870470000080000200248816818
:1005A0000278114481607047080000200B4810B5A4
:1005B000016841F400710160016841F480610160EB
:1005C000016841F480710160032000F06FF80F2092
:1005D00000F006F800F024F8002010BD003C0240B6
:1005E00070B50D4D04464FF47A712878B1FBF0F0E8
:1005F0000A490968B1FBF0F000F00AFB48B9102C79
:1006000007D200222146501E00F030F800206C6016
:1006100070BD012070BD0000080000201400002003
:100620000A4808B5016841F480410160006800F49F
:10063000804000900548001F016841F08051016032
:10064000006800F08050009008BD0000443802406F
:10065000002809DB00F01F020121914040098000C1
:1006600000F1E020C0F8001170470000F0B40E4B1C
:100670001B680C46C3F30223C3F10705042D00D900
:100680000425191D072901D2002300E0DB1E0126E5
:1006900006FA05F1491E214099409E40761E1640FB
:1006A0003143F0BC01F048BB0CED00E0064900F01E
:1006B000070208684FF6FF03184040EA0220034A89
:1006C00010430860704700000CED00E00000FA05E0
:1006D0002DE9F0470E46050065D0DFF81481D8F803
:1006E0000000F7B200F00700B04207D288F80070AF
:1006F000D8F8000000F00700B04254D128683D4C03
:10070000810712D5400703D5206840F4E0502060EF
:100710002878000703D5206840F4604020602068F6
:10072000A96820F0F000084320602878C0072DD089
:10073000304968680839012812D0022813D00328EC
:1007400011D00968890700292DDA216821F00301F9
:1007500001432160FFF71CFF814641F2883A0EE019
:1007600009688903EFE709688901ECE7FFF710FFE3
:10077000A0EB0901514502D90320BDE8F0872068AC
:10078000696800F00C00B0EB810FEFD1D8F80010D1
:10079000404601F00701B14207D90770006800F038
:1007A0000700B04201D00120E7E72878400705D5CF
:1007B0002068E96820F4E0500843206028780007AA
:1007C00006D52068296920F4604040EAC100206015
:1007D00000F038F82168084AC1F30311515CC840A1
:1007E0000649086006480068FFF7FAFE0020C4E7E3
:1007F000003C024008380240B023000814000020EA
:100800000C0000200448054900680968044AC1F347
:100810008221515CC8407047140000200838024013
:10082000C02300080448054900680968044AC1F368
:100830004231515CC8407047140000200838024023
:10084000C0230008154810B5006810F00C021448C9
:1008500013D04110042A0FD0082A0ED10F4C241FA8
:100860002268236802F03F025B0207D52068C0F3CC
:100870008810A0FB010106E0084610BD2168C1F305
:100880008811A1FB00010023FFF79AFC2168C1F346
:100890000141491C4900B0FBF1F010BD083802408D
:1008A0000024F4002DE9F84F04006ED02078DFF822
:1008B0004C93C007A9F104054AD009F1040001686E
:1008C000C1F38101012908D00068C0F3810002282A
:1008D0000AD1D9F80000400206D52868800337D530
:1008E00060680028E1D033E06068B0F5803F10D048
:1008F000B0F5A02F286810D020F480302860286838
:1009000020F4802028606068A8B1FFF741FE064609
:100910000DE0286840F48030F4E740F4802028603F
:10092000F7E700BFFFF734FE801B642873D8286800
:100930008003F7D50CE0FFF72BFE064605E000BF6D
:10094000FFF726FE801B6428F0D828688003F7D4C0
:100950002078DFF8AC8280074FF0000A3ED5A74828
:10096000001D016811F00C0F08D00068C0F3810071
:1009700002280BD1D9F80000400207D4286880076C
:1009800016D5E068012800D112E033E1E068B8B183
:100990000120C8F80000FFF7FBFD064605E000BF98
:1009A000FFF7F6FD801B0228C0D828688007F7D51E
:1009B0002868216920F0F80040EAC10028600DE0B5
:1009C000C8F800A0FFF7E4FD064604E0FFF7E0FDED
:1009D000801B02281FD828688007F7D420780007DA
:1009E00022D5864F87486169703771B10121016056
:1009F000FFF7CEFD064604E0FFF7CAFD801B022884
:100A000009D838688007F7D50EE0C0F800A0FFF7D6
:100A1000BFFD064605E082E0FFF7BAFD801B022815
:100A20007DD838688007F7D42078400768D5DFF88C
:100A3000CCB100270BF13C0BDBF80000C0000BD45D
:100A4000DBF8001041F08051CBF80010DBF800001B
:100A5000012700F0805000906B4E3068C00510D424
:100A6000306840F480703060FFF792FD009005E040
:100A7000FFF78EFD0099401A022850D83068C00553
:100A8000F6D55E4EA0686C3601280FD00528306878
:100A900010D020F001003060306820F00400306099
:100AA000A068B8B1FFF774FD00900FE0306840F027
:100AB0000100F4E740F004003060F7E7FFF768FD5D
:100AC0000099411A41F28830814266D83068800727
:100AD000F4D50EE0FFF75CFD009007E0FFF758FD4E
:100AE0000099411A41F28830814256D83068800717
:100AF000F4D42FB1DBF8001021F08051CBF80010B6
:100B0000A069C8B33D49091D0968C1F381010229E3
:100B10004AD00228504607D0C8F8600000E03CE008
:100B2000FFF736FD04463BE04746C8F86000FFF794
:100B30002FFD064605E000BFFFF72AFD801B0228B7
:100B40002BD828688001F7D4D4E907010843A16AAB
:100B50002E4A490802EB0141626A41EA82110843C8
:100B600094F82C1040EA0161C9F8001001203866A1
:100B7000FFF70EFD044606E03EE000BFFFF708FD6C
:100B8000001B022809D828688001F7D534E000BF8F
:100B9000FFF7FEFC001B022802D90320BDE8F88FF6
:100BA00028688001F4D427E00128F7D0D9F80000A4
:100BB000E26900F4800191421CD1226A00F03F01F9
:100BC000914217D147F6C071626A0140B1EB821FB2
:100BD00010D1A26A4FF0FF3300F4403103EB520210
:100BE000B1EB024F06D194F82C1000F07060B0EB1E
:100BF000016F01D00120D1E70020CFE70438024087
:100C000000004742800E4742007000400000FFFF96
:100C100010B5401EB0F1807F01D3012010BD4FF010
:100C2000E02460610F21601701F086F80020A061C8
:100C300007202061002010BD7047704770B590F804
:100C40003C20012A32D0012480F83C40022280F866
:100C50003D2003685A689D6822F070060A68324396
:100C60005A60134B02689A4214D0B2F1804F11D0EF
:100C7000104B9A420ED0104B9A420BD00F4B9A4217
:100C800008D00F4B9A4205D00E4B9A4202D00E4B21
:100C90009A4204D1496825F080031943916080F895
:100CA0003D40002180F83C10084670BD022070BD18
:100CB000000001400004004000080040000C00401B
:100CC00000040140004001400018004010B504003D
:100CD00003D094F83D0010B107E0012010BD0020C2
:100CE00084F83C00204600F01FF8022084F83D0004
:100CF000211D206800F036FE012084F8460084F8AB
:100D00003E0084F83F0084F8400084F8410084F8F5
:100D1000420084F8430084F8440084F8450084F8D5
:100D20003D00002010BD000008B500680B49884256
:100D300012D10B48016841F01001016000680022E7
:100D400000F01000009011463620FFF78FFCBDE840
:100D500008403620FFF77CBC08BD000000100040B2
:100D60004038024070472DE9F04104460068C668EB
:100D700005694FF00007A90713D5B10711D5F91E72
:100D8000016101202077206880698007204602D019
:100D9000FFF7E8FF04E000F07EF8204600F07CF862
:100DA0002777680716D5700714D521686FF00400FF
:100DB0000861022020772068806910F4407F204677
:100DC00002D0FFF7CFFF04E000F065F8204600F006
:100DD00063F82777280715D5300713D521686FF0FA
:100DE00008000861042020772068C0698007204639
:100DF00002D0FFF7B7FF04E000F04DF8204600F006
:100E00004BF82777E80616D5F00614D521686FF061
:100E100010000861082020772068C06910F4407F26
:100E2000204602D0FFF79EFF04E000F034F8204691
:100E300000F032F82777E80708D0F00706D02168DD
:100E40006FF001000861204600F027F8280608D559
:100E5000300606D521686FF0800008612046FFF754
:100E6000EBFE680608D5700606D521686FF04000D5
:100E70000861204600F012F8A8060AD5B00608D589
:100E800021686FF0200008612046BDE8F041FFF7BF
:100E9000D4BEBDE8F0817047704770477047704717
:100EA00070470000F8B5016804460868CA684B69D5
:100EB00010F00F0F4FF0000559D003F0010602F4B7
:100EC0009077374365D0C10705D0D10503D5616C54
:100ED00041F001016164410705D5D90703D0616C78
:100EE00041F002016164810705D5D90703D0616C27
:100EF00041F004016164010707D502F0200131438C
:100F000003D0616C41F008016164616C00293AD042
:100F1000800604D5900602D5204600F0B9FD206871
:100F20004069616CC0F38010090700D460B32046AB
:100F300000F087FD20684069400621D52068143004
:100F400050E8001F21F0400140E80012002AF5D1CE
:100F5000E06BA8B172490165E06BFFF7F7F9002873
:100F600011D0E06B016D01B0BDE8F0400847830689
:100F70000FD593060DD52046BDE8F84000F088BD9A
:100F80002046FFF78DFFF8BD2046FFF789FF656417
:100F9000F8BD266B2023012E7ED1C6067CD5D60651
:100FA0007AD508684868009048694FF00206400604
:100FB0004DD5E26B106840684FF480770004000C58
:100FC0003AD0A18D814237D9E085D069B8422DD081
:100FD00020680C3050E8001F21F4807140E80012B6
:100FE000002AF5D12068143050E8001F21F00101DB
:100FF00040E80012002AF5D12068143050E8001FA4
:1010000021F0400140E80012002AF5D184F8423076
:10101000256320680C3050E8001F21F0100140E8E3
:101020000012002AF5D1E06BFFF747F96663A08D47
:10103000E18D401A81B206E0A18D8142A8D1D0692C
:10104000B842A5D166632046FFF729FFF8BDA08D01
:10105000E18D401A81B2E08D0028F7D00029F5D04B
:1010600020680C3050E8002F22F4907240E80027EE
:10107000002FF5D12068143050E8002F22F0010233
:1010800040E80027002FF5D184F84230256320681E
:101090000C3050E8002F00E006E022F0100240E89B
:1010A0000023002BF3D1CDE705062BD5150629D556
:1010B00094F841002128C9D1A068B0F5805F01D122
:1010C0002069B0B1206A411C216221680078486023
:1010D000E08C401E0004000CE084B7D12068C16899
:1010E00021F08001C1602068C16841F04001C16009
:1010F000F8BD206A0088C0F308004860206A801CA0
:101100002062E5E74006F3D55006F1D5CA682046CF
:1011100022F04002CA6084F8413000F011F9F8BDB5
:10112000351A000870B5040004D094F84100002579
:1011300010B106E0012070BD84F84050204600F058
:1011400023F8242084F841002068C16821F400516C
:10115000C160204600F0FEFC2068016921F4904146
:1011600001612068416921F02A0141612068C1685C
:1011700041F40051C1606564202084F8410084F886
:1011800042006563002070BD70B586B0044614212E
:101190006846FFF74DF8284E2268002127480223B1
:1011A00003240725B24225D1244A1432166846F09A
:1011B00010061660126802F010020592026842F0F2
:1011C00001020260006802AA00F00100059082E8B6
:1011D00032006002CDE9000369461948FFF7DAF8EA
:1011E000002211462520FFF741FA2520FFF730FAAB
:1011F00006B070BD134EB242FAD1104A10321668D2
:1012000046F480261660126802F480220592026875
:1012100042F002020260006802AA00F0020005909B
:1012200082E832004FF44060CDE900036946064889
:10123000FFF7B0F8DCE70000001001403038024052
:1012400000000240004800400004024090F8423094
:10125000202B01D00220704721B11AB10023036373
:1012600000F0FEBC0120704710B5006809498842B3
:101270000ED1094CA07801F07FF8A07820700120F1
:101280006070A11C0246BDE810400448FFF7DEBFB5
:1012900010BD00000010014020000020740000205C
:1012A0002DE9F843044690F84100984616460D464D
:1012B000202802D00220BDE8F88385B17EB100204D
:1012C0006064212084F84100FFF762F9A68481461A
:1012D000E684A0682027B0F5805F02D003E00120FB
:1012E000E9E7206910B12E4600250EE000260CE04B
:1012F0008021204600F0CFFCA8B9C6B116F8010B3A
:1013000021684860E08C401EE084E08C4B464FF042
:101310000002CDF800800028EAD14FF040012046BD
:1013200000F0B9FC40B184F841700320C3E735F800
:10133000020BC0F30800E3E784F841700020BAE72D
:101340007047FEE72DE9F04786B014216846FEF7A6
:101350006FFF34480024016841F004010160016816
:1013600001F004010591016841F08001016001680C
:1013700001F080010591016841F0020101600168FE
:1013800001F002010591016841F01001016001685E
:1013900001F010010591016841F008010160016848
:1013A00001F008010591016841F001010160006848
:1013B000DFF8748000F0010005900022042140460F
:1013C000FFF7E0F8DFF864904FF4CF460022314693
:1013D0004846FFF7D7F8DFF858A04FF6F847002245
:1013E00039465046FFF7CEF8042000900125CDE99C
:1013F0000154694640460394FEF7CCFF0096CDE9C0
:101400000154694648460394FEF7C4FF0097CDE9AE
:101410000154694650460394FEF7BCFF06B0BDE890
:10142000F087000030380240000402400010024003
:10143000000C02401CB500240F4800940D49019493
:101440000160A721C0E9011442F20F71C16080213F
:101450008161FFF73BFC08B1FEF72DFF0094694660
:1014600005480194FFF7EAFB002801D0FEF723FFAF
:101470001CBD0000001000402C0000200C4810B5DE
:101480000A4901604FF4E1314160002181600C2282
:10149000C160C0E904128161C161FFF743FE002809
:1014A00003D0BDE81040FEF706BF10BD001001409C
:1014B000740000200C4810B50A4901604FF4E13176
:1014C0004160002181600C22C160C0E90412816189
:1014D000C161FFF727FE002803D0BDE81040FEF7EA
:1014E000EABE10BD00480040BC000020FEE7FEE759
:1014F00030B40A286BD1374801292AD002292DD0CF
:10150000032930D0042933D005291DD0031506291D
:1015100033D0072936D0082939D0DC00092939D041
:101520001D010A293BD00B293ED00C293FD02A4867
:101530000D2942D00E2943D00F291ED0102929D0C1
:1015400011292CD0122942D1012A00D00022802159
:101550003AE0012A00D00022082135E0012A00D01B
:101560000022102130E0012A00D0002220212BE0AF
:10157000012A00D00022402126E0012A00D00022CA
:10158000194621E04FF400611CE000221CE04FF4FA
:10159000805117E0012A00D00022214614E0012AE0
:1015A00000D0002229460FE04FF400410AE00B482A
:1015B000012A00D00022042106E04FF4807101E0EE
:1015C0004FF40071012AE0D130BCFEF7DBBF30BC24
:1015D00070470000000C024000100240000402406E
:1015E0002DE9F84FDFF808A1DDE90B5404F00F07EF
:1015F000240904EB840407EB440700F00F040009FE
:1016000000EB800004EB400001F00F04090901EB3E
:10161000810104EB410902F00F01120902EB820281
:1016200001EB42041A090A9E03F00F0102EB820249
:1016300001EB4208320906F00F0102EB8202CAF800
:10164000047001EB42072A0905F00F0102EB820248
:1016500001EB4206012502462B462946082000954B
:1016600000F0B7F801234A4602210820009500F057
:10167000B0F80123424603210820009500F0A9F8A4
:1016800001233A4604210820009500F0A2F8012326
:10169000324605210820009500F09BF800950123B3
:1016A00006210820DAF8042000F093F894B1012C08
:1016B00012D0022C12D0032C12D0042C12D0052CE4
:1016C00012D0062C12D10BA2BDE8F84F072108203A
:1016D00000F0C4B809A2F7E70AA2F5E70BA2F3E706
:1016E0000CA2F1E70DA2EFE70EA2EDE7BDE8F88F3F
:1016F00020000020D0C7C6DAC1F90000D0C7C6DA82
:10170000C8D50000D0C7C6DAD2BB0000D0C7C6DA41
:10171000B6FE0000D0C7C6DAC8FD0000D0C7C6DAE2
:10172000CBC40000D0C7C6DACEE500007047000089
:10173000FEB5024643788678C479B0F80300FEF718
:10174000B4FD0546B2F80500FEF7AFFD01461148AD
:101750000D2B12DD0F2B10D0552B0ED0B12B0DD031
:10176000F72B0AD18179037AC2798DE80E0043798B
:101770000279C1788078FFF733FFFEBD012EFCD0DF
:10178000102CFAD1527A03B02846BDE8F040FFF79A
:10179000AFBE0000080300207047000001B514230D
:1017A000012269460448FFF77BFD03480068016891
:1017B000C9434906FBD408BD7400002010B5044697
:1017C00003E000BFFFF7EAFF641C20780028F9D18E
:1017D00010BD2DE9F04106461F4614460D46EE2089
:1017E000DDF81880FFF7DAFFB120FFF7D7FF0720F9
:1017F000FFF7D4FF300AFFF7D1FFF0B2FFF7CEFFBB
:10180000280AFFF7CBFFE8B2FFF7C8FF0FB10120AE
:1018100000E00020FFF7C2FF08F00F0040F080005A
:10182000FFF7BCFF200EFFF7B9FFC4F30740FFF737
:10183000B5FFC4F30720FFF7B1FFE0B2FFF7AEFF3B
:10184000FF20FFF7ABFFFC20FFF7A8FFFF20FFF70B
:10185000A5FFBDE8F041FF20FFF7A0BF70B505462A
:1018600016460C46EE20FFF799FFB120FFF796FFD2
:101870001020FFF793FF280AFFF790FFE8B2FFF769
:101880008DFF200AFFF78AFFE0B2FFF787FF30469F
:10189000FFF794FFFF20FFF781FFFC20FFF77EFF9B
:1018A000FF20FFF77BFFBDE87040FF20FFF776BF0A
:1018B000FEF774BE30B593B030216846FEF7B8FC31
:1018C00014210CA8FEF7B4FC1D480025016841F066
:1018D00080510160006800F0805011901948016843
:1018E00041F4804101600068022400F480401190BE
:1018F00001200090000401908001CDE9064008AA73
:101900000420A82182E813000B906846FEF7CAFF66
:1019100008B172B6FEE70CA90F2081E831004FF440
:10192000A0500F904FF48050109005210CA8FEF7A6
:10193000CFFE002801D072B6FEE713B030BD000024
:1019400040380240007000400248016841F47001D4
:101950000160704788ED00E00148FFF704BA00001D
:101960002C000020F0B50268274B284D284E294F47
:10197000294C4FF0804C984209D0604507D0A842CE
:1019800005D0B04203D0B84201D0A04204D122F029
:10199000700E4A6842EA0E0298421BD0604519D088
:1019A000A84217D0B04215D0B84213D0A04211D0EF
:1019B0001A4DA8420ED01A4DA8420BD0194DA8427C
:1019C00008D0194DA84205D0184DA84202D0184D94
:1019D000A84203D122F44075CA682A434D6922F017
:1019E00080022A438D68C5620D688562984201D0E5
:1019F000A04201D109690163016841F0040101605D
:101A0000012141610260F0BD00000140000400407E
:101A100000080040000C004000040140004001406C
:101A2000004401400048014000180040001C0040F4
:101A30000020004010B5806B0021C185FFF730FA0F
:101A400010BD01680C3151E8002F22F4907241E87A
:101A50000023002BF5D10168143151E8002F22F04A
:101A6000010241E80023002BF5D1016B012909D1C6
:101A700001680C3151E8002F22F0100241E80023E8
:101A8000002BF5D1202180F842100021016370471E
:101A900008B590F84210222901D0022008BD8268C2
:101AA0004FF480539A4201D1016921B1816A9A426F
:101AB0001BD04AB10AE00268816A5268C2F3080288
:101AC0000A80816A891C08E0026972B10268526862
:101AD00002F07F020A70816A491C8162C18D491E31
:101AE0000904090CC18503D01BE002685268F1E7C4
:101AF0000168CA6822F02002CA600168CA6822F43C
:101B00008072CA6001684A6922F001024A6120219C
:101B100080F8421000214163026B012A03D0FFF7D5
:101B2000A3FB002008BD016301680C3151E8002FC0
:101B300022F0100241E80023002BF5D101680A6869
:101B4000D20602D50A6849680091818DFFF7A7F98E
:101B5000E7E7000070B5044600680169E26821F417
:101B60004051114301612169A068E269084361693C
:101B7000114308432168CA6849F20C639A4302433F
:101B8000CA6020684169A26921F440711143416132
:101B900031492068884202D03049884202D1FEF79C
:101BA00041FE01E0FEF72EFEE269002319216425C3
:101BB0003226B2F5004F626828D0A0FB0101930FD6
:101BC0009200FEF7FDFA0146B0FBF5F06FF0180247
:101BD000504301EB800006EB0010B0FBF5F000F085
:101BE000F002B1FBF5F002EB0012B1FBF5F06FF083
:101BF0001803584301EB800006EB0010B0FBF5F032
:101C000000F00F0021681044886070BDA0FB010146
:101C100092185B41FEF7D4FA0146B0FBF5F00201E1
:101C2000B1FBF5F06FF01803584301EB800006EBB1
:101C3000C000B0FBF5F000F0F80002EB4002B1FB91
:101C4000F5F0584301EB800006EBC000B0FBF5F067
:101C500000F00700D6E7000000100140001401402A
:101C600081628285C28500214164222180F8421070
:101C7000016921B10168CA6842F48072CA600168D2
:101C80004A6942F001024A610068C16841F02001DE
:101C9000C160002070472DE9F843984617460D466D
:101CA0000446089E24E0701C22D0FEF771FCA0EBD5
:101CB0000800B0421AD8CEB12068C168490717D5CC
:101CC000802D15D0402D13D00168C94309070FD4CA
:101CD00001680025406800902046FFF7B2FE08200A
:101CE000606484F840500120BDE8F8830320FBE7DE
:101CF0002068006835EA000004D00020B842D2D045
:101D00000020F1E70120F9E70148FFF7CBB8000018
:101D1000740000207047FEE70FB4054B10B503A90F
:101D2000044A029800F028F810BC5DF814FB00008B
:101D3000DD210008280000200907090E002804DB27
:101D400000F1E02080F80014704700F00F0000F16F
:101D5000E02080F8141D704702E008C8121F08C177
:101D6000002AFAD170477047002001E001C1121F1C
:101D7000002AFBD1704700002DE9FF4F8DB00F46C0
:101D80000546002606E025280BD0DDE90F12904716
:101D90006D1C761C28780028F5D111B03046BDE8BE
:101DA000F08F0024A246A1460122EC4900E0044342
:101DB00015F8013F203B02FA03F00842F7D12878DA
:101DC0002A2810D06FF02F022878A0F130010929BD
:101DD00014D80AEB8A0102EB410144F0020400EB43
:101DE000010A6D1CF0E701CF5FEA000A03D544F455
:101DF0000054CAF1000A44F002046D1C28782E2811
:101E000017D115F8010F44F004042A280ED06FF002
:101E10002F022878A0F1300109290AD809EB89019D
:101E200002EB410100EB01096D1CF2E757F8049B3E
:101E30006D1C28786C280FD006DC4C2817D0682839
:101E40000DD06A2814D104E0742810D07A280FD15C
:101E50000DE044F400140AE044F4801401E044F47A
:101E600040146978814202D104F580146D1C6D1C08
:101E70002A786E2A1FD00CDC632A31D004DC002AB9
:101E80008BD0582A11D1A3E0642A68D0692A0CD1DA
:101E900065E0732A2ED004DC6F2A73D0702A04D137
:101EA0009BE0752A6FD0782A6ED01046DDE90F12BC
:101EB0009047761C50E1C4F30250022806D0032854
:101EC00009D0042801CF09D0066045E101CFF11700
:101ED000C0E9006140E101CF06803DE106703BE1D1
:101EE00017F8040B8DF8000000208DF80100EB4678
:101EF000012003E057F804BB4FF0FF3061074FF0BB
:101F0000000102D40DE008F10101884649450FDACD
:101F10008045F8DB1BF808100029F4D108E008F12F
:101F2000010188468142FADB1BF808100029F6D12E
:101F3000DDE90F23AAEB08008146214600F036F9BF
:101F4000304400EB080604E0DDE90F121BF8010B3A
:101F50009047B8F10108F7D221464846F7E00A2138
:101F6000C4F302534FF0000B0891022B04D001CFB1
:101F7000C117032B09D00AE0FF1D27F00707F7E878
:101F8000020108E032E01FE020E000B2C117042B9C
:101F900001D140B2C117031E71F1000307DA4FF0FF
:101FA000000CD0EB0C006CEB01012D2302E02305AB
:101FB00004D52B238DF82430012303E0E30701D05F
:101FC0002023F7E7984658E00A2110E010210EE0A0
:101FD00010204FF0000B08900CE010214FF0000B88
:101FE00044F004044FF00809089103E008214FF081
:101FF000000B0891C4F30253022B04D001CF00213F
:10200000032B06D006E0FF1D27F00707F7E80201C3
:1020100003E080B2042B00D1C0B24FF000082307C8
:102020002BD5702A07D0DDF820C08CF0100C5CEAAC
:102030000B0C05D00EE040238DF82430012308E07E
:1020400050EA010306D030238DF824308DF8252086
:1020500002239846DDF820C08CF0080C5CEA0B0CDB
:102060000BD150EA010301D1630706D530238DF867
:1020700024304FF00108A9F10109582A04D038A2F0
:102080000B9208AA0A920BE03AA2F9E75B46089A7B
:10209000FEF796F80B9B9B5C0A9A521E0A921370ED
:1020A00050EA0102F2D10A98ADEB000000F1200BDA
:1020B000600702D524F4803401E04FF00109D945CE
:1020C00002DDA9EB0B0000E0002000EB0B01414416
:1020D0000890AAEB010AE00306D4DDE90F232146AC
:1020E000504600F063F806444FF0000908E009A9E3
:1020F00011F80900DDE90F12904709F10109761C7A
:10210000C145F4DBE0030CD5DDE90F232146504641
:1021100000F04CF8064404E0DDE90F12302090474F
:10212000761C0899481E08900029F5DC08E00A98FA
:102130000A990078491C0A91DDE90F129047761C34
:10214000BBF10001ABF1010BF1DC21465046DDE9AA
:102150000F2300F019F806446D1C1BE60928010046
:10216000303132333435363738396162636465660D
:1021700000000000303132333435363738394142CF
:1021800043444546000000002DE9F0410446002587
:102190001E461746880404D405E039462020B0477F
:1021A0006D1C641EF9D52846BDE8F0812DE9F0418B
:1021B000044600251E469046C80301D5302700E09E
:1021C0002027880404D505E041463846B0476D1CF9
:1021D000641EF9D52846BDE8F081000013B54FF024
:1021E000FF33012269460248FFF75AF800981CBDE8
:1021F000BC000020FEF7DAF9FFF75CFBFFF7A2F85E
:10220000FFF718F9FFF73AF9FFF754F900F0C4F8AF
:102210004FF49670FEF7ACF8012226492648FFF7E6
:1022200015F826A0FFF778FD002208212748FEF7C1
:10223000A9F9274E274C284DDFF8A09014274FF01E
:1022400000084021224800F05BF82080208850B12F
:102250007078072807D021881D48FFF769FA20A069
:10226000FFF75AFD04E0208810B17078072806D0E7
:102270006068B0FBF7F107FB110070B10FE072B6B8
:10228000BFF34F8F19480168194A01F4E061114307
:102290000160BFF34F8F00BFFDE7FFF73BFD2878DC
:1022A0000028CED085F8008099F8001011A0FFF723
:1022B00033FDC6E72200002074000020697320630C
:1022C0006F6E6E6563740D0A00000000000C024022
:1022D0000803002000000020210000202000002032
:1022E00067657420646174610D0A00000CED00E004
:1022F0000400FA0572783A20253032580D0A0000A1
:10230000F0B51C4D00273A46194CB5F800C019E04D
:10231000664506D0174A121DB25C761CC6F3080348
:102320006B8023880BB9EE2A0CD18B4202D2C254A7
:102330005B1C2380636842EA032303F54036636035
:10234000761C11D06E88ACEB060303F500734FEAE0
:10235000E37E03EBDE5E6FF3080EA3EB0E031B04BC
:102360001B0CD5D10020F0BD208867602780F0BD10
:102370001800002004010020064910B50B884C8885
:102380005A1CC2F30802944202D00C1D18550A8050
:1023900010BD00000401002003490020488008808F
:1023A000024948600880704704010020180000209E
:1023B00000000000000000000102030406070809F5
:1023C0000000000001020304E823000800000020D0
:1023D0002C000000581D0008142400082C000020C8
:1023E0001C070000681D000800000000000000003D
:1023F0000100000010000000000000000024F400B4
:1024000000000000000000000000000001000000CB
:0424100000000000C8
:040000050800018965
:00000001FF
