:020000040800F2
:10000000680700209D0100081F1C00083F1A000817
:100010001D1C0008D9080008ED2D00080000000094
:10002000000000000000000000000000E7220008BF
:10003000E508000800000000BD200008AD2600080B
:10004000B7010008B7010008B7010008B7010008B0
:10005000B7010008B7010008B7010008B7010008A0
:10006000B7010008B7010008B7010008B701000890
:10007000B7010008B7010008B7010008B701000880
:10008000B7010008B7010008B7010008B701000870
:10009000B7010008B7010008B7010008B701000860
:1000A000B7010008B7010008B7010008B701000850
:1000B000B7010008B7010008B7010008B701000840
:1000C000B7010008B7010008B7010008B701000830
:1000D000B7010008052B0008B7010008B7010008A8
:1000E000B7010008B7010008B7010008B701000810
:1000F000B7010008B7010008B7010008B701000800
:10010000B7010008B7010008B7010008B7010008EF
:10011000B7010008B701000855270008B70100081B
:10012000B7010008B7010008B7010008B7010008CF
:10013000B7010008B7010008B7010008B7010008BF
:10014000B7010008B7010008B7010008B7010008AF
:10015000B7010008B7010008B7010008B70100089F
:10016000B7010008B7010008B7010008B70100088F
:10017000B7010008B7010008B7010008000000003F
:10018000B7010008B7010008DFF80CD000F092F9C1
:1001900000480047FD3200086807002006488047F5
:1001A00006480047FEE7FEE7FEE7FEE7FEE7FEE75C
:1001B000FEE7FEE7FEE7FEE74527000889010008A5
:1001C0002DE9F05F0546002092469B46884606468C
:1001D000814640241BE0284641464746224600F01F
:1001E00016F953465A46C01A914110D31146184683
:1001F000224600F0FDF82D1A67EB01084F46224613
:100200000120002100F0F4F817EB00094E41201EF8
:10021000A4F10104DFDC484631462A464346BDE8E6
:10022000F09F40EA01039B0703D009E008C9121FB1
:1002300008C0042AFAD203E011F8013B00F8013BA0
:10024000521EF9D27047D2B201E000F8012B491ECC
:10025000FBD270470022F6E710B513460A46044663
:100260001946FFF7F0FF204610BD00000FB400B59F
:100270008DB010A909900B9000914FF0FF300A90BB
:1002800000200C9005480690054807906A4609A88A
:100290000F9900F0E1F80DB05DF814FB750400084B
:1002A000930400082DE9FF5F1D464FF0FF3BD5E9A1
:1002B000014691465F464FF00008A9697F1C0198EE
:1002C0008847296A824688470028F6D1BAF1FF3F5D
:1002D0000CD024F4C064002E19DD600614D5BAF1E8
:1002E0002B0F09D0BAF12D0F0ED103E0584604B000
:1002F000BDE8F09F44F48064A9697F1C0198884799
:10030000761E8246002E02DDBAF1300F03D0B9F11D
:10031000000F26D032E0A969761E44F400747F1CD9
:10032000019888478246002E05DDBAF1780F06D085
:10033000BAF1580F03D0B9F1000F10D01EE0B9F197
:10034000000F02D0B9F1100F18D1A969761E24F45C
:1003500000747F1C019888478246102002E0082024
:1003600000E00A20814609E008FB0908A969761E19
:1003700044F400747F1C019888478246002E05DDF6
:100380004946504600F053F80028EDDAE969019833
:100390008847A00502D46FF00100A8E7E00725D147
:1003A000600613D5600502D5C8F1000000E04046A4
:1003B00029680A1D2A600968220501D5087015E020
:1003C000220701D5088011E008600FE02868011DB0
:1003D00029600068210502D580F8008006E0210729
:1003E00002D5A0F8008001E0C0F8008038467EE722
:1003F000202A04DB203A00FA02F1002070479140E5
:10040000C2F1200320FA03F3194390407047202AD9
:1004100004DB203A21FA02F00021704721FA02F3AE
:10042000D040C2F1200291400843194670473A2853
:1004300000D2303820F02002412A01D3A2F1370047
:10044000884201D34FF0FF3070470000026811442A
:100450001378016018467047D1600449516104491E
:10046000116200211161114600F03CB84D040008F2
:10047000D9040008426842B1016811F8013B23B178
:10048000521EC0E90012184670470121C160881E43
:10049000704742685AB1C368016843B983688B42A8
:1004A00005D0491E521CC0E90012002070474FF0D1
:1004B000FF307047064C074D06E0E06840F001034E
:1004C00094E8070098471034AC42F6D3FFF760FE7B
:1004D0004837000868370008C0B24FF4F05100F008
:1004E00097B900002DE9F34F8BB04FF0000801F1F0
:1004F0000C000C464FF0010B46460DF1080A019026
:100500006269012101989047051E2DD0252D2CD020
:10051000216A8847C0B16269012101989047216A28
:1005200088470028F7D1411E62690198904700E092
:10053000761CA1690B988847216A88470028F7D163
:10054000E1690B988847DBE7A1690B988847074664
:10055000A84201D1761CD3E7E1690B9888477F1C3C
:1005600002D1B8F1000F6FD046E1002762693D4625
:100570003946019890472A2804D1626901210198DF
:1005800090470125DFF88492626901210198904724
:10059000A0F130010A290AD24F45E5DC07EB8701BB
:1005A00000EB4107303FDFD445F01005ECE7E906EA
:1005B00001D46FF000476C280AD04C2814D068286A
:1005C00015D06A280DD074281CD07A281AD01DE0C6
:1005D00062690121019890476C2802D045F004051A
:1005E00014E045F002050DE045F020050AE06269DF
:1005F000012101989047682802D045F0080505E0E0
:1006000045F400656269012101989047C4E90157EA
:1006100065283DD019DC58287AD00CDC452837D025
:1006200004DC252826D0412831D131E046282FD0BE
:1006300047282CD12CE05B2877D0612828D063286C
:100640007CD0642823D15AE0D0E06F2848D008DC61
:1006500066281DD067281BD0692821D06E2816D1A6
:1006600027E0702845D0732868D0752847D07828AF
:100670000DD14DE0A1690B988847054625283FF428
:1006800069AFE1690B9888476D1C3FF46AAFB3E02E
:1006900023466A466FF001000B99AFF300809EE09D
:1006A00045F040006060A80723464FF0000236D4B2
:1006B0003EE0E8077FF447AF2068011D2160006835
:1006C000290501D506701BE7290701D5068017E724
:1006D000A90703D5F117C0E9006111E706600FE72C
:1006E00045F040006060A80723464FF0080216D48A
:1006F0001EE040F60E0125EA0100606016E045F0BC
:1007000040006060A80723464FF00A0207D40FE0BC
:1007100045F040006060A80708D5234610226FF01E
:1007200001000B99AFF3008059E007E02346102247
:100730006FF001000B99FFF7B5FD50E04FF0000995
:100740004F464B46632802D05B2806D040E0E806BF
:1007500001D40120A06001273AE0626901210198DB
:1007600090475E2805D14FF001096269494601981A
:100770009047216939B900210A46534643F82120A0
:10078000491C0829FADBB0B3216969B9C11700EB2C
:10079000D16253110AEB830122F01F02821A012059
:1007A0000B68904003430B606269012101989047F8
:1007B0005D28E8D1B9F1000F09D00020514651F869
:1007C0002020D24341F82020401C0828F7DB02AB50
:1007D000224600976FF001000B99AFF300800028CC
:1007E0000CDA401C08D1BBF1000F05D04FF0FF30F0
:1007F0000DB0BDE8F08FFFE74046F9E7E90701D10A
:1008000008F1010806444FF0000B79E6CCCCCC0C83
:100810007F2801D9002208E0064A02EB5002C007F7
:10082000127800D1120902F00F0201209040084016
:1008300070470000FC35000870B5054616460C46AA
:10084000EE2001F051FDB12001F04EFD232001F01A
:100850004BFD280A01F048FDE8B201F045FD200AF1
:1008600001F042FDE0B201F03FFD304601F03CFDF9
:10087000FF2001F039FDFC2001F036FDFF2001F0E2
:1008800033FDBDE87040FF2001F02EBD70B5054678
:100890000C46EE2001F028FDB12001F025FD2020BE
:1008A00001F022FD280A01F01FFDE8B201F01CFD55
:1008B000200A01F019FDE0B201F016FDFF2001F061
:1008C00013FDFC2001F010FDFF2001F00DFDBDE83F
:1008D0007040FF2001F008BDFEE7010A01EB002097
:1008E00080B27047704772B6FEE770B505460C4699
:1008F000EE2001F0F9FCB12001F0F6FC112001F02E
:10090000F3FC280A01F0F0FCE8B201F0EDFC200A4B
:1009100001F0EAFCE0B201F0E7FCFF2001F0E4FCAA
:10092000FC2001F0E1FCFF2001F0DEFCBDE870409E
:10093000FF2001F0D9BC2DE9F04106469846174644
:100940000D46EE20069C01F0CFFCB12001F0CCFC5E
:10095000322001F0C9FC300A01F0C6FCF0B201F00F
:10096000C3FC280A01F0C0FCE8B201F0BDFC384627
:1009700001F0BAFC200A01F0B7FCE0B201F0B4FCCF
:100980002146404601F0C0FCFF2001F0ADFCFC20F8
:1009900001F0AAFCFF2001F0A7FCBDE8F041FF2018
:1009A00001F0A2BC2DE9F0410446876D00F06EF91C
:1009B000064694F835000025022806D080206065A0
:1009C00084F834500120BDE8F0812068016821F0EE
:1009D000160101602068416921F080014161206CAD
:1009E00008B9A06C20B12068016821F008010160FD
:1009F0002068016821F0010101600CE000F046F977
:100A0000801B052807D920206065032084F8350065
:100A100084F83450D7E720680068C007EED194F816
:100A20005C103F208840B860012084F8350084F8CD
:100A300034500020C7E790F83510022903D08021F8
:100A4000416501207047052180F835100068016874
:100A500021F00101016000207047000070B50446DC
:100A600000F014F90546601C02D0044800780444E4
:100A700000F00CF9401BA042FAD370BD0400002026
:100A80002DE9F84FDFF8BCA10022012503264FF025
:100A90000F090AF1040BAAF1040E00BF0B6805FA56
:100AA00002F42340A34270D10F7907F00307012F0E
:100AB00001D0022F16D187684FEA420806FA08FCD7
:100AC00027EA0C07D1F80CC00CFA08FC4CEA070C1A
:100AD000C0F808C04768A7430C79C4F300149440D9
:100AE0003C4344600C79E443A4070AD0C4684FEA4D
:100AF000420C06FA0CF7BC438F6807FA0CF7274341
:100B0000C7600C7904F00304022C12D1D40800EB66
:100B1000840CDCF820405707FF0E09FA07F824EA96
:100B20000804D1F8108008FA07F848EA0408CCF85D
:100B3000208004684FEA420C06FA0CF7BC430F7998
:100B400007F0030707FA0CF7274307604C6814F413
:100B5000403F70D03C4C276847F4804727602468AA
:100B600022F0030704F480440094384C07EB040C93
:100B7000DCF8084897074FEA177809FA08F7BC43EA
:100B8000334FB84202D1002724E054E0314FB8423D
:100B900001D101271EE0304FB84201D1022719E0F0
:100BA0002E4FB84201D1032714E02D4FB84201D196
:100BB00004270FE02B4FB84201D105270AE02A4F46
:100BC000B84201D1062705E0284FB84201D10727D6
:100BD00000E0082707FA08F72743CCF80878DAF886
:100BE00000405746D1F804C09C435FEACC2C00D5A6
:100BF0001C433C60DBF800405F46D1F804C09C43D6
:100C00005FEA8C2C00D51C433C60DEF80040774640
:100C1000D1F804C09C435FEA8C3C00D51C433C6087
:100C2000084F083F3C68D1F804C09C435FEACC3CC5
:100C300000D51C433C60521C102AFFF42FAFBDE8C6
:100C4000F88F0000083C0140443802400030014069
:100C5000000002400004024000080240000C024074
:100C6000001002400014024000180240001C024024
:100C7000426921EA02030A4043EA02418161704766
:100C80000AB1816170470904FBE7000001488068F0
:100C90007047000004000020024881680278114477
:100CA00081607047040000200B4810B5016841F4D2
:100CB00000710160016841F480610160016841F4E4
:100CC00080710160032000F06FF80F2000F006F83B
:100CD00000F024F8002010BD003C024070B50D4D1E
:100CE00004464FF47A712878B1FBF0F00A4909689C
:100CF000B1FBF0F000F00AFB48B9102C07D200223B
:100D00002146501E00F030F800206C6070BD0120BC
:100D100070BD000004000020100000200A4808B543
:100D2000016841F480410160006800F48040009057
:100D30000548001F016841F080510160006800F023
:100D40008050009008BD000044380240002809DBB4
:100D500000F01F02012191404009800000F1E020D5
:100D6000C0F8001170470000F0B40E4B1B680C4631
:100D7000C3F30223C3F10705042D00D90425191D6F
:100D8000072901D2002300E0DB1E012606FA05F147
:100D9000491E214099409E40761E16403143F0BCCA
:100DA00002F04AB80CED00E0064900F007020868BE
:100DB0004FF6FF03184040EA0220034A1043086040
:100DC000704700000CED00E00000FA052DE9F04747
:100DD0000E46050065D0DFF81481D8F80000F7B2A0
:100DE00000F00700B04207D288F80070D8F8000081
:100DF00000F00700B04254D128683D4C810712D55D
:100E0000400703D5206840F4E050206028780007B0
:100E100003D5206840F4604020602068A96820F075
:100E2000F000084320602878C0072DD0304968685A
:100E30000839012812D0022813D0032811D00968DC
:100E4000890700292DDA216821F00301014321607F
:100E5000FFF71CFF814641F2883A0EE009688903DA
:100E6000EFE709688901ECE7FFF710FFA0EB090144
:100E7000514502D90320BDE8F0872068696800F079
:100E80000C00B0EB810FEFD1D8F80010404601F014
:100E90000701B14207D90770006800F00700B042AF
:100EA00001D00120E7E72878400705D52068E968E8
:100EB00020F4E050084320602878000706D5206819
:100EC000296920F4604040EAC100206000F038F851
:100ED0002168084AC1F30311515CC8400649086003
:100EE00006480068FFF7FAFE0020C4E7003C024015
:100EF0000838024074340008100000200800002068
:100F00000448054900680968044AC1F38221515C1C
:100F1000C8407047100000200838024084340008A0
:100F20000448054900680968044AC1F34231515C2C
:100F3000C840704710000020083802408434000880
:100F4000154810B5006810F00C02144813D0411079
:100F5000042A0FD0082A0ED10F4C241F22682368C0
:100F600002F03F025B0207D52068C0F38810A0FBA7
:100F7000010106E0084610BD2168C1F38811A1FBFC
:100F800000010023FFF71CF92168C1F30141491C4E
:100F90004900B0FBF1F010BD083802400024F40015
:100FA0002DE9F84F04006ED02078DFF84C93C0078D
:100FB000A9F104054AD009F104000168C1F38101D7
:100FC000012908D00068C0F3810002280AD1D9F8AD
:100FD0000000400206D52868800337D560680028E5
:100FE000E1D033E06068B0F5803F10D0B0F5A02FBD
:100FF000286810D020F480302860286820F48020F1
:1010000028606068A8B1FFF741FE06460DE0286839
:1010100040F48030F4E740F480202860F7E700BF18
:10102000FFF734FE801B642873D828688003F7D547
:101030000CE0FFF72BFE064605E000BFFFF726FE9B
:10104000801B6428F0D828688003F7D42078DFF864
:10105000AC8280074FF0000A3ED5A748001D01680A
:1010600011F00C0F08D00068C0F3810002280BD1EA
:10107000D9F80000400207D42868800716D5E06838
:10108000012800D112E033E1E068B8B10120C8F8CE
:101090000000FFF7FBFD064605E000BFFFF7F6FD89
:1010A000801B0228C0D828688007F7D528682169E6
:1010B00020F0F80040EAC10028600DE0C8F800A068
:1010C000FFF7E4FD064604E0FFF7E0FD801B022881
:1010D0001FD828688007F7D42078000722D5864FCC
:1010E00087486169703771B101210160FFF7CEFD5A
:1010F000064604E0FFF7CAFD801B022809D83868BD
:101100008007F7D50EE0C0F800A0FFF7BFFD064648
:1011100005E082E0FFF7BAFD801B02287DD8386821
:101120008007F7D42078400768D5DFF8CCB10027D6
:101130000BF13C0BDBF80000C0000BD4DBF8001017
:1011400041F08051CBF80010DBF80000012700F0DF
:10115000805000906B4E3068C00510D4306840F469
:1011600080703060FFF792FD009005E0FFF78EFD84
:101170000099401A022850D83068C005F6D55E4E56
:10118000A0686C3601280FD00528306810D020F0F8
:1011900001003060306820F004003060A068B8B111
:1011A000FFF774FD00900FE0306840F00100F4E7B5
:1011B00040F004003060F7E7FFF768FD0099411A3E
:1011C00041F28830814266D830688007F4D50EE05D
:1011D000FFF75CFD009007E0FFF758FD0099411A0A
:1011E00041F28830814256D830688007F4D42FB15C
:1011F000DBF8001021F08051CBF80010A069C8B3D3
:101200003D49091D0968C1F3810102294AD002281C
:10121000504607D0C8F8600000E03CE0FFF736FD1C
:1012200004463BE04746C8F86000FFF72FFD06463E
:1012300005E000BFFFF72AFD801B02282BD8286895
:101240008001F7D4D4E907010843A16A2E4A49086E
:1012500002EB0141626A41EA8211084394F82C10C2
:1012600040EA0161C9F8001001203866FFF70EFD61
:10127000044606E03EE000BFFFF708FD001B022821
:1012800009D828688001F7D534E000BFFFF7FEFCDD
:10129000001B022802D90320BDE8F88F28688001CE
:1012A000F4D427E00128F7D0D9F80000E26900F46F
:1012B000800191421CD1226A00F03F01914217D176
:1012C00047F6C071626A0140B1EB821F10D1A26A79
:1012D0004FF0FF3300F4403103EB5202B1EB024F09
:1012E00006D194F82C1000F07060B0EB016F01D0C3
:1012F0000120D1E70020CFE7043802400000474238
:10130000800E4742007000400000FFFF10B5401EF5
:10131000B0F1807F01D3012010BD4FF0E024606167
:101320000F21601701F088FD0020A06107202061D7
:10133000002010BD7047704770B590F83C20012A1E
:1013400032D0012480F83C40022280F83D2003681E
:101350005A689D6822F070060A6832435A60134B3F
:1013600002689A4214D0B2F1804F11D0104B9A42C9
:101370000ED0104B9A420BD00F4B9A4208D00F4B15
:101380009A4205D00E4B9A4202D00E4B9A4204D19B
:10139000496825F080031943916080F83D400021A1
:1013A00080F83C10084670BD022070BD000001406E
:1013B0000004004000080040000C00400004014010
:1013C000004001400018004010B5040003D094F81C
:1013D0003D0010B107E0012010BD002084F83C0062
:1013E000204600F01FF8022084F83D00211D2068EF
:1013F00001F0B6F9012084F8460084F83E0084F834
:101400003F0084F8400084F8410084F8420084F8EA
:10141000430084F8440084F8450084F83D0000202F
:1014200010BD000008B500680B49884212D10B4876
:10143000016841F0100101600068002200F0100016
:10144000009011463620FFF78FFCBDE8084036209B
:10145000FFF77CBC08BD000000100040403802408F
:1014600070472DE9F04104460068C66805694FF0F1
:101470000007A90713D5B10711D5F91E0161012095
:101480002077206880698007204602D0FFF7E8FFB8
:1014900004E000F07EF8204600F07CF8277768072B
:1014A00016D5700714D521686FF00400086102207A
:1014B00020772068806910F4407F204602D0FFF733
:1014C000CFFF04E000F065F8204600F063F82777CE
:1014D000280715D5300713D521686FF0080008617B
:1014E000042020772068C0698007204602D0FFF7DB
:1014F000B7FF04E000F04DF8204600F04BF82777E6
:10150000E80616D5F00614D521686FF010000861C2
:10151000082020772068C06910F4407F204602D060
:10152000FFF79EFF04E000F034F8204600F032F8A8
:101530002777E80708D0F00706D021686FF0010090
:101540000861204600F027F8280608D5300606D5A1
:1015500021686FF0800008612046FFF7EBFE680607
:1015600008D5700606D521686FF040000861204656
:1015700000F012F8A8060AD5B00608D521686FF069
:10158000200008612046BDE8F041FFF7D4BEBDE869
:10159000F081704770477047704770477047000090
:1015A000F8B5016804460868CA684B6910F00F0F67
:1015B0004FF0000559D003F0010602F4907737434D
:1015C00065D0C10705D0D10503D5616C41F001019B
:1015D0006164410705D5D90703D0616C41F0020170
:1015E0006164810705D5D90703D0616C41F004011E
:1015F0006164010707D502F02001314303D0616C1B
:1016000041F008016164616C00293AD0800604D57C
:10161000900602D5204601F039F920684069616CD6
:10162000C0F38010090700D460B3204601F007F929
:1016300020684069400621D52068143050E8001F1A
:1016400021F0400140E80012002AF5D1E06BA8B17A
:1016500072490165E06BFFF7EEF9002811D0E06BED
:10166000016D01B0BDE8F040084783060FD5930631
:101670000DD52046BDE8F84001F008B92046FFF737
:101680008DFFF8BD2046FFF789FF6564F8BD266B26
:101690002023012E7ED1C6067CD5D6067AD50868D1
:1016A0004868009048694FF0020640064DD5E26B4D
:1016B000106840684FF480770004000C3AD0A18D88
:1016C000814237D9E085D069B8422DD020680C30EE
:1016D00050E8001F21F4807140E80012002AF5D183
:1016E0002068143050E8001F21F0010140E800128A
:1016F000002AF5D12068143050E8001F21F0400185
:1017000040E80012002AF5D184F8423025632068B1
:101710000C3050E8001F21F0100140E80012002AB0
:10172000F5D1E06BFFF73EF96663A08DE18D401ABD
:1017300081B206E0A18D8142A8D1D069B842A5D17D
:1017400066632046FFF729FFF8BDA08DE18D401AA2
:1017500081B2E08D0028F7D00029F5D020680C3048
:1017600050E8002F22F4907240E80027002FF5D1B6
:101770002068143050E8002F22F0010240E80027D2
:10178000002FF5D184F84230256320680C3050E8F2
:10179000002F00E006E022F0100240E80023002BBA
:1017A000F3D1CDE705062BD5150629D594F84100D0
:1017B0002128C9D1A068B0F5805F01D12069B0B1FE
:1017C000206A411C2162216800784860E08C401E3C
:1017D0000004000CE084B7D12068C16821F08001CA
:1017E000C1602068C16841F04001C160F8BD206A55
:1017F0000088C0F308004860206A801C2062E5E78A
:101800004006F3D55006F1D5CA68204622F04002C2
:10181000CA6084F8413000F011F9F8BD31280008A1
:1018200070B5040004D094F84100002510B106E022
:10183000012070BD84F84050204600F023F8242099
:1018400084F841002068C16821F40051C16020463D
:1018500001F07EF82068016921F49041016120685F
:10186000416921F02A0141612068C16841F40051B9
:10187000C1606564202084F8410084F842006563FB
:10188000002070BD70B586B0044614216846FEF78E
:10189000E1FC284E22680021274802230324072563
:1018A000B24225D1244A1432166846F0100616605A
:1018B000126802F010020592026842F00102026012
:1018C000006802AA00F00100059082E83200600280
:1018D000CDE9000369461948FFF7D2F80022114606
:1018E0002520FFF741FA2520FFF730FA06B070BD3A
:1018F000134EB242FAD1104A1032166846F48026CE
:101900001660126802F480220592026842F0020218
:101910000260006802AA00F00200059082E832002E
:101920004FF44060CDE9000369460648FFF7A8F888
:10193000DCE70000001001403038024000000240A7
:10194000004800400004024090F84230202B01D0B3
:101950000220704721B11AB10023036301F07EB861
:101960000120704710B50068094988420ED1094C22
:10197000A07801F063FDA078207001206070A11CA8
:101980000246BDE810400448FFF7DEBF10BD00006E
:10199000001001401C000020940000202DE9F843B5
:1019A000044690F84100984616460D46202802D07D
:1019B0000220BDE8F88385B17EB10020606421205B
:1019C00084F84100FFF762F9A6848146E684A068A6
:1019D0002027B0F5805F02D003E00120E9E720690D
:1019E00010B12E4600250EE000260CE08021204696
:1019F00001F04FF8A8B9C6B116F8010B216848608C
:101A0000E08C401EE084E08C4B464FF00002CDF8A5
:101A100000800028EAD14FF04001204601F039F85B
:101A200040B184F841700320C3E735F8020BC0F3DE
:101A30000800E3E784F841700020BAE77047FEE74A
:101A40002DE9F04105461E4617460C46EE2000F0F3
:101A50004BFCB12000F048FC602000F045FC280A57
:101A600000F042FCE8B200F03FFC200A00F03CFC31
:101A7000E0B200F039FC3146384600F045FCFF206A
:101A800000F032FCFC2000F02FFCFF2000F02CFCCA
:101A9000BDE8F041FF2000F027BC00002DE9F04137
:101AA00086B014216846FEF7D5FB2B480024016858
:101AB00041F004010160016801F004010591016831
:101AC00041F080010160016801F080010591016829
:101AD00041F010010160016801F0100105910168F9
:101AE00041F002010160016801F002010591016805
:101AF00041F008010160016801F0080105910168E9
:101B000041F0010101600068144F00F001004FF442
:101B1000CF450590002229463846FFF7B1F8DFF897
:101B200040804FF6F846002231464046FFF7A8F8BD
:101B300000950125CDE90154694638460394FEF726
:101B40009FFF0096CDE90154694640460394FEF795
:101B500097FF06B0BDE8F081303802400010024027
:101B6000000C02401CB500240F4800940D4901945C
:101B70000160A721C0E9011442F20F71C160802108
:101B80008161FFF721FC08B1FEF7ADFE00946946C4
:101B900005480194FFF7D0FB002801D0FEF7A3FE13
:101BA0001CBD0000001000404C0000200C4810B587
:101BB0000A4901604FF4E1314160002181600C224B
:101BC000C160C0E904128161C161FFF729FE0028EC
:101BD00003D0BDE81040FEF786BE10BD00100140E6
:101BE000940000200C4810B50A4901604FF4E1311F
:101BF0004160002181600C22C160C0E90412816152
:101C0000C161FFF70DFE002803D0BDE81040FEF7CC
:101C10006ABE10BD00480040DC000020FEE7FEE781
:101C200001220221032000F0A1BB0000F8B51646F6
:101C3000C0B100220125414C0B2831D0082837D0F3
:101C40000D283DD0052830D120460329806A64D074
:101C500004292AD1401CA062642801DB6420A06210
:101C600002465FE0364C07290CD009291DD135A06A
:101C700001F0BEF8012E18D12046BDE8F840082139
:101C8000FEF7F6BF32A001F0B3F8012E06D0002215
:101C90002046BDE8F8400821FEF7F2BF0122F7E731
:101CA000022903D0032900D12562F8BD2262F8BDC4
:101CB0000829FCD1012EFAD1BDE8F84000F08ABA1B
:101CC00004290DD00529F2D1627901210D2000F0FF
:101CD00027FCA279BDE8F84002210D2000F020BCCD
:101CE000E078062801D800220EE0C11F052901D89E
:101CF000012209E0A0F10D01052901D8022203E02B
:101D00001338042804D8032203210D2000F008FC16
:101D1000E07860712079A071F8BD401EA0620028B3
:101D20009EDCA2620121052000F0C5FB0095002386
:101D300002210520A26A00F01DFCF8BD1C00002055
:101D4000000C0240627574746F6E20320D0A000040
:101D5000627574746F6E20310D0A000008B5052895
:101D600008D105480023022182620120009005204D
:101D700000F000FC08BD00001C0000202DE9F84F19
:101D8000DFF808A1DDE90B5404F00F07240904EB88
:101D9000840407EB440700F00F04000900EB800007
:101DA00004EB400001F00F04090901EB810104EB91
:101DB000410902F00F01120902EB820201EB420419
:101DC0001A090A9E03F00F0102EB820201EB42089E
:101DD000320906F00F0102EB8202CAF81C7001EB17
:101DE00042072A0905F00F0102EB820201EB4206CD
:101DF000012502462B4629460820009500F0BAFB33
:101E000001234A4602210820009500F0B3FB01237C
:101E1000424603210820009500F0ACFB01233A461E
:101E200004210820009500F0A5FB0123324605217E
:101E30000820009500F09EFB009501230621082054
:101E4000DAF81C2000F096FB94B1012C12D0022C81
:101E500012D0032C12D0042C12D0052C12D0062C38
:101E600012D10BA2BDE8F84F0721082000F0C7BB34
:101E700009A2F7E70AA2F5E70BA2F3E70CA2F1E744
:101E80000DA2EFE70EA2EDE7BDE8F88F1C000020E1
:101E9000D0C7C6DAC1F90000D0C7C6DAC8D500007D
:101EA000D0C7C6DAD2BB0000D0C7C6DAB6FE000083
:101EB000D0C7C6DAC8FD0000D0C7C6DACBC4000060
:101EC000D0C7C6DACEE500001FB53C4C0328208100
:101ED00003D10122114600F049FA2089092802D1D4
:101EE0000121FEF7D3FC2089052802D10121FEF74C
:101EF000FCFC20890E2808D131A30FCB8DE80F0000
:101F00006A4601210E2000F07AFB20890F2844D177
:101F100000231A46012100F0ACF9012200231146EA
:101F20000F2000F0A6F90023022201210F2000F06B
:101F3000A0F90023032201210F2000F09AF90023C9
:101F4000042201210F2000F094F900230522012131
:101F50000F2000F08EF90023062201210F2000F04F
:101F600088F90023072201210F2000F082F94FF4A5
:101F7000FA60FEF773FD00231A4601210F2000F0DE
:101F80003EF90122002311460F2000F038F900230A
:101F9000022201210F2000F032F9208911280CD1F2
:101FA0000B480122D0E90010CDE9001003211120D7
:101FB00000F0DCF9684600F082F81FBD1C0000202C
:101FC0007777772E677A2D64632E636F6D0000003C
:101FD0008C3400080D2806D10348012900D1C270B5
:101FE000022900D1027170471C0000207CB5144604
:101FF0000022019207280FD1012502290DD00529C1
:102000000AD12246042100F056FA00232246062176
:102010000720009500F0AEFA7CBD22460121072082
:1020200000F049FA0023224603210720009500F022
:10203000A1FA6042FF2101EB400204A101A800F0D7
:10204000E7FE9DF8040000F078F97CBD25630000F0
:102050007CB513460D46042824D1002401AA12A100
:1020600018460194FEF702F9022D1BD101980028B1
:1020700001DA019404E04FF4BE71884200DD019161
:1020800001240023009402210420019A00F072FA36
:102090000198012300EBD070421005210420009428
:1020A00000F068FA7CBD0000256C6400082804D1AB
:1020B000072902D1642000F083B97047704770B5DA
:1020C00005460024EE2000F00FF935B1285D00F040
:1020D0000BF9641CE4B2132CF8D3FF2000F004F9D0
:1020E000FC2000F001F9FF2000F0FEF8BDE8704090
:1020F000FF2000F0F9B80000FEB50246467884786B
:10210000C379B0F80300FEF7E8FB0546B2F8050016
:10211000FEF7E3FB0146906800BA20F0FF07D07A93
:1021200007432B480D2E12DD0F2E10D0552E4BD00D
:10213000B12E0DD0F72E0AD18179037AC2798DE8BC
:102140000E0043790279C1788078FFF717FEFEBD53
:10215000012C0BD0103B0C2BF9D2DFE803F00C1351
:102160001A210606062F06060628F0E72846BDE8CF
:10217000FE40FFF7A9BE527A03B02846BDE8F04002
:10218000FFF754BD03B02846BDE8F0400832FFF722
:102190005FBF03B03A462846BDE8F040FFF7DEBD1A
:1021A00003B03A462846BDE8F040FFF71FBF127A59
:1021B00003B02846BDE8F040FFF70CBF03B0284647
:1021C000BDE8F040FFF772BFBDE8FE40FFF728BD55
:1021D0002803002010B5EE2000F086F8822000F0E1
:1021E00083F8FF2000F080F8FC2000F07DF8FF204D
:1021F00000F07AF8BDE81040FF2000F075B82DE936
:10220000F04107461D4690460E460024EE2000F0A1
:102210006BF8B12000F068F8512000F065F8380A3A
:1022200000F062F8F8B200F05FF8300A00F05CF8F5
:10223000F0B200F059F84FEA182000F055F808F015
:10224000FF0000F051F835B1285D00F04DF8641C36
:10225000E4B2072CF8D3FF2000F046F8FC2000F091
:1022600043F8FF2000F040F8BDE8F041FF2000F007
:102270003BB82DE9F04107461D4690460E46002426
:10228000EE2000F031F8B12000F02EF8502000F0E0
:102290002BF8380A00F028F8F8B200F025F8300AD8
:1022A00000F022F8F0B200F01FF84FEA182000F01A
:1022B0001BF808F0FF0000F017F835B1285D00F0BA
:1022C00013F8641CE4B2072CF8D3FF2000F00CF8DC
:1022D000FC2000F009F8FF2000F006F8BDE8F0410E
:1022E000FF2000F001B8704701B5142301226946B0
:1022F0000448FFF753FB034800680168C9434906D7
:10230000FBD408BD9400002070B50D46064600249D
:1023100004E0305DFFF7E8FF641CA4B2AC42F8D3E0
:1023200070BD000010B5044603E000BFFFF7DCFFFE
:10233000641C20780028F9D110BD10B50446EE20A9
:10234000FFF7D2FF6020FFF7CFFF2046FFF7CCFF5B
:10235000FF20FFF7C9FFFC20FFF7C6FFFF20FFF7B4
:10236000C3FFBDE81040FF20FFF7BEBF70B50546B4
:1023700016460C46EE20FFF7B7FFB120FFF7B4FF7B
:102380001020FFF7B1FF280AFFF7AEFFE8B2FFF712
:10239000ABFF200AFFF7A8FFE0B2FFF7A5FF30462A
:1023A000FFF7A2FFFF20FFF79FFFFC20FFF79CFF36
:1023B000FF20FFF799FFBDE87040FF20FFF794BFB3
:1023C00010B50446EE20FFF78FFF6120FFF78CFF6A
:1023D0002046FFF789FFFF20FFF786FFFC20FFF76D
:1023E00083FFFF20FFF780FFBDE81040FF20FFF7CD
:1023F0007BBF70B5064614460D46EE20FFF774FF0E
:10240000B120FFF771FF1820FFF76EFF300AFFF7CA
:102410006BFFF0B2FFF768FF280AFFF765FFE8B22D
:10242000FFF762FF200AFFF75FFFE0B2FFF75CFFF4
:10243000FF20FFF759FFFC20FFF756FFFF20FFF7B3
:1024400053FFBDE87040FF20FFF74EBF70B5064652
:1024500014460D46EE20FFF747FFB120FFF744FF7B
:102460001020FFF741FF300AFFF73EFFF0B2FFF701
:102470003BFF280AFFF738FFE8B2FFF735FF200ED1
:10248000FFF732FFC4F30740FFF72EFFC4F3072026
:10249000FFF72AFFE0B2FFF727FFFF20FFF724FF37
:1024A000FC20FFF721FFFF20FFF71EFFBDE8704073
:1024B000FF20FFF719BF70B5064614460D46EE2003
:1024C000FFF712FFB120FFF70FFF1020FFF70CFFFF
:1024D000300AFFF709FFF0B2FFF706FF280AFFF7FF
:1024E00003FFE8B2FFF700FF200EFFF7FDFEC4F385
:1024F0000740FFF7F9FEC4F30720FFF7F5FEE0B24F
:10250000FFF7F2FEFF20FFF7EFFEFC20FFF7ECFEE7
:10251000FF20FFF7E9FEBDE87040FF20FFF7E4BEB3
:1025200070B5054616460C46EE20FFF7DDFEB120DD
:10253000FFF7DAFE1020FFF7D7FE280AFFF7D4FED8
:10254000E8B2FFF7D1FE200AFFF7CEFEE0B2FFF7B8
:10255000CBFE3046FFF7C8FEFF20FFF7C5FEFC208C
:10256000FFF7C2FEFF20FFF7BFFEBDE87040FF206F
:10257000FFF7BABE2DE9F04106461F4614460D4648
:10258000EE20DDF81880FFF7AFFEB120FFF7ACFEBC
:102590000720FFF7A9FE300AFFF7A6FEF0B2FFF70B
:1025A000A3FE280AFFF7A0FEE8B2FFF79DFE0FB1D9
:1025B000012000E00020FFF797FE08F00F0040F038
:1025C0008000FFF791FE200EFFF78EFEC4F3074058
:1025D000FFF78AFEC4F30720FFF786FEE0B2FFF79D
:1025E00083FEFF20FFF780FEFC20FFF77DFEFF202B
:1025F000FFF77AFEBDE8F041FF20FFF775BE70B52A
:10260000054616460C46EE20FFF76EFEB120FFF79A
:102610006BFE1020FFF768FE280AFFF765FEE8B2A0
:10262000FFF762FE200AFFF75FFEE0B2FFF75CFEF5
:102630003046FFF777FEFF20FFF756FEFC20FFF73E
:1026400053FEFF20FFF750FEBDE87040FF20FFF76C
:102650004BBE70B5064614460D46EE20FFF744FE0D
:10266000B120FFF741FE1020FFF73EFE300AFFF7D2
:102670003BFEF0B2FFF738FE280AFFF735FEE8B25E
:10268000FFF732FE200AFFF72FFEE0B2FFF72CFE25
:10269000FF20FFF729FEFC20FFF726FEFF20FFF7B3
:1026A00023FEBDE87040FF20FFF71EBEFEF7F4BA20
:1026B00030B593B030216846FDF7CCFD14210CA84D
:1026C000FDF7C8FD1D480025016841F080510160FB
:1026D000006800F0805011901948016841F4804171
:1026E00001600068022400F48040119001200090F5
:1026F000000401908001CDE9064008AA0420A82129
:1027000082E813000B906846FEF74AFC08B172B6E7
:10271000FEE70CA90F2081E831004FF4A0500F9084
:102720004FF48050109005210CA8FEF74FFB0028B5
:1027300001D072B6FEE713B030BD00004038024051
:10274000007000400248016841F470010160704768
:1027500088ED00E00148FEF784BE00004C00002038
:10276000F0B50268274B284D284E294F294C4FF0D1
:10277000804C984209D0604507D0A84205D0B042AD
:1027800003D0B84201D0A04204D122F0700E4A68B2
:1027900042EA0E0298421BD0604519D0A84217D0D9
:1027A000B04215D0B84213D0A04211D01A4DA84261
:1027B0000ED01A4DA8420BD0194DA84208D0194D81
:1027C000A84205D0184DA84202D0184DA84203D106
:1027D00022F44075CA682A434D6922F080022A43D8
:1027E0008D68C5620D688562984201D0A04201D112
:1027F00009690163016841F004010160012141613F
:102800000260F0BD000001400004004000080040EC
:10281000000C004000040140004001400044014021
:102820000048014000180040001C0040002000400B
:1028300010B5806B0021C185FEF7B0FE10BD0168A8
:102840000C3151E8002F22F4907241E80023002B54
:10285000F5D10168143151E8002F22F0010241E85E
:102860000023002BF5D1016B012909D101680C313E
:1028700051E8002F22F0100241E80023002BF5D18F
:10288000202180F8421000210163704708B590F8BC
:102890004210222901D0022008BD82684FF48053E3
:1028A0009A4201D1016921B1816A9A421BD04AB191
:1028B0000AE00268816A5268C2F308020A80816AEB
:1028C000891C08E0026972B10268526802F07F0256
:1028D0000A70816A491C8162C18D491E0904090C74
:1028E000C18503D01BE002685268F1E70168CA683D
:1028F00022F02002CA600168CA6822F48072CA60AD
:1029000001684A6922F001024A61202180F84210E0
:1029100000214163026B012A03D0FFF723F8002056
:1029200008BD016301680C3151E8002F22F010024C
:1029300041E80023002BF5D101680A68D20602D5D0
:102940000A6849680091818DFEF727FEE7E70000DD
:1029500070B5044600680169E26821F440511143F2
:1029600001612169A068E269084361691143084374
:102970002168CA6849F20C639A430243CA6020681E
:102980004169A26921F440711143416131492068D4
:10299000884202D03049884202D1FEF7C1FA01E0F4
:1029A000FEF7AEFAE2690023192164253226B2F55A
:1029B000004F626828D0A0FB0101930F9200FDF741
:1029C000FFFB0146B0FBF5F06FF01802504301EB3E
:1029D000800006EB0010B0FBF5F000F0F002B1FB58
:1029E000F5F002EB0012B1FBF5F06FF0180358435D
:1029F00001EB800006EB0010B0FBF5F000F00F00DB
:102A000021681044886070BDA0FB010192185B41F1
:102A1000FDF7D6FB0146B0FBF5F00201B1FBF5F086
:102A20006FF01803584301EB800006EBC000B0FBC9
:102A3000F5F000F0F80002EB4002B1FBF5F058436E
:102A400001EB800006EBC000B0FBF5F000F00700E2
:102A5000D6E7000000100140001401408162828529
:102A6000C28500214164222180F84210016921B110
:102A70000168CA6842F48072CA6001684A6942F01B
:102A800001024A610068C16841F02001C160002074
:102A900070472DE9F843984617460D460446089EB0
:102AA00024E0701C22D0FEF7F1F8A0EB0800B04241
:102AB0001AD8CEB12068C168490717D5802D15D026
:102AC000402D13D00168C94309070FD401680025C0
:102AD000406800902046FFF7B2FE0820606484F84A
:102AE00040500120BDE8F8830320FBE72068006820
:102AF00035EA000004D00020B842D2D00020F1E72F
:102B00000120F9E70148FEF74BBD000094000020CA
:102B10002DE9F043AD4C0227C1B020894FF48079F4
:102B20000025F8B9AAA201210020FFF768FDAAA29A
:102B300006210020FFF763FD208998B94A46A7497E
:102B400001A8FDF76EFB0097A16901A843180022B8
:102B500003211046FDF7EFFEA069801CA061FF284D
:102B600000DBA56120890126042831D121694FF4B9
:102B70007A7891FBF8F208FB1212002306210096E6
:102B8000FFF7F8FC2169002391FBF8F208FB121211
:102B9000072104200096FFF7EDFC91A201210420FB
:102BA000FFF72DFD2069401C2061404500DB2561B9
:102BB0002069411EB1F5F97F02D84FF4784203E055
:102BC000B0F5FA7F04DB1F2206210420FFF711FC79
:102BD0002089062810D16069A0B101287ED1208A01
:102BE000012182B20620FFF734FD2069401E2061DA
:102BF000002801DC2561656120894FF064080A28FE
:102C00000FD067E0012106202269FFF71FFC206931
:102C10004FF48271401C20618842EDDBC4E9041648
:102C2000EAE7E1684046B1FBF0F208FB121109B98E
:102C3000616A31B1E168B1FBF0F200FB121189B1B8
:102C400013E0002205210A20FFF790FB0122022158
:102C50000A20FFF78BFB002201210A20FDF7ECFD83
:102C6000666237E0616A012906D0E168B1FBF0F2E3
:102C700000FB121189B113E0002202210A20FFF7A4
:102C800075FB012203210A20FFF770FB0122114688
:102C90000A20FDF7D1FD67621CE0616A02291ED09F
:102CA000E168B1FBF0F208FB1210002862D1606A03
:102CB00003285FD1002204210A20FFF757FB0122DD
:102CC00005210A20FFF752FB032201210A20FDF70C
:102CD000B3FD656220890B2813D02AE04AE0002268
:102CE00003210A20FFF742FB012204210A20FFF7FB
:102CF0003DFB022201210A20FDF79EFD03206062B8
:102D0000E8E7206AC8B3012834D1B422364901A8C3
:102D1000FDF787FA0097A16901A843180022012155
:102D20000B20FDF708FEA069801CA061B42800DB21
:102D3000A561208910281DD1E168B1FBF8F208FBDC
:102D40001210002816D1206A60B3012812D126493A
:102D5000B422B4316846FDF764FAA16901230DEB92
:102D6000010219461020FEF76BFEA069401CA0610D
:102D70005A2829DA41B0BDE8F083FFE74A461749EF
:102D800001A8FDF74EFA0097A16901A84318002297
:102D900001210B20FDF7CFFDA069801CA061FF2859
:102DA000C6DAC6E74A460D496846FDF73AFAA16910
:102DB00001230DEB010219461020FEF741FEA06928
:102DC000401CA061FF28D5DBA561D3E71C000020D3
:102DD000BBFAB7BF32000000313233003C36000886
:102DE000BBFAB7BF3130000094340008FEE70000A2
:102DF0000FB4054B10B503A9044A029800F03CF843
:102E000010BC5DF814FB0000E5320008480000200B
:102E10000FB4084B10B504A902AA039800F02CF8CF
:102E2000044602A9002000F058FA204610BC5DF8C4
:102E300014FB0000DB3200080907090E002804DB40
:102E400000F1E02080F80014704700F00F0000F15E
:102E5000E02080F8141D704702E008C8121F08C166
:102E6000002AFAD170477047002001E001C1121F0B
:102E7000002AFBD1704700002DE9FF4F8DB00F46AF
:102E80000546002606E025280BD0DDE90F12904705
:102E90006D1C761C28780028F5D111B03046BDE8AD
:102EA000F08F0024A246A1460122EC4900E0044331
:102EB00015F8013F203B02FA03F00842F7D12878C9
:102EC0002A2810D06FF02F022878A0F130010929AC
:102ED00014D80AEB8A0102EB410144F0020400EB32
:102EE000010A6D1CF0E701CF5FEA000A03D544F444
:102EF0000054CAF1000A44F002046D1C28782E2800
:102F000017D115F8010F44F004042A280ED06FF0F1
:102F10002F022878A0F1300109290AD809EB89018C
:102F200002EB410100EB01096D1CF2E757F8049B2D
:102F30006D1C28786C280FD006DC4C2817D0682828
:102F40000DD06A2814D104E0742810D07A280FD14B
:102F50000DE044F400140AE044F4801401E044F469
:102F600040146978814202D104F580146D1C6D1CF7
:102F70002A786E2A1FD00CDC632A31D004DC002AA8
:102F80008BD0582A11D1A3E0642A68D0692A0CD1C9
:102F900065E0732A2ED004DC6F2A73D0702A04D126
:102FA0009BE0752A6FD0782A6ED01046DDE90F12AB
:102FB0009047761C50E1C4F30250022806D0032843
:102FC00009D0042801CF09D0066045E101CFF117EF
:102FD000C0E9006140E101CF06803DE106703BE1C0
:102FE00017F8040B8DF8000000208DF80100EB4667
:102FF000012003E057F804BB4FF0FF3061074FF0AA
:10300000000102D40DE008F10101884649450FDABC
:103010008045F8DB1BF808100029F4D108E008F11E
:10302000010188468142FADB1BF808100029F6D11D
:10303000DDE90F23AAEB08008146214600F036F9AE
:10304000304400EB080604E0DDE90F121BF8010B29
:103050009047B8F10108F7D221464846F7E00A2127
:10306000C4F302534FF0000B0891022B04D001CFA0
:10307000C117032B09D00AE0FF1D27F00707F7E867
:10308000020108E032E01FE020E000B2C117042B8B
:1030900001D140B2C117031E71F1000307DA4FF0EE
:1030A000000CD0EB0C006CEB01012D2302E023059A
:1030B00004D52B238DF82430012303E0E30701D04E
:1030C0002023F7E7984658E00A2110E010210EE08F
:1030D00010204FF0000B08900CE010214FF0000B77
:1030E00044F004044FF00809089103E008214FF070
:1030F000000B0891C4F30253022B04D001CF00212E
:10310000032B06D006E0FF1D27F00707F7E80201B2
:1031100003E080B2042B00D1C0B24FF000082307B7
:103120002BD5702A07D0DDF820C08CF0100C5CEA9B
:103130000B0C05D00EE040238DF82430012308E06D
:1031400050EA010306D030238DF824308DF8252075
:1031500002239846DDF820C08CF0080C5CEA0B0CCA
:103160000BD150EA010301D1630706D530238DF856
:1031700024304FF00108A9F10109582A04D038A2DF
:103180000B9208AA0A920BE03AA2F9E75B46089A6A
:10319000FDF716F80B9B9B5C0A9A521E0A9213705D
:1031A00050EA0102F2D10A98ADEB000000F1200BC9
:1031B000600702D524F4803401E04FF00109D945BD
:1031C00002DDA9EB0B0000E0002000EB0B01414405
:1031D0000890AAEB010AE00306D4DDE90F2321469B
:1031E000504600F063F806444FF0000908E009A9D2
:1031F00011F80900DDE90F12904709F10109761C69
:10320000C145F4DBE0030CD5DDE90F232146504630
:1032100000F04CF8064404E0DDE90F12302090473E
:10322000761C0899481E08900029F5DC08E00A98E9
:103230000A990078491C0A91DDE90F129047761C23
:10324000BBF10001ABF1010BF1DC21465046DDE999
:103250000F2300F019F806446D1C1BE60928010035
:1032600030313233343536373839616263646566FC
:1032700000000000303132333435363738394142BE
:1032800043444546000000002DE9F0410446002576
:103290001E461746880404D405E039462020B0476E
:1032A0006D1C641EF9D52846BDE8F0812DE9F0417A
:1032B000044600251E469046C80301D5302700E08D
:1032C0002027880404D505E041463846B0476D1CE8
:1032D000641EF9D52846BDE8F0810A68531C0B60CE
:1032E0001070704713B54FF0FF3301226946024852
:1032F000FEF754FB00981CBDDC000020FDF7D4FC59
:10330000FFF7D6F9FEF7CAFBFEF72CFCFEF74EFCE2
:10331000FEF768FC00F0A2F84FF49670FDF79EFBF4
:10332000012217491748FEF70FFB17A0FFF760FDB2
:10333000002208211848FDF7A3FCDFF86080184C34
:10334000184D194F00264021144800F03BF820800A
:10335000208850B198F80100072806D021880F482E
:10336000FEF7CAFE11A0FFF743FDFFF7D1FB287857
:103370000028E8D02E7039780FA0FFF739FDE2E77A
:103380001E00002094000020697320636F6E6E653C
:1033900063740D0A00000000000C024028030020A6
:1033A000000000201D0000201C0000206765742024
:1033B000646174610D0A000072783A202530325839
:1033C0000D0A0000F0B51C4D00273A46194CB5F81F
:1033D00000C019E0664506D0174A121DB25C761C83
:1033E000C6F308036B8023880BB9EE2A0CD18B42FD
:1033F00002D2C2545B1C2380636842EA032303F5B4
:1034000040366360761C11D06E88ACEB060303F582
:1034100000734FEAE37E03EBDE5E6FF3080EA3EB6F
:103420000E031B041B0CD5D10020F0BD2088676063
:103430002780F0BD1400002024010020064910B5AB
:103440000B884C885A1CC2F30802944202D00C1D0F
:1034500018550A8010BD00002401002003490020F7
:103460004880088002494860088070472401002095
:10347000140000200000000000000000010203040E
:103480000607080900000000010203049001000182
:10349000010000000009121B242D363F48515A63D9
:1034A0006C757E879099A2ABB4BDC6CFD8E1EAF324
:1034B000FC0009121B242D363F48515A636C757E5F
:1034C000879099A2ABB4BDC6CFD8E1EAF3FC00095E
:1034D000121B242D363F48515A636C757E87909994
:1034E000A2ABB4BDC6CFD8E1EAF3FC0009121B249D
:1034F0002D363F48515A636C757E879099A2ABB4C4
:10350000BDC6CFD8E1EAF3FC0009121B242D363FDB
:1035100048515A636C757E879099A2ABB4BDC6CFF3
:10352000D8E1EAF3FC0009121B242D363F48515A1A
:10353000636C757E879099A2ABB4BDC6CFD8E1EA23
:10354000F3FC0000000000000009121B242D363F90
:1035500048515A636C757E879099A2ABB4BDC6CFB3
:10356000D8E1EAF3FC0009121B242D363F48515ADA
:10357000636C757E879099A2ABB4BDC6CFD8E1EAE3
:10358000F3FC0009121B242D363F48515A636C7519
:103590007E879099A2ABB4BDC6CFD8E1EAF3FC0018
:1035A00009121B242D363F48515A636C757E879053
:1035B00099A2ABB4BDC6CFD8E1EAF3FC0009121B57
:1035C000242D363F48515A636C757E879099A2AB83
:1035D000B4BDC6CFD8E1EAF3FC0009121B242D3696
:1035E0003F48515A636C757E879099A2ABB4BDC6B3
:1035F000CFD8E1EAF3FC000000000000DDDDDDDDF6
:10360000DCBBBBDDDDDDDDDDDDDDDDDD9888888873
:10361000888888887777777777888888855555561A
:103620006666666666666666666888888333333271
:1036300022222222222222222228888D0101010117
:103640000102030406080A0D0F1316191D21262A6C
:103650002F34393E44494F555B61676D73797F86DE
:103660008C92989EA4AAB0B6BBC1C6CBD0D5D9DEE9
:10367000E2E6E9ECF0F2F5F7F9FBFCFDFEFEFEFEFA
:10368000FEFDFCFBF9F7F5F2F0ECE9E6E2DED9D558
:10369000D0CBC6C1BBB6B0AAA49E98928C868079C6
:1036A000736D67615B554F49443E39342F2A26219B
:1036B0001D1916130F0D0A0806040302010101016A
:1036C0000102030406080A0D0F1316191D21262AEC
:1036D0002F34393E44494F555B61676D73797F865E
:1036E0008C92989EA4AAB0B6BBC1C6CBD0D5D9DE69
:1036F000E2E6E9ECF0F2F5F7F9FBFCFDFEFEFEFE7A
:10370000FEFDFCFBF9F7F5F2F0ECE9E6E2DED9D5D7
:10371000D0CBC6C1BBB6B0AAA49E98928C86807945
:10372000736D67615B554F49443E39342F2A26211A
:103730001D1916130F0D0A0806040302F02932059D
:10374000EC2C3205C01B7600683700080000002012
:103750004C000000582E0008B43700084C00002030
:103760001C070000682E0008000000000100000097
:1037700010000000000000000024F4000000000021
:103780000000000000000000000000000000000039
:103790000000000000000000000000000000000029
:1037A0000100000000000000000000000000000018
:0437B0000000000015
:040000050800018965
:00000001FF
