:020000040800F2
:10000000B80B00209D0100086F170008F1150008CB
:100010006D1700080F0500083B21000800000000D4
:100020000000000000000000000000000D1C00089F
:100030001105000800000000F51A0008D51D000891
:10004000B7010008B7010008B7010008B7010008B0
:10005000B7010008B7010008B7010008B7010008A0
:10006000B7010008B7010008B7010008B701000890
:10007000B7010008B7010008B7010008B701000880
:10008000B7010008B7010008B7010008B701000870
:10009000B7010008B7010008B7010008B701000860
:1000A000B7010008B7010008B7010008B701000850
:1000B000B7010008B7010008B7010008B701000840
:1000C000B7010008B7010008B7010008B701000830
:1000D000B701000831210008B7010008B701000886
:1000E000B7010008B7010008B7010008B701000810
:1000F000B7010008B7010008B7010008B701000800
:10010000B7010008B7010008B7010008B7010008EF
:10011000B7010008B7010008911E0008B7010008E8
:10012000B7010008B7010008B7010008B7010008CF
:10013000B7010008B7010008B7010008B7010008BF
:10014000B7010008B7010008B7010008B7010008AF
:10015000B7010008B7010008B7010008B70100089F
:10016000B7010008B7010008B7010008B70100088F
:10017000B7010008B7010008B7010008000000003F
:10018000B7010008B7010008DFF80CD000F07AF8DA
:100190000048004781210008B80B0020064880472E
:1001A00006480047FEE7FEE7FEE7FEE7FEE7FEE75C
:1001B000FEE7FEE7FEE7FEE7811E00088901000872
:1001C0002DE9F05F0546002092469B46884606468C
:1001D000814640241BE0284641464746224600F01F
:1001E00041F853465A46C01A914110D31146184659
:1001F000224600F028F82D1A67EB01084F462246E8
:100200000120002100F01FF817EB00094E41201ECD
:10021000A4F10104DFDC484631462A464346BDE8E6
:10022000F09FD2B201E000F8012B491EFBD27047CB
:100230000022F6E710B513460A4604461946FFF7B2
:10024000F0FF204610BD202A04DB203A00FA02F11C
:10025000002070479140C2F1200320FA03F31943B4
:1002600090407047202A04DB203A21FA02F0002156
:10027000704721FA02F3D040C2F1200291400843B6
:1002800019467047064C074D06E0E06840F0010350
:1002900094E8070098471034AC42F6D3FFF778FF94
:1002A0002C2D00084C2D000870B58C1810F8015B3F
:1002B00015F0070301D110F8013B2A1106D110F8FF
:1002C000012B03E010F8016B01F8016B5B1EF9D103
:1002D0002B0705D40023521E0DD401F8013BFAE789
:1002E00010F8013BCB1A921C03E013F8015B01F8F4
:1002F000015B521EF9D5A142D8D3002070BD000089
:100300007A484FF48041002200F0DABA77484FF47F
:100310008041012200F0D4BA80B500F087F800F0E7
:1003200091F800F09BF800F0A5F800F0AFF800F0AD
:10033000B9F800F0C3F800F0CDF800F06BF800F069
:1003400045F800F04FF800F027F800F057F8FFF7F5
:10035000D7FF00F02FF800F013F800F0C9F8BDE85F
:10036000804000F001B8000060484FF400410022D6
:1003700000F0A6BA5D484FF40041012200F0A0BA97
:1003800061484FF48061002200F09ABA5E484FF451
:100390008061012200F094BA05480421002200F097
:1003A0008FBA00BF02480421012200F089BA00BFC1
:1003B0000004024054484FF40071002200F080BA5B
:1003C00051484FF40071012200F07ABA4E484FF4C0
:1003D0000051002200F074BA4B484FF40051012242
:1003E00000F06EBA48484FF48041002200F068BA2D
:1003F00045484FF48041012200F062BA42484FF470
:100400008071002200F05CBA3F484FF480710122F5
:1004100000F056BA35484FF40051002200F050BAAF
:1004200032484FF40051012200F04ABA2F48082107
:10043000002200F045BA00BF2C480821012200F03C
:100440003FBA00BF29481021002200F039BA00BF8E
:1004500026481021012200F033BA00BF2348202192
:10046000002200F02DBA00BF20482021012200F018
:1004700027BA00BF1D484021002200F021BA00BF6A
:100480001A484021012200F01BBA00BF1748802102
:10049000002200F015BA00BF14488021012200F0AC
:1004A0000FBA00BF11484FF48061002200F008BA73
:1004B0000E484FF48061012200F002BA0B484FF45D
:1004C0000061002200F0FCB908484FF400610122ED
:1004D00000F0F6B905484FF48051002200F0F0B961
:1004E00002484FF48051012200F0EAB9000C0240AA
:1004F00005488021002200F0E3B900BF02488021B6
:10050000012200F0DDB900BF001002407047FEE795
:10051000704772B6FEE7000020480021C0E90111D3
:10052000C1600170FFF7F8BE1C484068002818BF82
:10053000012070470146002071B1184A53685BB929
:10054000486850B1036843B180B55160002101F0A3
:10055000DDFE0120BDE8804070470020704700BFED
:100560000E484068002818BF01F0E8BD704700BF82
:100570000A49486830B1886820B1CA681AB1013A9E
:10058000CA6000D0704750F8102F22B109780131AD
:10059000C9B201F0BBBE01F0D1BD00BF1404002000
:1005A000164A904212D0174A904212D0174A9042EF
:1005B00012D0184A904212D0184A904212D0184ACB
:1005C000904216D1144800F130020CE00A4A16207D
:1005D0000AE00B4A0E2007E00B4A0E2004E00C4A0A
:1005E000032001E00C4A0220884282BF0801105813
:1005F00070470020704700BFA8010020A42C00080D
:1006000018030020BC2C0008B80000208C2C000827
:1006100070000020B02C000810000020982C00086A
:10062000C82C000801200821002201F057BB01203E
:100630000921002201F052BB01200521002201F016
:100640004DBB01200721002201F048BB01200621FB
:10065000002201F043BB01200A21002201F03EBB31
:1006600070B50446A66D00F031F9054694F83500E2
:10067000022829D12068016821F016010160416932
:1006800021F080014161216C09B9A16C19B10168A7
:1006900021F008010160016821F00101016005E01D
:1006A00000F014F9401B052812D82068006810F0EB
:1006B000010FF5D1E06D3F2101FA00F0B06001209B
:1006C00084F83500002008E080206065012004E007
:1006D00020206065032084F835000021C0B284F832
:1006E000341070BD90F8351002291FBF802141657C
:1006F00001207047052180F835100068016821F05D
:10070000010101600020704770B505466E1C00F0C5
:10071000DDF804461EB18D480078054401E04FF035
:10072000FF3500F0D3F8001BA842FAD370BD00BF1C
:100730002DE9FC4F5B4A08274FF0010E4FF0030AEA
:100740004FF0000B4FF00008904208BF0727564AB1
:1007500002444FEAB223072B38BF4FEAB227009773
:100760000027102F08BFBDE8FC8F0A680EFA07F4B7
:10077000224200F090804B6803F00302551E012DC9
:1007800015D8D0F808C00AFA08F52CEA050CCD688F
:1007900005FA08F545EA0C058560C3F3001505FA6E
:1007A00007FC4568A54345EA0C05456001E0032ABE
:1007B0001DD0C6680AFA08F5022A26EA05068D68E1
:1007C00005FA08F546EA0506C66010D1374D0BF06C
:1007D0001C020F23934005EA57060644356A25EAB2
:1007E00003030D6905FA02F21A4332624B68056889
:1007F00003F003020AFA08F613F4403F02FA08F283
:1008000025EA060642EA0602026044D0002201926E
:10081000274A136843F480431360126802F480424D
:10082000019227F00302234B019E234D0BF00C068F
:1008300002EB03090F2259F805C002FA06FE009ADE
:100840002CEA0E0C02FA06F64FF0010E46EA0C06F0
:1008500049F805609A684E68A24316F4801F18BFD5
:10086000224316F4001F9A60144A156825EA04050D
:1008700018BF254316F4003F15605A6822EA0402A7
:1008800018BF224316F4803F5A601A6822EA040215
:1008900018BF22431A600BF1040B08F1020801375C
:1008A0005FE700BF001C02400000FEBFFCFFFF7FAF
:1008B00044380240003C014008FCFFFF0C3C014072
:1008C000002A08BF09048161704700001F48806842
:1008D000704700BF1D4801788268114481607047ED
:1008E00080B50B48016841F400710160016841F472
:1008F00080610160016841F480710160032000F0B3
:100900007DF80F2000F006F800F022F8002080BDEE
:10091000003C024070B50D4E04464FF47A713078B9
:10092000B1FBF0F092490968B1FBF0F000F018FB60
:1009300001250F2C08D838B94FF0FF30214600228E
:10094000002500F02FF87460284670BD04000020D8
:1009500082B0002001900B494A6842F480424A600C
:100960004A6802F480420192019A0090086840F0BF
:1009700080500860086800F080500090009802B035
:10098000704700BF40380240002808DB00F01F011C
:100990000122400902FA01F1014A42F82010704791
:1009A00000E100E0B0B5144C1A4D00F00F03B0F1B7
:1009B000FF3FA3F104032B4403F10C03C8BF031949
:1009C0002868C0F30220051DC41E80F00700072D13
:1009D0004FF0010538BF0024042828BF042005FA81
:1009E00000F00138084005FA04F10F31A040114031
:1009F000084300011870B0BD00E400E005494FF65F
:100A0000FF030A681A4060F30A2203481043086093
:100A1000704700BF0CED00E00000FA052DE9F04141
:100A200004468846002C00F08480444FD7F8000428
:100A300000F00700404507D287F80084D7F800048B
:100A400000F00700404574D1206810F0020F11D06B
:100A5000410742BFB96841F4E051B960010742BFA4
:100A6000B96841F46041B960B968A26821F0F00149
:100A70001143B960C0072BD06068811E022904D2DF
:100A8000396811F0007F0BD153E0012804D1396897
:100A900011F4003F04D14CE0396811F0020F48D046
:100AA000B96821F003010843B860FFF70FFF06465D
:100AB00041F28835B868616800F00C00B0EB810F36
:100AC00006D0FFF703FF801BA842F3D9032031E0D3
:100AD000D7F8000400F00700404507D987F80084E4
:100AE000D7F8000400F00700404522D1206810F03C
:100AF000040F05D0B968E26821F4E0511143B960F0
:100B0000000706D5B868216920F4604040EAC100BA
:100B1000B86000F033F8B968094AC1F30311515CB9
:100B2000C8401349086007480068FFF7F3FE00203B
:100B300000E00120C0B2BDE8F08100BF00380240F3
:100B4000742C00080800002009480B4A0068094975
:100B50000968C1F38221515CC84070470448064AC5
:100B6000006804490968C1F34231515CC8407047CC
:100B7000B000002008380240842C000810B5F14C69
:100B8000606800F00C0213481349082A04D0042AB4
:100B900004BF084610BD10BD2068236800F03F0266
:100BA000206813F4800FC0F3881006D10949002390
:100BB000A0FB0101FFF704FB02E04843B0FBF2F0A9
:100BC00021680222C1F3014102EB4101B0FBF1F0C7
:100BD00010BD00BF0024F40000127A002DE9F84F88
:100BE0008246BAF1000F00F064819AF80000D44EFA
:100BF000D44FC0074AD0786800F00C00042807D111
:100C0000306810F4003F41D0DAF80400F0BB50E146
:100C1000786800F00C00082803D1386810F4800FC1
:100C2000EED1DAF80480B8F5803F06D03068B8F528
:100C3000A02F13D140F480203060306840F4803021
:100C40003060FFF743FE0546306810F4003F1DD1C9
:100C5000FFF73CFE401B6428F6D9C3E020F4803047
:100C60003060306820F480203060FFF72FFE0546AA
:100C7000B8F1000FE8D1306810F4003F06D0FFF75C
:100C800025FE411B03206429F5D913E19AF80000E1
:100C9000AD4C800731D5786810F00C0F1CD0786807
:100CA00000F00C00082804BF386810F4800F13D03F
:100CB000DAF80C00002800F0978001202060FFF790
:100CC00005FE0546306810F0020F0ED1FFF7FEFD5D
:100CD000401B0228F6D985E0306810F0020F1CBFD7
:100CE000DAF80C00012840F0E4803068DAF81010DF
:100CF00020F0F80040EAC10030609AF800000007D8
:100D000022D5DAF8140078B10120C4F8800EFFF77C
:100D1000DDFD0546386F10F0020F15D1FFF7D6FD47
:100D2000401B0228F6D95DE00020C4F8800EFFF7D2
:100D3000CDFD0546386F10F0020F05D0FFF7C6FD58
:100D4000401B0228F6D94DE09AF80000A346400760
:100D50007CD5F86B4FF0000810F0805F0CD1CDF817
:100D600000804FF00108F86B40F08050F863F86B9A
:100D700000F08050009000987448305810F4807F44
:100D800012D17248315841F480713150FFF79EFD05
:100D900005466E48305810F4807F05D1FFF796FD68
:100DA000401B0228F5D91DE0DAF80890B9F1010FCF
:100DB00006D0F86EB9F1050F27D140F00400F866AF
:100DC000F86E40F00100F866FFF780FD054641F23D
:100DD0008834F86E10F0020F31D1FFF777FD401B19
:100DE000A042F6D9032065E000202060FFF76EFDE9
:100DF0000546306810F0020F3FF47FAFFFF766FD45
:100E0000411B03200229F4D954E020F00100F866C8
:100E1000F86E20F00400F866FFF758FD0546B9F1BA
:100E2000000FD4D141F28839F86E10F0020F06D0CD
:100E3000FFF74CFD411B03204945F5D93AE0B8F1D5
:100E4000010F02BFF86B20F08050F863DAF8184009
:100E5000002C72D0786800F00C0008282ED1012CEC
:100E600027D03868DAF81C1000F480028A4220D1BA
:100E7000DAF8201000F03F028A421AD1DAF8242072
:100E800047F6C0710140B1EB821F12D1DAF8281089
:100E90004FF6FF72C903914300F44032A1F580314F
:100EA0008A4206D1DAF82C1000F07060B0EB016FC6
:100EB00043D00120C0B201B0BDE8F08F0020CBF8D4
:100EC0006000FFF703FD0546022C0BD15C4630683D
:100ED00010F0007F11D0FFF7F9FC411B032002291D
:100EE000F5D9E7E7306810F0007F26D0FFF7EEFC79
:100EF000411B03200229F5D9DCE70AF11C052FCD9F
:100F00000843D90340EA82104FF6FF72914340EA4A
:100F10000560A1F580310843386001202066FFF7A5
:100F2000D5FC0446306810F0007F06D1FFF7CEFCF8
:100F3000011B03200229F5D9BCE70020BAE700BF56
:100F40000038024004380240000047420038FEFFEB
:100F50000248016801310160704700BFD4040020DD
:100F6000411E0020B0EB116F1CBF01207047044AE6
:100F7000F023516003490B700721906011607047A6
:100F800010E000E023ED00E0FFF7E2BF704770479C
:100F90007047B0B504462068C168026901EA0205DD
:100FA000A90714D56FF00201016101212177806941
:100FB00010F0030F03D02046FFF7EAFF05E02046BC
:100FC00000F074F8204600F072F8002020776807DF
:100FD00015D520686FF00401016102212177806935
:100FE00010F4407F03D02046FFF7D2FF05E02046F3
:100FF00000F05CF8204600F05AF80020207728071F
:1010000015D520686FF00801016104212177C069BE
:1010100010F0030F03D02046FFF7BAFF05E020468B
:1010200000F044F8204600F042F800202077E8065F
:1010300015D520686FF01001016108212177C06982
:1010400010F4407F03D02046FFF7A2FF05E02046C2
:1010500000F02CF8204600F02AF800202077E8075E
:1010600006D020686FF001010161204600F020F8F1
:10107000280606D520686FF0800101612046FFF741
:1010800085FF680606D520686FF0400101612046A3
:1010900000F00FF8A80658BFB0BD20686FF020011F
:1010A00001612046BDE8B040FFF771BF704770474F
:1010B0007047704770477047F8B50446206801686C
:1010C000C268456901F02F0602F02003202E05D1E9
:1010D00023B12046BDE8F84000F00CBF5FEA017C78
:1010E00008D005F0010E12F4907F8EF0010557D163
:1010F000002D55D01140CA06226B3BD5012A39D1AB
:1011000000210091016800914168009100994169B6
:1011100011F0400F40F0A580A18DE28DE38D002BF2
:1011200000F01981891A89B209B914E1206850E8E0
:10113000030F226820F4907042E80303002BF5D1DE
:10114000206850E8050F226820F0010042E80503FE
:10115000002BF5D1202084F8420000202063206875
:1011600050E8030F226820F0100042E80303002B30
:10117000F5D1D5E00A0640F1BA8094F84110212952
:1011800040F0E980A168B1F5805F04BF21690029C2
:1011900000F0D380216A4A1C226209784160D3E0C2
:1011A000CE0706D012F480761EBF666C46F00106AC
:1011B000666401F00407012686EA97072F4302BF01
:1011C000676C47F00207676401F0020786EA57067A
:1011D000354302BF656C45F00405656453EA0E03B0
:1011E00018BF0123BCF1000F05D5012B02BF636CB2
:1011F00043F008036364636C002B00F0AC80114083
:10120000890603D5204600F075FE20684069616CB0
:1012100000F0400001F00801084300F088802046FB
:1012200000F041FE2068416911F0400F01D16CE0EF
:10123000206850E8050F216820F0400041E80502D1
:10124000002AF5D1E06B00285FD048490165FFF71F
:1012500049FA002800F07F80E06B016DBDE8F8409E
:101260000847E36B19684D68A28DA9B2002951D0D7
:1012700091424FD2E585D969B1F5807F01D130E047
:10128000206850E8030F216820F4807041E80302D1
:10129000002AF5D1206850E8050F216820F00100F0
:1012A00041E80502002AF5D1206850E8050F2168C1
:1012B00020F0400041E80502002AF5D1202084F802
:1012C000420000202063206850E8030F216820F0CE
:1012D000100041E80302002AF5D1E06BFFF7C0F9E6
:1012E000A28D02206063E08D101A81B21AE04906D7
:1012F00031D5C16821F04001C160202084F841004F
:101300002046BDE8F84000F048B92046BDE8F84066
:10131000FFF7D1BE8A4204BFD869B0F5807F1AD1E9
:10132000022060632046BDE8F840FFF7C3BE2046B8
:10133000FFF7C1FE00206064F8BD216A31F8022B7E
:101340006FF35F2242602162E18C4FF6FF72013938
:101350001142E18400D0F8BDC16821F08001C16074
:10136000C16841F04001C160F8BD00BF9D1E00088A
:1013700010B504464CB394F8410028B9002084F815
:101380004000204600F024F8242084F84100206822
:10139000C16821F40051C160204600F011FE2068B0
:1013A000016921F490410161416921F02A01416103
:1013B000C16841F40051C16000202021606484F8BC
:1013C000411084F84210606310BD012010BD000080
:1013D00010B586B0044601A81421FEF729FF226843
:1013E0002C48C249E04B9A422DD0D14B9A424ED163
:1013F000002200924B6943F010034B614B6903F0EC
:1014000010030093009B00920B6843F001030B60F4
:10141000096801F00101009100994FF4C061019148
:101420000221CDE90212032104910721059101A9AE
:10143000FFF77EF9252000210022FFF7B3FA2520CF
:10144000FFF7A2FA23E0002200F5806000920B690A
:1014500043F480230B610B6903F480230093009B0A
:1014600000920B6843F002030B60096801F002016F
:10147000009100994FF4406101910221CDE90212DF
:10148000032104910721059101A9FFF751F906B045
:1014900010BD00BF0000024010B590F84230202B74
:1014A00007D1012431B12AB10024046300F0EEFD1C
:1014B00000E00224E0B210BD00689D49884218BFD8
:1014C0007047B0B5084D2C4614F8020F00F002FF2B
:1014D0002078214601222870012068709348FFF788
:1014E000DBFFBDE8B0407047100400202DE9F84351
:1014F00004461D461746884694F8410020281CD112
:10150000B8F1000F4FF0010018BF002F42D04FF08C
:1015100000092120C4F8449084F84100FFF7D6F96F
:10152000A784E7840646A068B0F5805F07D12769E5
:10153000002F0CBFC146474618E002202AE047466C
:1015400014E02046802132462B4600F0B8FDE8B971
:10155000206817B117F8011B04E039F8021B0027B7
:101560006FF35F214160E08C0138E084E08C00285B
:10157000E7D12046402132462B4600F0A0FD202135
:10158000002884F8411018BF032003E0202084F8CD
:101590004100032001B0BDE8F083704710B5104C46
:1015A0004021204600F04EFE0E490880088880B198
:1015B000607807280ED172B6BFF34F8F0A480168D2
:1015C0000A4A01F4E06111430160BFF34F8F00BF8D
:1015D000FDE710BD09880248BDE8104000F08CBA54
:1015E00094040020B00700200CED00E00400FA0590
:1015F000FEE700002DE9F04F87B00027DFF8F48008
:1016000000224FF00409069701973848016841F01D
:1016100004010160016801F0040101910199019741
:10162000016841F080010160016801F080010191D1
:1016300001990197016841F002010160016801F020
:101640000201019101990197016841F010010160C7
:10165000016801F01001019101990197016841F0C1
:1016600008010160016801F00801019101990197E9
:10167000016841F0010101600421006800F00100EF
:10168000019001981A4D2846C04705F540664FF471
:10169000CF4100224FF4CF4A3046C04705F50064E1
:1016A0004FF6F84100222046C047DFF84CB00DF15C
:1016B0000808CDF808904FF0010928464146CDE9C9
:1016C00003970597D84730464146CDE902A9CDE9B1
:1016D0000477D8474FF6F8404146CDE90209204645
:1016E000CDE90477D84707B0BDE8F08F3038024025
:1016F00000040240C10800083107000880B50B480B
:101700000B494FF4E13200234FF00C0C80E80E003F
:10171000C0E90333C0E905C3C361FFF729FE18B16F
:10172000BDE88040FEF7F5BE80BD00BF200500206B
:101730000010014080B50B480B494FF4E132002303
:101740004FF00C0C80E80E00C0E90333C0E905C37C
:10175000C361FFF70DFE18B1BDE88040FEF7D9BEAA
:1017600080BD00BF6805002000480040FEE7FEE79E
:10177000B0B514460D4601281AD00A283AD1FEF712
:10178000D3FE002836D1681E112833D8DFE800F0D8
:1017900009373D43494F555B61676D73797F858B91
:1017A0009197002C00F09180BDE8B040FEF744BE58
:1017B000681F052888BFB0BDDFE800F003070B0FE6
:1017C0001317012C17D1CA4812E0012C13D1C748B6
:1017D0000EE0012C0FD1C4480AE0012C0BD1F648D1
:1017E00006E0012C07D1F64802E0012C03D1F548B0
:1017F000FEF7A0FEB0BDBDE8B040FEF7B1BE002CC4
:1018000067D0BDE8B040FEF723BE002C65D0BDE830
:10181000B040FEF729BE002C63D0BDE8B040FEF713
:101820002FBE002C61D0BDE8B040FEF735BE002CC5
:101830005FD0BDE8B040FEF73BBE002C5DD0BDE8F8
:10184000B040FEF741BE002C5BD0BDE8B040FEF7D3
:1018500047BE002C59D0BDE8B040FEF7E1BD002CDA
:1018600057D0BDE8B040FEF751BD002C55D0BDE8C3
:10187000B040FEF77FBD002C53D0BDE8B040FEF76E
:10188000C3BD002C51D0BDE8B040FEF78BBD002C8D
:101890004FD0BDE8B040FEF793BD002C4DD0BDE861
:1018A000B040FEF773BD002C4BD0BDE8B040FEF752
:1018B00093BD002C49D0BDE8B040FEF799BD002C87
:1018C00047D0BDE8B040FEF719BEBDE8B040FEF716
:1018D000ADBDBDE8B040FEF7B5BDBDE8B040FEF718
:1018E000BDBDBDE8B040FEF7C5BDBDE8B040FEF7E8
:1018F000CDBDBDE8B040FEF7D5BDBDE8B040FEF7B8
:10190000DDBDBDE8B040FEF7E5BDBDE8B040FEF787
:1019100081BDBDE8B040FEF7F3BCBDE8B040FEF7C6
:1019200023BDBDE8B040FEF769BDBDE8B040FEF79D
:1019300033BDBDE8B040FEF73DBDBDE8B040FEF7A9
:101940001FBDBDE8B040FEF741BDBDE8B040FEF7A9
:1019500049BDBDE8B040FEF7CBBD00BF2DE9F8435F
:101960000E460A99DFF8F08091463C4C1D4601274F
:10197000012301F00F02090901EB810102EB410192
:10198000C8F8001000F00F010009009700EB80007C
:1019900001EB400208200121A047310906F00F00A9
:1019A0000123009701EB810100EB41020820022195
:1019B000A047290905F00F000123009701EB8101E1
:1019C00000EB410208200321A0470097012308985B
:1019D00000F00F01000900EB800001EB400208203D
:1019E0000421A04700970123099800F00F01000986
:1019F00000EB800001EB400208200521A047D8F849
:101A000000200820062101230097A0474FEA191162
:101A100009F00F0001EB810100EB4100062888BFAF
:101A2000BDE8F883DFE800F00406080A0C0E100099
:101A300017A20AE014A208E011A206E00EA204E038
:101A40000BA202E008A200E005A208200721BDE8E1
:101A5000F84300F09BB900BFB40000201D1D000832
:101A6000D0C7C6DAC1F90000D0C7C6DACEE500009B
:101A7000D0C7C6DACBC40000D0C7C6DAC8FD0000A4
:101A8000D0C7C6DAB6FE0000D0C7C6DAD2BB0000A7
:101A9000D0C7C6DAC8D500000438052888BF70470B
:101AA000DFE800F003090C12181B4049042007224C
:101AB000162300F089B83F49052001E03E49062081
:101AC00007220E2300F080B83C4907200722032399
:101AD00000F07AB83A49082001E03A490920072283
:101AE000022300F071B800BFB02C0008BC2C000825
:101AF000A42C0008704700004178B1291AD0F729BA
:101B000018BF70471FB5DFF858C09CF802009CF85A
:101B100003109CF804209CF805309CF806E09CF823
:101B200007409CF808C0CDE900E4CDF808C0FFF7F5
:101B300015FF1FBDB0F8031009BA0B0C81780129FD
:101B400004BF1846FFF7A8BFC179102907D1B0F824
:101B50000510427A184609BA090CFFF709BE70470A
:101B60009404002010B51149114C042007221623BB
:101B7000A0471049052007220E23A0470E49062042
:101B800007220E23A0470D49072007220323A04761
:101B90000B49082007220223A0470A4909200722EF
:101BA0000223A446BDE81040604700BFA42C0008F3
:101BB000C91B0008BC2C00088C2C0008B02C0008A5
:101BC000982C0008C82C00082DE9FF471C469046B9
:101BD0008A460746002601AD0FF22C09B44208BF21
:101BE000BDE8FF87F1B25046FEF7DAFC0246284610
:101BF000494600F0D3FD08EB06002A4681B238467C
:101C000000F0C4F80136E9E7256C75007047000064
:101C10002248002100220170602A08BF7047831803
:101C20000C32C3E90111D960F6E700BF80B5DFF8D7
:101C30006CC0864600209CF80030072B88BF80BD12
:101C400003EB43020CEB8202C2E901E1D060581CB5
:101C50008CF80000012080BD70B50F480F4E0025A4
:101C600004683078E9B2814228BF70BD480050FA5C
:101C700085F006EB8000406860B101EB410106EBA6
:101C800081018A682AB151F80C3FE31A934201D3CB
:101C90000C6080470135E4E7D404002030040020C4
:101CA0001CB5084C8DF807000DF107010122142323
:101CB0002046FFF71BFC2068016811F0400FFBD0A5
:101CC0001CBD00BF2005002010B5044602E0FFF750
:101CD000E7FF013420780028F9D110BDF8B53C4F5A
:101CE0000646EE2014460D46B847B120B8471020EE
:101CF000B847300AB847F0B2B847280AB847E8B240
:101D0000B8472046B847FF20B847FC20B847FF2017
:101D1000B847FF203946BDE8F84008472DE9F041B3
:101D20002B4E0746EE201D4614468846B047B1208C
:101D3000B0470720B047380AB047F8B2B0474FEA7B
:101D40001820B0475FFA88F0B047002D18BF012572
:101D50002846B047069840F0800000F08F00B0475A
:101D6000200EB047C4F30740B047C4F30720B04784
:101D7000E0B2B047FF20B047FC20B047FF20B0479B
:101D8000FF203146BDE8F041084700BFF8B5104FCD
:101D90000646EE2014460D46B847B120B84710203D
:101DA000B847300AB847F0B2B847280AB847E8B28F
:101DB000B8472046FFF788FFFF20B847FC20B84708
:101DC000FF20B847FF203946BDE8F840084700BF6C
:101DD000A11C000880B5FEF77DFDBDE88040FFF73F
:101DE000D3B80000B0B592B0002401A81421CDE909
:101DF0000A44CDE90844FEF71BFA009402251E4868
:101E0000016841F080510160006800F0805000904E
:101E1000009800941948016841F480410160A821AC
:101E2000006800F4804000900098012006904FF474
:101E3000803007904FF480000C950D9004200E9098
:101E4000CDE90F15119006A8FEF7C8FE08B172B6CD
:101E5000FEE70F200521CDE901054FF4A0500394C2
:101E600004904FF48050059001A8FEF7D7FD08B10B
:101E700072B6FEE712B0B0BD4038024000700040BC
:101E80000248016841F470010160704788ED00E08C
:101E90000148FFF77EB800BFD8040020806B002106
:101EA000C185FFF708B9016851E8031F026821F4F2
:101EB000907142E80313002BF5D1016851E8051F2A
:101EC000026821F0010142E80513002BF5D1016BF6
:101ED000012909D1016851E8031F026821F01001AE
:101EE00042E80313002BF5D1202180F84210002195
:101EF0000163704790F84210222918BF7047836829
:101F0000B3F5805F06D1026900F12801A2B1D1F8D2
:101F100000C008E00146002B51F828CF01D1036929
:101F20000BB17F2300E0FF23026852681A400123AF
:101F30008CF800200A6806E00368826A5B686FF329
:101F40005F23138002231A440A604FF6FF72C18D8B
:101F500001391142C18500D070470168CA6822F07A
:101F60002002CA60CA6822F48072CA604A6922F0FC
:101F700001024A61202280F8422000224263036B62
:101F8000012B18BFFFF798BA026351E8031F0268DC
:101F900021F0100142E803130168002BF5D10A6813
:101FA00012F0100F08D081B0002200920A6800924F
:101FB00049680091009901B0818DFFF77BB800005E
:101FC000B0B5044649F20C6520680169E26821F465
:101FD000405111430161D4F808C0D4E90423D4F876
:101FE0001CE0C16842EA0C02A9431A4342EA0E020D
:101FF0001143C1604169A26921F4407111434161FB
:1020000040F480602049884202D1FEF7A7FD01E03C
:10201000FEF79AFDE26963681921A0FB0101B2F5A0
:10202000004F16D15A00DB0FFEF7CAF864216FF09B
:102030006303B0FBF1F202FB0300322303EBC000A9
:10204000B0FBF1F14FF4F87000EA410001F0070134
:1020500013E09A009B0FFEF7B3F864216FF063035F
:10206000B0FBF1F202FB0300322303EB0010B0FBE4
:10207000F1F101F0F00001F00F0100EB0210084354
:1020800021688860B0BD00BF00140140816200215A
:102090008285C2854164222180F84210016800696E
:1020A00018B1C86840F48070C860486940F0010009
:1020B0004861C86840F02000C860002070472DE9E2
:1020C000FC4104461D4690460F4620686E1C016880
:1020D0003940B94226D0002EF9D0FEF7F7FB032194
:1020E0000DB3A0EB0800A8421DD82068C16811F00C
:1020F000040F18BF402FEAD0802F1CBF016811F0D9
:10210000080FE4D000250195016801914068019015
:1021100001982046FFF7C7FE08200121606484F87B
:10212000405000E00021C8B202B0BDE8F0810000DC
:102130003548FEF7C1BF00BF7047FEE710B57D4CC4
:10214000A06808B100F010FBFEF7E6F8606810B177
:10215000806800B180470020C4E90100E060207081
:1021600010BD00BFE0B50190044801A901224FF065
:10217000FF33FFF7BBF9019802B080BD680500206E
:10218000F8B5FEF7ADFBFFF72DFEFFF733FAFFF7CB
:10219000B5FAFFF7CFFAFEF7B9F900F0ADF84FF452
:1021A0009670FEF7B1FA184818490122FFF774F942
:1021B00017A000F04DFDFEF7AFF9FFF729FD174816
:1021C000174CC821A047174800210025A0471648F2
:1021D0004FF47A71A04740F6B830FEF795FAFFF752
:1021E000C1FC124808210022FEF76AFB104E114F75
:1021F00011A4FFF731FD30780028FAD03570204661
:10220000397800F0BBFAF4E7200500201204002022
:10221000697320636F6E6E6563740D003921000869
:102220002D1C00089D15000871050008000C0240D7
:10223000110400201004002072783A202530325812
:102240000D0A00002DE9F041DFF8BCE0DFF8A480C2
:102250000022BEF80230BEF8047003F5007CBCB268
:10226000ACEB0405EE1705EBD65606F47E46AD1B27
:102270002D0428D09C421D461FBF18F804207D1C49
:102280006FF35F25AEF80450BEF80060D4B2EE2CB8
:1022900002D0002E2F46E2D08E423FBF771CAEF810
:1022A000007082553E46DEF8087044EA0724CEF8F6
:1022B0000840074FBC422F46D1D10020CEF808007D
:1022C000AEF8000000E00026B0B2BDE8F08100BF2B
:1022D000FFFFFCFFDFF830C0BCF80220BCF80410A0
:1022E000531C6FF35F238B421EBF02498854ACF826
:1022F00002307047B00500200348002181804180F2
:1023000081600180704700BF2404002070B5094E31
:1023100004460D46B06818B1A04218BF00F024FA78
:10232000B46035702068F060A06810B1BDE87040FE
:10233000004770BD140400207047704780B5FEF759
:1023400019F8BDE88040FDF7E1BF80B5FEF70CF855
:10235000BDE88040FDF7D4BF70477047FEF7A8B8CE
:10236000FEF7A0B880B5FEF74FF8BDE88040FEF755
:1023700001B8704780B5FEF75FF8FEF775F8BDE865
:102380008040FEF729B880B5FEF750F8FEF766F8F2
:10239000BDE88040FEF71AB87047704780B5FEF779
:1023A0004BF8FEF761F8BDE88040FEF715B880B540
:1023B000FEF73CF8FEF752F8BDE88040FEF706B89D
:1023C0007047704780B5FEF743F8FEF74DF8BDE85B
:1023D0008040FEF701B880B5FEF734F8FEF73EF80E
:1023E000BDE88040FDF7F2BF7047704780B5FEF74B
:1023F0002FF8FEF739F8BDE88040FDF7EDBF80B556
:10240000FEF720F8FEF72AF8BDE88040FDF7DEBFB2
:10241000704780B5FDF7F2FFBDE88040FDF7A4BF2F
:102420007047704780B5FDF7CBFFBDE88040FDF7F2
:10243000ADBF80B5FDF7BEFFBDE88040FDF7A0BF92
:1024400080B5FDF7E1FFBDE88040FDF793BF80B5A3
:10245000FDF7D4FFBDE88040FDF786BF70477047A9
:10246000FEF726B8FEF71EB880B5FDF7CDFFBDE834
:102470008040FDF77FBF704780B5FDF7E9FFFDF7AE
:10248000F3FFBDE88040FDF7A7BF80B5FDF7DAFF99
:10249000FDF7E4FFBDE88040FDF798BF7047704747
:1024A00080B5FDF7D5FFFDF7DFFFBDE88040FDF704
:1024B00093BF80B5FDF7C6FFFDF7D0FFBDE88040B4
:1024C000FDF784BF704780B5FDF798FFBDE88040F9
:1024D000FDF74ABF7047704780B5FDF795FFBDE82F
:1024E0008040FDF747BF80B5FDF788FFBDE880401D
:1024F000FDF73ABF7047704780B5FDF785FFBDE82F
:102500008040FDF737BF704780B5FDF795FFFDF7B9
:10251000ABFFBDE88040FDF75FBF80B5FDF786FFEC
:10252000FDF79CFFBDE88040FDF750BF7047704746
:1025300080B5FDF781FFFDF797FFBDE88040FDF70F
:102540004BBF80B5FDF772FFFDF788FFBDE8804007
:10255000FDF73CBF7047704780B5FDF779FFFDF789
:1025600083FFBDE88040FDF737BF80B5FDF76AFF08
:10257000FDF774FFBDE88040FDF728BF7047704746
:1025800080B5FDF765FFFDF76FFFBDE88040FDF703
:1025900023BF80B5FDF756FFFDF760FFBDE8804023
:1025A000FDF714BF704780B5FDF728FFBDE88040F8
:1025B000FDF7DABE7047704780B5FDF701FFBDE853
:1025C0008040FDF7E3BE80B5FDF7F4FEBDE8804036
:1025D000FDF7D6BE80B5FDF717FFBDE88040FDF7DB
:1025E000C9BE80B5FDF70AFFBDE88040FDF7BCBE5F
:1025F0007047704780B5FDF7E3FEBDE88040FDF70A
:10260000C5BE80B5FDF7D6FEBDE88040FDF7B8BE7B
:1026100080B5FDF7F9FEBDE88040FDF7ABBE80B5A3
:10262000FDF7ECFEBDE88040FDF79EBE70477047A9
:10263000FDF73EBFFDF736BF80B5FDF7E5FEBDE80F
:102640008040FDF797BE704780B5FDF7F5FEFDF7BA
:102650000BFFBDE88040FDF7BFBE80B5FDF7E6FE8D
:10266000FDF7FCFEBDE88040FDF7B0BE7047704747
:1026700080B5FDF7E1FEFDF7F7FEBDE88040FDF710
:10268000ABBE80B5FDF7D2FEFDF7E8FEBDE88040A9
:10269000FDF79CBE7047704780B5FDF7D9FEFDF78A
:1026A000E3FEBDE88040FDF797BE80B5FDF7CAFEAA
:1026B000FDF7D4FEBDE88040FDF788BE7047704747
:1026C00080B5FDF7C5FEFDF7CFFEBDE88040FDF704
:1026D00083BE80B5FDF7B6FEFDF7C0FEBDE88040C5
:1026E000FDF774BE704780B5FDF788FEBDE88040F9
:1026F000FDF73ABE7047704780B5FDF761FEBDE853
:102700008040FDF743BE80B5FDF754FEBDE8804034
:10271000FDF736BE80B5FDF777FEBDE88040FDF7DA
:1027200029BE80B5FDF76AFEBDE88040FDF71CBEFE
:102730007047704780B5FDF797FEFDF74DFEFDF73A
:102740009FFEFDF7C1FEBDE88040FDF75DBE80B590
:10275000FDF784FEFDF73AFEFDF78CFEFDF7AEFEB9
:10276000BDE88040FDF74ABE0348806810B1C068EC
:1027700000B10047704700BF140400200FB4054BA0
:1027800010B503A9044A029800F02CF810BC5DF8BB
:1027900014FB000065210008000000200FB4084B66
:1027A00010B504A902AA039800F01CF8044602A977
:1027B000002000F048FA204610BC5DF814FB000031
:1027C000472C000802E008C8121F08C1002AFAD1ED
:1027D00070477047002001E001C1121F002AFBD1A1
:1027E000704700002DE9FF4F8DB00F4605460026CB
:1027F00006E025280BD0DDE90F1290476D1C761CF2
:1028000028780028F5D111B03046BDE8F08F0024BB
:10281000A246A1460122EC4900E0044315F8013F1D
:10282000203B02FA03F00842F7D128782A2810D07A
:102830006FF02F022878A0F13001092914D80AEB93
:102840008A0102EB410144F0020400EB010A6D1C15
:10285000F0E701CF5FEA000A03D544F40054CAF15F
:10286000000A44F002046D1C28782E2817D115F8B0
:10287000010F44F004042A280ED06FF02F022878AC
:10288000A0F1300109290AD809EB890102EB4101C5
:1028900000EB01096D1CF2E757F8049B6D1C2878CA
:1028A0006C280FD006DC4C2817D068280DD06A2879
:1028B00014D104E0742810D07A280FD10DE044F42C
:1028C00000140AE044F4801401E044F440146978F0
:1028D000814202D104F580146D1C6D1C2A786E2A89
:1028E0001FD00CDC632A31D004DC002A8BD0582A9C
:1028F00011D1A3E0642A68D0692A0CD165E0732A5B
:102900002ED004DC6F2A73D0702A04D19BE0752A84
:102910006FD0782A6ED01046DDE90F129047761CF2
:1029200050E1C4F30250022806D0032809D004283D
:1029300001CF09D0066045E101CFF117C0E9006180
:1029400040E101CF06803DE106703BE117F8040B42
:102950008DF8000000208DF80100EB46012003E017
:1029600057F804BB4FF0FF3061074FF0000102D46D
:102970000DE008F10101884649450FDA8045F8DB92
:102980001BF808100029F4D108E008F1010188467D
:102990008142FADB1BF808100029F6D1DDE90F238C
:1029A000AAEB08008146214600F036F9304400EBDE
:1029B000080604E0DDE90F121BF8010B9047B8F19F
:1029C0000108F7D221464846F7E00A21C4F3025332
:1029D0004FF0000B0891022B04D001CFC117032B3D
:1029E00009D00AE0FF1D27F00707F7E8020108E019
:1029F00032E01FE020E000B2C117042B01D140B249
:102A0000C117031E71F1000307DA4FF0000CD0EB81
:102A10000C006CEB01012D2302E0230504D52B23D0
:102A20008DF82430012303E0E30701D02023F7E7EA
:102A3000984658E00A2110E010210EE010204FF0D7
:102A4000000B08900CE010214FF0000B44F0040440
:102A50004FF00809089103E008214FF0000B08919E
:102A6000C4F30253022B04D001CF0021032B06D064
:102A700006E0FF1D27F00707F7E8020103E080B238
:102A8000042B00D1C0B24FF0000823072BD5702AC9
:102A900007D0DDF820C08CF0100C5CEA0B0C05D0E0
:102AA0000EE040238DF82430012308E050EA0103B2
:102AB00006D030238DF824308DF825200223984647
:102AC000DDF820C08CF0080C5CEA0B0C0BD150EA4E
:102AD000010301D1630706D530238DF824304FF070
:102AE0000108A9F10109582A04D038A20B9208AABA
:102AF0000A920BE03AA2F9E75B46089AFDF760FB01
:102B00000B9B9B5C0A9A521E0A92137050EA0102B8
:102B1000F2D10A98ADEB000000F1200B600702D55E
:102B200024F4803401E04FF00109D94502DDA9EB1E
:102B30000B0000E0002000EB0B0141440890AAEBE1
:102B4000010AE00306D4DDE90F232146504600F0D8
:102B500063F806444FF0000908E009A911F80900DC
:102B6000DDE90F12904709F10109761CC145F4DB3C
:102B7000E0030CD5DDE90F232146504600F04CF868
:102B8000064404E0DDE90F1230209047761C0899D6
:102B9000481E08900029F5DC08E00A980A99007898
:102BA000491C0A91DDE90F129047761CBBF1000128
:102BB000ABF1010BF1DC21465046DDE90F2300F0BB
:102BC00019F806446D1C1BE6092801003031323328
:102BD0003435363738396162636465660000000059
:102BE0003031323334353637383941424344454643
:102BF000000000002DE9F041044600251E4617465E
:102C0000880404D405E039462020B0476D1C641EBA
:102C1000F9D52846BDE8F0812DE9F04104460025AC
:102C20001E469046C80301D5302700E020278804BF
:102C300004D505E041463846B0476D1C641EF9D501
:102C40002846BDE8F0810A68531C0B60107070477D
:102C500010B5044601E0FFF785FA14F8010B0449AA
:102C60000028F8D1BDE810400A20FFF77BBA000029
:102C7000000000200000000000000000010203042A
:102C8000060708090000000001020304E62C000802
:102C9000B8000020250600081B2D000810000020A9
:102CA0002F060008DD2C0008A801002039060008C6
:102CB000162D00087000002043060008D42C0008E0
:102CC000180300204D060008042D000840000020D5
:102CD00057060008D0A1B1E3B3E5CFB400B4F3B117
:102CE000E3B3E5CFB400C7E5CFB400C7BFB3E9CEC7
:102CF000DB00CFC2C5E7B3E9CEDB00D6D0C5E7B372
:102D0000E9CEDB00D5E6BFD5CFE4D7D4C7E5BDE03B
:102D100000C5AFB7E700B8C9D4EF00C7E5BDE0BF55
:102D2000D5C6F800B5C8B4FD00000000502D00085D
:102D30000000002010040000A8020008502F000826
:102D400010040020A8070000D4270008000000009D
:102D50004132017210320513242D140839231B0847
:102D60003B04323C1A1B101A3D0C1A4B040110692B
:102D7000301331271B083304321E1A04101A350C85
:102D80001A4F0409163013F1251B08F304235802C7
:102D90001A11101AF50C1303262A082013FF2C1BF6
:102DA00008110C1A1F0401113B24F4B069481A5988
:102DB000941A5B0429101AEB381A5D0C1A61045A34
:102DC0000F481A650C5A73101AFB101A750C1A87E3
:102DD000045A0A201A990C5A9B4029201A9D0C9AD1
:102DE000AF401AC10C5AC3301AF2101AC50C9AD748
:102DF000401AE90C5AEB4029201AED0C5AFF103901
:102E0000C812241B0813045A14B01A210C1A2304E4
:102E100069F81A250C1A330469301A410C1A4F0448
:102E2000011069F01A5D1C5A5F3029F01A610C1A02
:102E3000650469B01A690C1A770469B01A790C5ADA
:102E40008B1029201A9D0C5A9F4029201AA10C9AF8
:102E5000B3801AC50C5AC71029701AD50C9AD720FE
:102E60001AD90C9AE7201AF50C9AF7801AF90C4B2C
:102E70000725101AFB101A090C1A1B0469801A2D59
:102E80000C1A2F04294029201A310C5A43302920CA
:102E90001A550C5A573029A01A590C9A6B401A7DB2
:102EA0000C5A7F4029201A810C5A931029201AA508
:102EB0000C1AA7045A14A01AB50C1AB70423580206
:102EC0001A11101AB90C9AC7301AD50C1AE304015A
:102ED0001069E01B2D26B0190429102AEBB0190C3B
:102EE0001A350469B01A390C1A4704294129D01A35
:102EF000490C1A5B0469B01A6D0C5A6F4029201AEC
:102F0000710C9A83401A950C5A973029D01A990C53
:102F10009AAB401ABD0C5ABF4029201AC10C5AD393
:102F20001029201AE50C1AE70469F01AF50C1AF7B3
:102F30000469F01AF90C8B0727301A150C1A2304B0
:102F40000118000000000000000000000000000068
:040000050800018965
:00000001FF
