:020000040800F2
:10000000000C00209D01000837220008E11F0008B5
:1000100035220008990A0008F52F000800000000AA
:10002000000000000000000000000000852700081C
:100030009B0A0008000000005D26000881290008D6
:10004000B7010008B7010008B7010008B7010008B0
:10005000B7010008B7010008B7010008B7010008A0
:10006000B7010008B7010008B7010008B701000890
:10007000B7010008B7010008B7010008B701000880
:10008000B7010008B7010008B7010008B701000870
:10009000B7010008B7010008B7010008B701000860
:1000A000B7010008B7010008B7010008B701000850
:1000B000B7010008B7010008B7010008B701000840
:1000C000B7010008B7010008B7010008B701000830
:1000D000B7010008752F0008B7010008B701000834
:1000E000B7010008B7010008B7010008B701000810
:1000F000B7010008B7010008B7010008B701000800
:10010000B7010008B7010008B7010008B7010008EF
:10011000B7010008B7010008B7010008B7010008DF
:10012000B7010008B7010008B7010008B7010008CF
:10013000B7010008B7010008B7010008B7010008BF
:10014000B7010008B7010008B7010008B7010008AF
:10015000B7010008B7010008B7010008B70100089F
:10016000B7010008B7010008B7010008B70100088F
:10017000B7010008B7010008B7010008000000003F
:10018000B7010008B7010008DFF80CD000F080F9D3
:10019000004800473D300008000C0020064880471A
:1001A00006480047FEE7FEE7FEE7FEE7FEE7FEE75C
:1001B000FEE7FEE7FEE7FEE72D2A000889010008BA
:1001C0002DE9F05F0546002092469B46884606468C
:1001D000814640241BE0284641464746224600F01F
:1001E00004F953465A46C01A914110D31146184695
:1001F000224600F0EBF82D1A67EB01084F46224625
:100200000120002100F0E2F817EB00094E41201E0A
:10021000A4F10104DFDC484631462A464346BDE8E6
:10022000F09FD2B201E000F8012B491EFBD27047CB
:100230000022F6E710B513460A4604461946FFF7B2
:10024000F0FF204610BD00000FB400B58DB010A91E
:1002500009900B9000914FF0FF300A9000200C9015
:1002600005480690054807906A4609A80F9900F0CE
:10027000E1F80DB05DF814FB510400086F040008AC
:100280002DE9FF5F1D464FF0FF3BD5E90146914642
:100290005F464FF00008A9697F1C01988847296ACA
:1002A000824688470028F6D1BAF1FF3F0CD024F4EB
:1002B000C064002E19DD600614D5BAF12B0F09D0E9
:1002C000BAF12D0F0ED103E0584604B0BDE8F09FFF
:1002D00044F48064A9697F1C01988847761E824691
:1002E000002E02DDBAF1300F03D0B9F1000F26D095
:1002F00032E0A969761E44F400747F1C0198884797
:100300008246002E05DDBAF1780F06D0BAF1580FFB
:1003100003D0B9F1000F10D01EE0B9F1000F02D0E8
:10032000B9F1100F18D1A969761E24F400747F1C4E
:10033000019888478246102002E0082000E00A2049
:10034000814609E008FB0908A969761E44F4007497
:100350007F1C019888478246002E05DD494650469D
:1003600000F053F80028EDDAE96901988847A00504
:1003700002D46FF00100A8E7E00725D1600613D58D
:10038000600502D5C8F1000000E0404629680A1D5A
:100390002A600968220501D5087015E0220701D5F9
:1003A000088011E008600FE02868011D29600068DE
:1003B000210502D580F8008006E0210702D5A0F8CB
:1003C000008001E0C0F8008038467EE7202A04DB88
:1003D000203A00FA02F1002070479140C2F1200358
:1003E00020FA03F3194390407047202A04DB203A97
:1003F00021FA02F00021704721FA02F3D040C2F145
:10040000200291400843194670473A2800D23038FC
:1004100020F02002412A01D3A2F13700884201D303
:100420004FF0FF30704700000268114413780160FC
:1004300018467047D1600449516104491162002196
:100440001161114600F03CB829040008B504000809
:10045000426842B1016811F8013B23B1521EC0E964
:100460000012184670470121C160881E704742681B
:100470005AB1C368016843B983688B4205D0491EED
:10048000521CC0E90012002070474FF0FF30704747
:10049000064C074D06E0E06840F0010394E80700D1
:1004A00098471034AC42F6D3FFF772FE8C3C00083C
:1004B000AC3C0008C0B24FF4F05100F097B9000016
:1004C0002DE9F34F8BB04FF0000801F10C000C4602
:1004D0004FF0010B46460DF1080A019062690121B7
:1004E00001989047051E2DD0252D2CD0216A8847D4
:1004F000C0B16269012101989047216A88470028AC
:10050000F7D1411E62690198904700E0761CA1690D
:100510000B988847216A88470028F7D1E1690B9832
:100520008847DBE7A1690B9888470746A84201D1B5
:10053000761CD3E7E1690B9888477F1C02D1B8F19C
:10054000000F6FD046E1002762693D4639460198A9
:1005500090472A2804D1626901210198904701251A
:10056000DFF884926269012101989047A0F130017F
:100570000A290AD24F45E5DC07EB870100EB41076A
:10058000303FDFD445F01005ECE7E90601D46FF009
:1005900000476C280AD04C2814D0682815D06A2847
:1005A0000DD074281CD07A281AD01DE06269012170
:1005B000019890476C2802D045F0040514E045F0FE
:1005C00002050DE045F020050AE06269012101986D
:1005D0009047682802D045F0080505E045F400651D
:1005E0006269012101989047C4E9015765283DD00F
:1005F00019DC58287AD00CDC452837D004DC2528B3
:1006000026D0412831D131E046282FD047282CD19F
:100610002CE05B2877D0612828D063287CD0642820
:1006200023D15AE0D0E06F2848D008DC66281DD0DE
:1006300067281BD0692821D06E2816D127E07028A2
:1006400045D0732868D0752847D078280DD14DE063
:10065000A1690B988847054625283FF469AFE169F1
:100660000B9888476D1C3FF46AAFB3E023466A4697
:100670006FF001000B99AFF300809EE045F0400061
:100680006060A80723464FF0000236D43EE0E8073A
:100690007FF447AF2068011D21600068290501D55E
:1006A00006701BE7290701D5068017E7A90703D5C0
:1006B000F117C0E9006111E706600FE745F040005F
:1006C0006060A80723464FF0080216D41EE040F6EB
:1006D0000E0125EA0100606016E045F04000606010
:1006E000A80723464FF00A0207D40FE045F0400068
:1006F0006060A80708D5234610226FF001000B990F
:10070000AFF3008059E007E0234610226FF00100AC
:100710000B99FFF7B5FD50E04FF000094F464B46EF
:10072000632802D05B2806D040E0E80601D401200F
:10073000A06001273AE062690121019890475E2894
:1007400005D14FF001096269494601989047216936
:1007500039B900210A46534643F82120491C08298B
:10076000FADBB0B3216969B9C11700EBD16253114B
:100770000AEB830122F01F02821A01200B689040CD
:1007800003430B6062690121019890475D28E8D11D
:10079000B9F1000F09D00020514651F82020D24372
:1007A00041F82020401C0828F7DB02AB22460097C6
:1007B0006FF001000B99AFF3008000280CDA401CA9
:1007C00008D1BBF1000F05D04FF0FF300DB0BDE8F0
:1007D000F08FFFE74046F9E7E90701D108F101088A
:1007E00006444FF0000B79E6CCCCCC0C7F2801D925
:1007F000002208E0064A02EB5002C007127800D13E
:10080000120902F00F0201209040084070470000DA
:10081000903B000870B58C1810F8015B15F00703C9
:1008200001D110F8013B2A1106D110F8012B03E089
:1008300010F8016B01F8016B5B1EF9D12B0705D491
:100840000023521E0DD401F8013BFAE710F8013BDA
:10085000CB1A921C03E013F8015B01F8015B521EF6
:10086000F9D5A142D8D3002070BD000082484FF4D2
:100870008041002200F050BB7F484FF480410122AC
:1008800000F04ABB80B500F097F800F0A1F800F046
:10089000ABF800F0B5F800F0BFF800F0C9F800F0D0
:1008A000D3F800F0DDF800F07BF800F045F800F038
:1008B0005FF800F027F800F067F8FFF7D7FF00F0C7
:1008C0002FF800F013F800F0D9F8BDE8804000F0F0
:1008D00001B8000068484FF40041002200F01CBB42
:1008E00065484FF40041012200F016BB69484FF4FF
:1008F0008061002200F010BB66484FF48061012245
:1009000000F00ABB05480421002200F005BB00BF2F
:1009100002480421012200F0FFBA00BF0004024097
:100920005C484FF40071002200F0F6BA59484FF4C9
:100930000071012200F0F0BA56484FF40051002235
:1009400000F0EABA53484FF40051012200F0E4BA33
:10095000064A6421642828BF08461268D36A013316
:100960005843B0FBF1F0D063704700BFDC040020B7
:1009700048484FF48041002200F0CEBA45484FF479
:100980008041012200F0C8BA42484FF48071002231
:1009900000F0C2BA3F484FF48071012200F0BCBAA7
:1009A00035484FF40051002200F0B6BA32484FF4F7
:1009B0000051012200F0B0BA2F480821002200F0B7
:1009C000ABBA00BF2C480821012200F0A5BA00BF35
:1009D00029481021002200F09FBA00BF26481021AC
:1009E000012200F099BA00BF23482021002200F024
:1009F00093BA00BF20482021012200F08DBA00BF29
:100A00001D484021002200F087BA00BF1A4840214B
:100A1000012200F081BA00BF17488021002200F0B7
:100A20007BBA00BF14488021012200F075BA00BFD4
:100A300011484FF48061002200F06EBA0E484FF466
:100A40008061012200F068BA0B484FF40061002277
:100A500000F062BA08484FF40061012200F05CBA6D
:100A600005484FF48051002200F056BA02484FF476
:100A70008051012200F050BA000C0240054880214C
:100A8000002200F049BA00BF02488021012200F094
:100A900043BA00BF00100240FEE7704772B6FEE79F
:100AA0002D484068002814BF00680748704700BF01
:100AB00029480078704700BF27488068002814BF85
:100AC00040680148704700BF303C00082248C068B9
:100AD000704700BF20480021C0E90111C1600170CA
:100AE000FFF7D0BE1C484068002818BF012070479F
:100AF0000146002071B1184A53685BB9486850B18B
:100B0000036843B180B55160002102F069FB012008
:100B1000BDE8804070470020704700BF0E48406825
:100B2000002818BF02F068BA704700BF0A49486839
:100B300030B1886820B1CA681AB1013ACA6000D0E1
:100B4000704750F8102F22B109780131C9B202F074
:100B500047BB02F051BA00BF140400204C4A904237
:100B600012D04D4A904212D04D4A904212D04E4A75
:100B7000904212D04E4A904212D04E4A904216D124
:100B80004A4800F130020CE0404A16200AE0414A8F
:100B90000E2007E0414A0E2004E0424A032001E013
:100BA000424A0220884282BF080110587047002044
:100BB000704700BF80B501200821002201F04AFEE5
:100BC000BDE8804001F066BE80B501200921002209
:100BD00001F040FEBDE8804001F05CBE80B5012020
:100BE0000521002201F036FEBDE8804001F052BE32
:100BF00080B501200721002201F02CFEBDE88040D5
:100C000001F048BE80B501200621002201F022FE3D
:100C1000BDE8804001F03EBE80B501200A210022DF
:100C200001F018FEBDE8804001F034BE184B984238
:100C300012D0194B984212D0194B984212D01A4B2D
:100C4000984212D01A4B984212D01A4B98421BD19C
:100C5000164800F130030CE00C4B16200AE00D4B57
:100C60000E2007E00D4B0E2004E00E4B032001E0A8
:100C70000E4B0220884207D9002A4FEA011008BF14
:100C800001221A500120704700207047AC0100205B
:100C9000003C00081C030020183C0008BC00002099
:100CA000E83B0008700000200C3C00081000002009
:100CB000F43B0008243C000870B50446A66D00F023
:100CC00031F9054694F83500022829D120680168D9
:100CD00021F016010160416921F080014161216C20
:100CE00009B9A16C19B1016821F00801016001681E
:100CF00021F00101016005E000F014F9401B052816
:100D000012D82068006810F0010FF5D1E06D3F2186
:100D100001FA00F0B060012084F83500002008E0FE
:100D200080206065012004E020206065032084F8B5
:100D300035000021C0B284F8341070BD90F8351031
:100D400002291FBF8021416501207047052180F8DD
:100D500035100068016821F0010101600020704732
:100D600070B505466E1C00F0DDF804461EB18D48D6
:100D70000078054401E04FF0FF3500F0D3F8001B88
:100D8000A842FAD370BD00BF2DE9FC4F5B4A08278B
:100D90004FF0010E4FF0030A4FF0000B4FF0000828
:100DA000904208BF0727564A02444FEAB223072B56
:100DB00038BF4FEAB22700970027102F08BFBDE8C1
:100DC000FC8F0A680EFA07F4224200F090804B680C
:100DD00003F00302551E012D15D8D0F808C00AFAF9
:100DE00008F52CEA050CCD6805FA08F545EA0C056E
:100DF0008560C3F3001505FA07FC4568A54345EA7D
:100E00000C05456001E0032A1DD0C6680AFA08F502
:100E1000022A26EA05068D6805FA08F546EA05065F
:100E2000C66010D1374D0BF01C020F23934005EA2A
:100E300057060644356A25EA03030D6905FA02F2EE
:100E40001A4332624B68056803F003020AFA08F697
:100E500013F4403F02FA08F225EA060642EA0602C7
:100E6000026044D000220192274A136843F4804371
:100E70001360126802F48042019227F00302234BB0
:100E8000019E234D0BF00C0602EB03090F2259F8CB
:100E900005C002FA06FE009A2CEA0E0C02FA06F6CB
:100EA0004FF0010E46EA0C0649F805609A684E6854
:100EB000A24316F4801F18BF224316F4001F9A6045
:100EC000144A156825EA040518BF254316F4003FA7
:100ED00015605A6822EA040218BF224316F4803FC4
:100EE0005A601A6822EA040218BF22431A600BF102
:100EF000040B08F1020801375FE700BF001C024045
:100F00000000FEBFFCFFFF7F44380240003C014070
:100F100008FCFFFF0C3C0140002A08BF0904816166
:100F2000704700001F488068704700BF1D48017867
:100F3000826811448160704780B50B48016841F4B4
:100F400000710160016841F480610160016841F451
:100F500080710160032000F07DF80F2000F006F89A
:100F600000F022F8002080BD003C024070B50D4E1C
:100F700004464FF47A713078B1FBF0F09249096879
:100F8000B1FBF0F000F018FB01250F2C08D838B9A0
:100F90004FF0FF3021460022002500F02FF874604A
:100FA000284670BD0400002082B0002001900B494B
:100FB0004A6842F480424A604A6802F480420192E0
:100FC000019A0090086840F080500860086800F0BE
:100FD00080500090009802B0704700BF4038024037
:100FE000002808DB00F01F010122400902FA01F18C
:100FF000014A42F82010704700E100E0B0B5144CFF
:101000001A4D00F00F03B0F1FF3FA3F104032B448E
:1010100003F10C03C8BF03192868C0F30220051DA3
:10102000C41E80F00700072D4FF0010538BF0024D3
:10103000042828BF042005FA00F00138084005FA0A
:1010400004F10F31A0401140084300011870B0BDF9
:1010500000E400E005494FF6FF030A681A4060F318
:101060000A22034810430860704700BF0CED00E0FF
:101070000000FA052DE9F04104468846002C00F0F6
:101080008480444FD7F8000400F00700404507D2A1
:1010900087F80084D7F8000400F00700404574D1B9
:1010A000206810F0020F11D0410742BFB96841F427
:1010B000E051B960010742BFB96841F46041B960CD
:1010C000B968A26821F0F0011143B960C0072BD0C4
:1010D0006068811E022904D2396811F0007F0BD1AB
:1010E00053E0012804D1396811F4003F04D14CE0E9
:1010F000396811F0020F48D0B96821F003010843A4
:10110000B860FFF70FFF064641F28835B86861689E
:1011100000F00C00B0EB810F06D0FFF703FF801B3F
:10112000A842F3D9032031E0D7F8000400F007000B
:10113000404507D987F80084D7F8000400F007007D
:10114000404522D1206810F0040F05D0B968E2684C
:1011500021F4E0511143B960000706D5B868216950
:1011600020F4604040EAC100B86000F033F8B9688C
:10117000094AC1F30311515CC8401349086007488C
:101180000068FFF7F3FE002000E00120C0B2BDE8D8
:10119000F08100BF00380240D03B0008080000206A
:1011A00009480B4A006809490968C1F38221515C6A
:1011B000C84070470448064A006804490968C1F3FA
:1011C0004231515CC8407047B000002008380240EE
:1011D000E03B000810B5F14C606800F00C021348C9
:1011E0001349082A04D0042A04BF084610BD10BDC4
:1011F0002068236800F03F02206813F4800FC0F3DA
:10120000881006D109490023A0FB0101FEF7D8FF91
:1012100002E04843B0FBF2F021680222C1F3014131
:1012200002EB4101B0FBF1F010BD00BF0024F4005F
:1012300000127A002DE9F84F8246BAF1000F00F053
:1012400064819AF80000D44ED44FC0074AD0786821
:1012500000F00C00042807D1306810F4003F41D0A2
:10126000DAF80400F0BB50E1786800F00C000828C0
:1012700003D1386810F4800FEED1DAF80480B8F5A5
:10128000803F06D03068B8F5A02F13D140F48020FD
:101290003060306840F480303060FFF743FE054630
:1012A000306810F4003F1DD1FFF73CFE401B64285E
:1012B000F6D9C3E020F480303060306820F480201C
:1012C0003060FFF72FFE0546B8F1000FE8D1306817
:1012D00010F4003F06D0FFF725FE411B03206429D0
:1012E000F5D913E19AF80000AD4C800731D5786844
:1012F00010F00C0F1CD0786800F00C00082804BF18
:10130000386810F4800F13D0DAF80C00002800F0D1
:10131000978001202060FFF705FE0546306810F039
:10132000020F0ED1FFF7FEFD401B0228F6D985E023
:10133000306810F0020F1CBFDAF80C00012840F0F2
:10134000E4803068DAF8101020F0F80040EAC100BC
:1013500030609AF80000000722D5DAF8140078B15E
:101360000120C4F8800EFFF7DDFD0546386F10F050
:10137000020F15D1FFF7D6FD401B0228F6D95DE01C
:101380000020C4F8800EFFF7CDFD0546386F10F041
:10139000020F05D0FFF7C6FD401B0228F6D94DE02D
:1013A0009AF80000A34640077CD5F86B4FF0000880
:1013B00010F0805F0CD1CDF800804FF00108F86B81
:1013C00040F08050F863F86B00F080500090009877
:1013D0007448305810F4807F12D17248315841F46B
:1013E00080713150FFF79EFD05466E48305810F46D
:1013F000807F05D1FFF796FD401B0228F5D91DE03F
:10140000DAF80890B9F1010F06D0F86EB9F1050FBE
:1014100027D140F00400F866F86E40F00100F8664D
:10142000FFF780FD054641F28834F86E10F0020F98
:1014300031D1FFF777FD401BA042F6D9032065E0CC
:1014400000202060FFF76EFD0546306810F0020FA7
:101450003FF47FAFFFF766FD411B03200229F4D95B
:1014600054E020F00100F866F86E20F00400F86601
:10147000FFF758FD0546B9F1000FD4D141F2883984
:10148000F86E10F0020F06D0FFF74CFD411B032051
:101490004945F5D93AE0B8F1010F02BFF86B20F0E9
:1014A0008050F863DAF81840002C72D0786800F0A9
:1014B0000C0008282ED1012C27D03868DAF81C102F
:1014C00000F480028A4220D1DAF8201000F03F02B6
:1014D0008A421AD1DAF8242047F6C0710140B1EBF4
:1014E000821F12D1DAF828104FF6FF72C903914318
:1014F00000F44032A1F580318A4206D1DAF82C108E
:1015000000F07060B0EB016F43D00120C0B201B0B9
:10151000BDE8F08F0020CBF86000FFF703FD054623
:10152000022C0BD15C46306810F0007F11D0FFF721
:10153000F9FC411B03200229F5D9E7E7306810F0D8
:10154000007F26D0FFF7EEFC411B03200229F5D9CE
:10155000DCE70AF11C052FCD0843D90340EA8210CD
:101560004FF6FF72914340EA0560A1F580310843D0
:10157000386001202066FFF7D5FC0446306810F083
:10158000007F06D1FFF7CEFC011B03200229F5D90D
:10159000BCE70020BAE700BF003802400438024030
:1015A000000047420038FEFF024801680131016037
:1015B000704700BFD8040020411E0020B0EB116F1F
:1015C0001CBF01207047044AF023516003490B708F
:1015D000072190601160704710E000E023ED00E00B
:1015E000FFF7E2BF90F83C300222012B35D010B556
:1015F000012380F83C3080F83D200268D2F804E0F6
:10160000D2F808C00C68B2F1804F2EF0700343EAA4
:1016100004035360BDE8104014D0914B9A421CBFA4
:101620000F4B9A420ED00F4B9A421CBF0E4B9A4260
:1016300008D00E4B9A421CBF0D4B9A4202D00D4B64
:101640009A4204D149682CF080031943916001212A
:10165000002280F83D1080F83C20D0B2704700BFD7
:1016600000080040000C004000180040000001404D
:10167000004001400004014010B5044634B394F822
:101680003D0028B9002084F83C00204600F020F8F6
:101690000220211D84F83D00206801F0CFF90120CF
:1016A00084F8460084F83E0084F83F0084F8400047
:1016B00084F8410084F8420084F8430084F8440030
:1016C00084F8450084F83D00002010BD012010BDC5
:1016D00082B001680F48104A91420ED0D64A91421A
:1016E00016D100210191016841F0020101600068FA
:1016F00000F00200019001980AE0002100910168C9
:1017000041F010010160006800F0100000900098A6
:1017100002B07047403802400010004010B5044647
:10172000022094F83C20012A70D001224FF67773F2
:1017300084F83C2084F83D00206882689A438260E7
:101740000A6812B3102A20D0202A18BF302A1CD0D1
:10175000402A21D0502A2BD0602A35D0B2F5005F24
:101760003ED0B2F5805F4AD0702A51D1D1E9012331
:10177000C9681A4342EA0121826822F47F42114378
:101780008160816841F0770138E0816821F077015C
:10179000114341F0070131E04B68CA68194601F076
:1017A0007DFA2068816821F0770141F0470125E04A
:1017B0004B68CA68194601F071FA2068816821F007
:1017C000770141F0570119E04B68CA68194601F0EA
:1017D00076FA2068816821F0770141F067010DE019
:1017E000D1E90123C9681A4342EA0121826822F43F
:1017F0007F4211438160816841F480418160002013
:10180000012184F83D10002184F83C10C0B210BDC5
:101810000120F5E710B586B0044601A81421FEF7B3
:1018200007FD21688448814217D1002100F500306E
:1018300000910C4A136843F002031360126802F02F
:1018400002020092009A012201920222CDE90221B5
:10185000CDE9041201A9FFF797FA06B010BD00BF49
:101860000004004030380240B0B504460D4694F8FC
:101870003C00012801D1022041E04FEAB2010120E1
:10188000032984F83C0037D8DFE801F0020A12226D
:101890002068294601F042F9206850F8181F0EE030
:1018A0002068294601F06AF9206850F8181F16E0F0
:1018B0002068294601F096F9206850F81C1F41F075
:1018C00008010160016821F00401016029690FE04D
:1018D0002068294601F0BAF9206850F81C1F41F42D
:1018E00000610160016821F48061016029690902D9
:1018F0000268114301600020002184F83C10C0B24E
:10190000B0BD10B5044634B394F83D0028B90020AA
:1019100084F83C00204600F020F80220211D84F8C5
:101920003D00206801F08AF8012084F8460084F820
:101930003E0084F83F0084F8400084F8410084F8B9
:10194000420084F8430084F8440084F8450084F899
:101950003D00002010BD012010BD704739B10322A9
:10196000082908BF0222042908BF012200E0002242
:10197000024492F83E20012A1CBF01207047022237
:1019800041B1082909D0042914BF80F8412080F80A
:101990003F2004E080F83E2001E080F8402000680D
:1019A00001F01F01012202FA01F1026AB0F1804F39
:1019B00022EA01020262026A41EA0201016230D0B7
:1019C0001D4988421CBF1D4988422AD01C498842B3
:1019D0001CBF1C49884224D01B49884205D01B49A2
:1019E00088421ED01A49884220D1416CB0F1804F04
:1019F00041F40041416414D00F4988421CBF0F4993
:101A000088420ED00E4988421CBF0E49884208D039
:101A10000D4988421CBF0D49884202D00C498842BA
:101A200004D1816801F00701062903D0016841F063
:101A300001010160002070470004004000080040E0
:101A4000000C004000180040000001400040014030
:101A50000004014070477047F8B5044620680168EB
:101A6000C268456901F02F0602F02003202E05D13F
:101A700023B12046BDE8F84001F05FB95FEA017C80
:101A800008D005F0010E12F4907F8EF0010557D1B9
:101A9000002D55D01140CA06226B3BD5012A39D101
:101AA000002100910168009141680091009941690D
:101AB00011F0400F40F0A580A18DE28DE38D002B49
:101AC00000F01981891A89B209B914E1206850E837
:101AD000030F226820F4907042E80303002BF5D135
:101AE000206850E8050F226820F0010042E8050355
:101AF000002BF5D1202084F84200002020632068CC
:101B000050E8030F226820F0100042E80303002B86
:101B1000F5D1D5E00A0640F1BA8094F841102129A8
:101B200040F0E980A168B1F5805F04BF2169002918
:101B300000F0D380216A4A1C226209784160D3E018
:101B4000CE0706D012F480761EBF666C46F0010602
:101B5000666401F00407012686EA97072F4302BF57
:101B6000676C47F00207676401F0020786EA5706D0
:101B7000354302BF656C45F00405656453EA0E0306
:101B800018BF0123BCF1000F05D5012B02BF636C08
:101B900043F008036364636C002B00F0AC801140D9
:101BA000890603D5204601F0C8F820684069616CB9
:101BB00000F0400001F00801084300F08880204652
:101BC00001F094F82068416911F0400F01D16CE0F8
:101BD000206850E8050F216820F0400041E8050228
:101BE000002AF5D1E06B00285FD048490165FFF776
:101BF000A5F8002800F07F80E06B016DBDE8F8409B
:101C00000847E36B19684D68A28DA9B2002951D02D
:101C100091424FD2E585D969B1F5807F01D130E09D
:101C2000206850E8030F216820F4807041E8030227
:101C3000002AF5D1206850E8050F216820F0010046
:101C400041E80502002AF5D1206850E8050F216817
:101C500020F0400041E80502002AF5D1202084F858
:101C6000420000202063206850E8030F216820F024
:101C7000100041E80302002AF5D1E06BFFF71CF8E1
:101C8000A28D02206063E08D101A81B21AE049062D
:101C900031D5C16821F04001C160202084F84100A5
:101CA0002046BDE8F84000F04CB92046BDE8F840B9
:101CB000FFF7D1BE8A4204BFD869B0F5807F1AD140
:101CC000022060632046BDE8F840FFF7C3BE20460F
:101CD000FFF7C1FE00206064F8BD216A31F8022BD5
:101CE0006FF35F2242602162E18C4FF6FF7201398F
:101CF0001142E18400D0F8BDC16821F08001C160CB
:101D0000C16841F04001C160F8BD00BFE32C00088C
:101D100010B504464CB394F8410028B9002084F86B
:101D20004000204600F024F8242084F84100206878
:101D3000C16821F40051C160204601F063F82068B9
:101D4000016921F490410161416921F02A01416159
:101D5000C16841F40051C16000202021606484F812
:101D6000411084F84210606310BD012010BD0000D6
:101D700010B586B0044601A81421FEF759FA22686E
:101D80002C48D6492C4B9A422DD0404B9A424ED1EA
:101D9000002200924B6943F010034B614B6903F042
:101DA00010030093009B00920B6843F001030B604B
:101DB000096801F00101009100994FF4C06101919F
:101DC0000221CDE90212032104910721059101A905
:101DD000FEF7DAFF252000210022FFF70FF925206A
:101DE000FFF7FEF823E0002200F5806000920B6907
:101DF00043F480230B610B6903F480230093009B61
:101E000000920B6843F002030B60096801F00201C5
:101E1000009100994FF4406101910221CDE9021235
:101E2000032104910721059101A9FEF7ADFF06B03A
:101E300010BD00BF000002400048004010B590F8FF
:101E40004230202B07D1012431B12AB10024046390
:101E500001F03EF800E00224E0B210BD0068E6495F
:101E6000884218BF7047B0B5094D2C4614F8020FD0
:101E700001F09AF92078214601222870012068702B
:101E8000DC48FFF7DBFFBDE8B040704700100140C1
:101E9000100400202DE9F84304461D4617468846E5
:101EA00094F8410020281CD1B8F1000F4FF0010038
:101EB00018BF002F42D04FF000092120C4F84490F1
:101EC00084F84100FFF72EF8A784E7840646A0684F
:101ED000B0F5805F07D12769002F0CBFC146474688
:101EE00018E002202AE0474614E0204680213246CE
:101EF0002B4601F006F8E8B9206817B117F8011B66
:101F000004E039F8021B00276FF35F214160E08C89
:101F10000138E084E08C0028E7D120464021324699
:101F20002B4600F0EEFF2021002884F8411018BF56
:101F3000032003E0202084F84100032001B0BDE825
:101F4000F083704710B5104C4021204601F0E4F8B2
:101F50000E490880088880B1607807280ED172B6D3
:101F6000BFF34F8F0A4801680A4A01F4E061114348
:101F70000160BFF34F8F00BFFDE710BD0988024825
:101F8000BDE8104000F06CBB94040020FC0700206A
:101F90000CED00E00400FA05F0B585B01E4604AB78
:101FA0000C460546012710460CA11A460497FEF779
:101FB0004BF9049A0A990AB9012204973046FEF7B0
:101FC00035FE049A01AE05A1304601F069FB2846B2
:101FD0002146324600F0B0FC05B0F0BD257500008A
:101FE000FEE700002DE9F04F87B00027DFF8F4800E
:101FF00000224FF00409069701973848016841F024
:1020000004010160016801F0040101910199019747
:10201000016841F080010160016801F080010191D7
:1020200001990197016841F002010160016801F026
:102030000201019101990197016841F010010160CD
:10204000016801F01001019101990197016841F0C7
:1020500008010160016801F00801019101990197EF
:10206000016841F0010101600421006800F00100F5
:10207000019001981A4D2846C04705F540664FF477
:10208000EF4100224FF4EF4A3046C04705F50064A7
:102090004FF6F84100222046C047DFF84CB00DF162
:1020A0000808CDF808904FF0010928464146CDE9CF
:1020B00003970597D84730464146CDE902A9CDE9B7
:1020C0000477D8474FF6F8404146CDE9020920464B
:1020D000CDE90477D84707B0BDE8F08F303802402B
:1020E00000040240190F0008890D000810B58EB0D9
:1020F000002401A81C21CDE90C44CDE90A44CDE916
:102100000844FEF795F81D481D495322632380E8D3
:1021100016008021C0E903348161FFF7ADFA08B1F0
:10212000FEF7BCFC4FF480500AA90A901348FFF751
:10213000F5FA08B1FEF7B2FC1048FFF7E2FB08B170
:10214000FEF7ACFC0D48002408A9CDE90844FFF7D0
:1021500049FA08B1FEF7A2FC602001A90822CDE9E6
:102160000104064803940594FFF77EFB08B1FEF7CF
:1021700095FC0248FFF74EFB0EB010BDDC040020BA
:10218000000400401CB500240C484FF6FF72CDE956
:1021900000440B49C0E90014C0E902428461FFF722
:1021A0006BFA08B1FEF77AFC04486946CDE90044B1
:1021B000FFF718FA08B1FEF771FC1CBD24050020DA
:1021C0000010004080B50B480B494FF4E13200236A
:1021D0004FF00C0C80E80E00C0E90333C0E905C3E2
:1021E000C361FFF795FD18B1BDE88040FEF756BC0E
:1021F00080BD00BF6C0500200010014080B50B4879
:102200000B494FF4E13200234FF00C0C80E80E0034
:10221000C0E90333C0E905C3C361FFF779FD18B115
:10222000BDE88040FEF73ABC80BD00BFB405002089
:1022300000480040FEE7FEE7B0B514460D46012811
:102240001AD00A283AD1FEF74DFC002836D1681E74
:10225000112833D8DFE800F009373D43494F555B7B
:1022600061676D73797F858B959B002C00F095805D
:10227000BDE8B040FEF7A6BB681F052888BFB0BD0B
:10228000DFE800F003070B0F1317012C17D1F248FA
:1022900012E0012C13D1EF480EE0012C0FD1EB48D6
:1022A0000AE0012C0BD1EA4806E0012C07D1E648F0
:1022B00002E0012C03D1E348FEF71AFCB0BDBDE8F3
:1022C000B040FEF72BBC002C6BD0BDE8B040FEF751
:1022D00085BB002C69D0BDE8B040FEF78BBB002C5D
:1022E00067D0BDE8B040FEF791BB002C65D0BDE8DB
:1022F000B040FEF797BB002C63D0BDE8B040FEF7BE
:102300009DBB002C61D0BDE8B040FEF7A3BB002C04
:102310005FD0BDE8B040FEF7A9BB002C5DD0BDE8A2
:10232000B040FEF743BB002C5BD0BDE8B040FEF7E9
:10233000A3BA002C59D0BDE8B040FEF7D1BA002CAA
:1023400057D0BDE8B040FEF725BB002C55D0BDE806
:10235000B040FEF7DDBA002C53D0BDE8B040FEF728
:10236000E5BA002C51D0BDE8B040FEF7C5BA002C4C
:102370004FD02F480078FEF7EBFABDE8B040FEF7EB
:10238000E1BA002C4CD0BDE8B040FEF7F7BA002C03
:102390004AD0BDE8B040FEF777BBBDE8B040FEF7DD
:1023A0000BBBBDE8B040FEF713BBBDE8B040FEF785
:1023B0001BBBBDE8B040FEF723BBBDE8B040FEF755
:1023C0002BBBBDE8B040FEF733BBBDE8B040FEF725
:1023D0003BBBBDE8B040FEF743BBBDE8B040FEF7F5
:1023E000DFBABDE8B040FEF741BABDE8B040FEF745
:1023F00071BABDE8B040FEF7C7BABDE8B040FEF71D
:1024000081BABDE8B040FEF78BBABDE8B040FEF738
:102410006DBA0020FEF79CFABDE8B040FEF78CBA1A
:10242000BDE8B040FEF7A4BABDE8B040FEF726BB59
:10243000B40000202DE9F8430E460A99DFF8F08039
:1024400091463C4C1D460127012301F00F0209096A
:1024500001EB810102EB4101C8F8001000F00F010F
:102460000009009700EB800001EB400208200121E9
:10247000A047310906F00F000123009701EB81010D
:1024800000EB410208200221A047290905F00F00B6
:102490000123009701EB810100EB41020820032199
:1024A000A04700970123089800F00F01000900EBF6
:1024B000800001EB400208200421A047009701237F
:1024C000099800F00F01000900EB800001EB4002C9
:1024D00008200521A047D8F8002008200621012364
:1024E0000097A0474FEA191109F00F0001EB810195
:1024F00000EB4100062888BFBDE8F883DFE800F064
:102500000406080A0C0E100017A20AE014A208E044
:1025100011A206E00EA204E00BA202E008A200E075
:1025200005A208200721BDE8F84300F005BA00BF66
:10253000B8000020C9280008D0C7C6DAC1F90000D9
:10254000D0C7C6DACEE50000D0C7C6DACBC40000DB
:10255000D0C7C6DAC8FD0000D0C7C6DAB6FE000094
:10256000D0C7C6DAD2BB0000D0C7C6DAC8D50000D3
:1025700007490128088018BF704780B5FEF7B2FAF6
:102580000028BDE8804008BF00F084B9704700BF54
:10259000D4040020E0B50438052852D8DFE800F064
:1025A00003101D2A3744C81F80B2152849D85D4B37
:1025B00001F1F900C0B200900420FFF7EDFC8CBDE2
:1025C000C81F80B20D283CD8584B01F1F900C0B2A9
:1025D00000900520FFF7E0FC8CBDC81F80B20D28DD
:1025E0002FD8534B01F1F900C0B200900620FFF73D
:1025F000D3FC8CBDC81F80B2022822D84D4B01F1FC
:10260000F900C0B200900720FFF7C6FC8CBDC81FC0
:1026100080B2012815D8484B01F1F900C0B20090F2
:102620000820FFF7B9FC8CBDC81F80B2012888BF05
:102630008CBD424B01F1F900C0B200900920FFF7B8
:10264000ABFC8CBD243C0008F43B00080C3C0008AB
:10265000E83B0008183C0008003C000870470000F8
:102660004178B12919D0F72930D11FB5DFF868C0FA
:102670009CF802009CF803109CF804209CF805309C
:102680009CF806E09CF807409CF808C0CDE900E4FF
:10269000CDF808C0FFF7CEFE1FBDB0F8031009BA91
:1026A0000B0C8178012904BF1846FFF761BFB0F811
:1026B0000510C27909BA112A4FEA114107D0102A30
:1026C00018BF7047427A1846FFF7B6BD704700F151
:1026D00008021846FFF75EBF9404002010B51149A8
:1026E000114C042007221623A04710490520072279
:1026F0000E23A0470E49062007220E23A0470D49AE
:10270000072007220323A0470B49082007220223A2
:10271000A0470A49092007220223A446BDE8104029
:10272000604700BF003C000841270008183C000833
:10273000E83B00080C3C0008F43B0008243C00087F
:102740002DE9FF471C4690468A460746002601AD04
:102750000FF22C09B44208BFBDE8FF87F1B2504622
:10276000FEF7FCF902462846494600F099FF08EBBF
:1027700006002A4681B2384600F0DEF80136E9E765
:10278000256C75007047000022480021002201706E
:10279000602A08BF704783180C32C3E90111D96061
:1027A000F6E700BF80B5DFF86CC0864600209CF8D5
:1027B0000030072B88BF80BD03EB43020CEB820285
:1027C000C2E901E1D060581C8CF80000012080BDF6
:1027D00070B50F480F4E002504683078E9B2814289
:1027E00028BF70BD480050FA85F006EB80004068B5
:1027F00060B101EB410106EB81018A682AB151F811
:102800000C3FE31A934201D30C6080470135E4E7A3
:10281000D8040020300400201CB5084C8DF80700B7
:102820000DF10701012214232046FFF733FB206836
:10283000016811F0400FFBD01CBD00BF6C050020EB
:1028400010B5044602E0FFF7E7FF013420780028C6
:10285000F9D110BDF8B5494F0646EE2014460D4695
:10286000B847B120B8471020B847300AB847F0B28F
:10287000B847280AB847E8B2B8472046B847FF200B
:10288000B847FC20B847FF20B847FF203946BDE8CD
:10289000F8400847B0B5084D08A201200D21A8470F
:1028A000084C01200E212246A84701200F21224674
:1028B0002B46BDE8B040184739290008BFD5CFD016
:1028C00000000000893C00082DE9F0412B4E07462E
:1028D000EE201D4614468846B047B120B047072079
:1028E000B047380AB047F8B2B0474FEA1820B047AF
:1028F0005FFA88F0B047002D18BF01252846B04781
:10290000069840F0800000F08F00B047200EB047DE
:10291000C4F30740B047C4F30720B047E0B2B04764
:10292000FF20B047FC20B047FF20B047FF203146D2
:10293000BDE8F041084700BFF8B5104F0646EE204D
:1029400014460D46B847B120B8471020B847300AA2
:10295000B847F0B2B847280AB847E8B2B8472046A7
:10296000FFF76EFFFF20B847FC20B847FF20B847AD
:10297000FF203946BDE8F840084700BF1928000885
:1029800080B5FEF7D3FABDE88040FEF729BE00000F
:10299000B0B592B0002401A81421CDE90A44CDE9D4
:1029A0000844FDF745FC009402251E48016841F0EB
:1029B00080510160006800F0805000900098009401
:1029C0001948016841F480410160A821006800F4C1
:1029D000804000900098012006904FF480300790CE
:1029E0004FF480000C950D9004200E90CDE90F154A
:1029F000119006A8FEF71EFC08B172B6FEE70F2084
:102A00000521CDE901054FF4A050039404904FF443
:102A10008050059001A8FEF72DFB08B172B6FEE7C5
:102A200012B0B0BD4038024000700040024801685A
:102A300041F470010160704788ED00E0D0F800C0FB
:102A4000B0F1804F0ED02B4B98421CBF2A4B9842BE
:102A500008D02A4B98421CBF8F4B984202D0284B7B
:102A6000984204D14B682CF0700243EA020CB0F19A
:102A7000804F20D01F4B98421CBF1F4B98421AD04A
:102A80001E4B98421CBF1F4B984214D01E4B9842BD
:102A90001CBF1E4B98420ED0194B98421CBF7E4B58
:102AA000984208D01A4B98421CBF1A4B984202D049
:102AB000194B984204D1CB682CF4407243EA020CC3
:102AC00010B58B684A69C3620B6883622CF080037F
:102AD000714C1A4340F48063A342BDE8104004BF28
:102AE00009690163016841F004010160012141614C
:102AF000026070470004004000080040000C0040E5
:102B00000000014000180040001C00400020004070
:102B1000004001400048014000440140B0B5026A55
:102B2000036A23F0010322F002020362D0F804E0FA
:102B300083698D680C68154323F07302564B42EA93
:102B4000040C40F480629A4201BF25F00C03CC686B
:102B500024F0040444EA03054F4B9A4201BFD1E933
:102B600005232EF44074224342EA030EC0F804E029
:102B7000C0F818C0496841630562B0BD70B5026A0B
:102B8000036A23F0100322F020020362466883697F
:102B90008D680C6842EA051E23F4E6423E4B42EA89
:102BA000042C40F480629A4201BFCB686FF04F045E
:102BB00004EA03132EF0C00508BF43EA050E364BA6
:102BC0009A4201BFD1E9052326F4406444EA820217
:102BD00042EA83064660C0F818C049688163C0F8BD
:102BE00020E070BD70B5026A036A23F4807322F49A
:102BF000007203624668C3698D680C6842EA052E5C
:102C000023F07302244B42EA040C40F480629A429F
:102C100008D1CB6840F2FF442EF440651B02A34369
:102C200043EA050E1C4B9A4201BFD1E9052326F465
:102C3000405444EA021242EA03164660C0F81CC03F
:102C40004968C163C0F820E070BD00BFB0B5D0F8DE
:102C500020C0036A23F480532CF4005203624368BB
:102C6000C5698C68D1F800E042EA043C0A4C25F4BE
:102C7000E64240F4806542EA0E22A54202BF4D6959
:102C800023F4804343EA85134360C26149680164C9
:102C9000C0F820C0B0BD00BF00040140D0F820C083
:102CA000036A23F001030362836923F0F00343EA1C
:102CB000021282612CF00A02114301627047D0F8BF
:102CC00020C0036A23F010030362836923F4704376
:102CD00043EA023282612CF0A00242EA0111016251
:102CE0007047806B0021C185FEF7B5BE016851E8D1
:102CF000031F026821F4907142E80313002BF5D101
:102D0000016851E8051F026821F0010142E805133E
:102D1000002BF5D1016B012909D1016851E8031F8E
:102D2000026821F0100142E80313002BF5D12021A5
:102D300080F8421000210163704790F84210222968
:102D400018BF70478368B3F5805F06D1026900F150
:102D50002801A2B1D1F800C008E00146002B51F8CB
:102D600028CF01D103690BB17F2300E0FF23026864
:102D700052681A4001238CF800200A6806E00368B4
:102D8000826A5B686FF35F23138002231A440A6030
:102D90004FF6FF72C18D01391142C18500D07047D5
:102DA0000168CA6822F02002CA60CA6822F48072F0
:102DB000CA604A6922F001024A61202280F842205A
:102DC00000224263036B012B18BFFFF747B8026371
:102DD00051E8031F026821F0100142E80313016863
:102DE000002BF5D10A6812F0100F08D081B0002234
:102DF00000920A68009249680091009901B0818DA3
:102E0000FEF728BEB0B5044649F20C65206801699A
:102E1000E26821F4405111430161D4F808C0D4E9BB
:102E20000423D4F81CE0C16842EA0C02A9431A4307
:102E300042EA0E021143C1604169A26921F4407166
:102E40001143416140F480602049884202D1FEF77D
:102E5000B1F901E0FEF7A4F9E26963681921A0FB6A
:102E60000101B2F5004F16D15A00DB0FFDF7A8F9AA
:102E700064216FF06303B0FBF1F202FB0300322325
:102E800003EBC000B0FBF1F14FF4F87000EA410031
:102E900001F0070113E09A009B0FFDF791F96421FF
:102EA0006FF06303B0FBF1F202FB0300322303EB8C
:102EB0000010B0FBF1F101F0F00001F00F0100EBA8
:102EC0000210084321688860B0BD00BF00140140B3
:102ED000816200218285C2854164222180F84210EE
:102EE0000168006918B1C86840F48070C86048691A
:102EF00040F001004861C86840F02000C860002030
:102F000070472DE9FC4104461D4690460F46206857
:102F10006E1C01683940B94226D0002EF9D0FEF768
:102F200001F803210DB3A0EB0800A8421DD82068CA
:102F3000C16811F0040F18BF402FEAD0802F1CBFCA
:102F4000016811F0080FE4D0002501950168019196
:102F50004068019001982046FFF7C8FE0820012133
:102F6000606484F8405000E00021C8B202B0BDE8BF
:102F7000F08100005948FEF76FBD00BFB0B58CB0BE
:102F800017480088012828D1FDF7ACFD012824D17D
:102F9000FDF786FD134D024601200D21A847FDF7E0
:102FA00087FD0446FDF788FD631C04AC00900EA26B
:102FB0002021204600F05CFB01200E212246A8477C
:102FC000FDF784FD01AC034609A20C21204600F068
:102FD0004FFB01200F212246A8470CB0B0BD00BF17
:102FE000D40400203929000825642E257300000030
:102FF000256C7500FEE7000010B5834CA06808B191
:1030000000F01CFBFDF73EFC606810B1806800B169
:1030100080470020C4E90100E060207010BD00BFBF
:10302000E0B50190044801A901224FF0FF33FEF7FB
:1030300031FF019802B080BDB4050020F8B5FDF75E
:103040007BFFFFF7A5FCFEF7CDFFFFF79BF8FFF72F
:10305000B9F8FFF7D3F8FFF749F81F480821FEF742
:103060007DFC08B172B6FEE700F0B0F84FF4967040
:10307000FDF776FE19481A490122FEF7DFFE19A076
:1030800000F074FDFDF726FDFFF77EFB1848194C94
:10309000C821A047184800210025A04717484FF431
:1030A0007A71A04740F6B830FDF75AFEFFF716FBDD
:1030B000134808210022FDF72FFF124E124F13A4D0
:1030C000FFF786FB30780028FAD035702046397833
:1030D00000F0BEFAF4E700BFDC0400206C0500201D
:1030E00012040020697320636F6E6E6563740D00B7
:1030F0007D2F0008A5270008451F00082D0B00089C
:10310000000C0240110400201004002072783A20C4
:10311000253032580D0A00002DE9F041DFF8BCE0FF
:10312000DFF8A4800022BEF80230BEF8047003F578
:10313000007CBCB2ACEB0405EE1705EBD65606F4EA
:103140007E46AD1B2D0428D09C421D461FBF18F89B
:1031500004207D1C6FF35F25AEF80450BEF80060BC
:10316000D4B2EE2C02D0002E2F46E2D08E423FBFCA
:10317000771CAEF8007082553E46DEF8087044EACF
:103180000724CEF80840074FBC422F46D1D100207B
:10319000CEF80800AEF8000000E00026B0B2BDE8AE
:1031A000F08100BFFFFFFCFFDFF830C0BCF8022059
:1031B000BCF80410531C6FF35F238B421EBF0249FF
:1031C0008854ACF802307047FC0500200348002109
:1031D0008180418081600180704700BF240400200D
:1031E00070B5094E04460D46B06818B1A04218BF2C
:1031F00000F024FAB46035702068F060A06810B167
:10320000BDE87040004770BD14040020704770474F
:1032100080B5FDF765FBBDE88040FDF72DBB80B5AF
:10322000FDF758FBBDE88040FDF720BB70477047B5
:10323000FDF704BCFDF7FCBB80B5FDF7ABFBBDE8BB
:103240008040FDF74DBB704780B5FDF7BBFBFDF738
:10325000D1FBBDE88040FDF775BB80B5FDF7ACFB49
:10326000FDF7C2FBBDE88040FDF766BB70477047C5
:1032700080B5FDF7A7FBFDF7BDFBBDE88040FDF77E
:1032800061BB80B5FDF798FBFDF7AEFBBDE8804064
:10329000FDF752BB7047704780B5FDF79FFBFDF708
:1032A000A9FBBDE88040FDF74DBB80B5FDF790FB65
:1032B000FDF79AFBBDE88040FDF73EBB70477047C5
:1032C00080B5FDF78BFBFDF795FBBDE88040FDF772
:1032D00039BB80B5FDF77CFBFDF786FBBDE8804080
:1032E000FDF72ABB704780B5FDF74EFBBDE8804077
:1032F000FDF7F0BA7047704780B5FDF717FBBDE8E2
:103300008040FDF7F9BA80B5FDF70AFBBDE88040C3
:10331000FDF7ECBA80B5FDF73DFBBDE88040FDF759
:10332000DFBA80B5FDF730FBBDE88040FDF7D2BACB
:1033300070477047FDF782BBFDF77ABB80B5FDF79C
:1033400029FBBDE88040FDF7CBBA704780B5FDF79B
:1033500045FBFDF74FFBBDE88040FDF7F3BA80B5B4
:10336000FDF736FBFDF740FBBDE88040FDF7E4BA12
:103370007047704780B5FDF731FBFDF73BFBBDE8BB
:103380008040FDF7DFBA80B5FDF722FBFDF72CFB8F
:10339000BDE88040FDF7D0BA704780B5FDF7F4FA7C
:1033A000BDE88040FDF796BA7047704780B5FDF7DD
:1033B000F1FABDE88040FDF793BA80B5FDF7E4FA75
:1033C000BDE88040FDF786BA7047704780B5FDF7CD
:1033D000E1FABDE88040FDF783BA704780B5FDF79C
:1033E000F1FAFDF707FBBDE88040FDF7ABBA80B509
:1033F000FDF7E2FAFDF7F8FABDE88040FDF79CBA68
:103400007047704780B5FDF7DDFAFDF7F3FABDE8C8
:103410008040FDF797BA80B5FDF7CEFAFDF7E4FAE4
:10342000BDE88040FDF788BA7047704780B5FDF76A
:10343000D5FAFDF7DFFABDE88040FDF783BA80B525
:10344000FDF7C6FAFDF7D0FABDE88040FDF774BA83
:103450007047704780B5FDF7C1FAFDF7CBFABDE8BC
:103460008040FDF76FBA80B5FDF7B2FAFDF7BCFA00
:10347000BDE88040FDF760BA704780B5FDF784FA7B
:10348000BDE88040FDF726BA7047704780B5FDF76C
:103490004DFABDE88040FDF72FBA80B5FDF740FA40
:1034A000BDE88040FDF722BA80B5FDF773FABDE8AC
:1034B0008040FDF715BA80B5FDF766FABDE880409B
:1034C000FDF708BA7047704780B5FDF72FFABDE8E1
:1034D0008040FDF711BA80B5FDF722FABDE88040C3
:1034E000FDF704BA80B5FDF755FABDE88040FDF759
:1034F000F7B980B5FDF748FABDE88040FDF7EAB9B5
:1035000070477047FDF79ABAFDF792BA80B5FDF79C
:1035100041FABDE88040FDF7E3B9704780B5FDF79B
:1035200051FAFDF767FABDE88040FDF70BBA80B5A8
:10353000FDF742FAFDF758FABDE88040FDF7FCB907
:103540007047704780B5FDF73DFAFDF753FABDE8C7
:103550008040FDF7F7B980B5FDF72EFAFDF744FA84
:10356000BDE88040FDF7E8B97047704780B5FDF7CA
:1035700035FAFDF73FFABDE88040FDF7E3B980B5C5
:10358000FDF726FAFDF730FABDE88040FDF7D4B923
:103590007047704780B5FDF721FAFDF72BFABDE8BB
:1035A0008040FDF7CFB980B5FDF712FAFDF71CFAA0
:1035B000BDE88040FDF7C0B9704780B5FDF7E4F97C
:1035C000BDE88040FDF786B97047704780B5FDF7CC
:1035D000ADF9BDE88040FDF78FB980B5FDF7A0F9E2
:1035E000BDE88040FDF782B980B5FDF7D3F9BDE8AD
:1035F0008040FDF775B980B5FDF7C6F9BDE880409C
:10360000FDF768B97047704780B5FDF7F3F9FDF72E
:1036100099F9FDF7FBF9FDF71DFABDE88040FDF7CC
:10362000B9B980B5FDF7E0F9FDF786F9FDF7E8F9DE
:10363000FDF70AFABDE88040FDF7A6B903488068A7
:1036400010B1C06800B10047704700BF14040020EB
:103650000FB4054B10B503A9044A029800F044F8D2
:1036600010BC5DF814FB00002130000800000020B1
:103670000FB41CB50246002007AC00290BD0491E30
:10368000CDE90021054B6A462146069800F02CF84A
:10369000009A002111701CBC5DF814FB4B3B000824
:1036A0000FB4084B10B504A902AA039800F01CF847
:1036B000044602A9002000F053FA204610BC5DF831
:1036C00014FB0000613B000802E008C8121F08C19B
:1036D000002AFAD170477047002001E001C1121F93
:1036E000002AFBD1704700002DE9FF4F8DB00F4637
:1036F0000546002606E025280BD0DDE90F1290478D
:103700006D1C761C28780028F5D111B03046BDE834
:10371000F08F0024A246A1460122EC4900E00443B8
:1037200015F8013F203B02FA03F00842F7D1287850
:103730002A2810D06FF02F022878A0F13001092933
:1037400014D80AEB8A0102EB410144F0020400EBB9
:10375000010A6D1CF0E701CF5FEA000A03D544F4CB
:103760000054CAF1000A44F002046D1C28782E2887
:1037700017D115F8010F44F004042A280ED06FF079
:103780002F022878A0F1300109290AD809EB890114
:1037900002EB410100EB01096D1CF2E757F8049BB5
:1037A0006D1C28786C280FD006DC4C2817D06828B0
:1037B0000DD06A2814D104E0742810D07A280FD1D3
:1037C0000DE044F400140AE044F4801401E044F4F1
:1037D00040146978814202D104F580146D1C6D1C7F
:1037E0002A786E2A1FD00CDC632A31D004DC002A30
:1037F0008BD0582A11D1A3E0642A68D0692A0CD151
:1038000065E0732A2ED004DC6F2A73D0702A04D1AD
:103810009BE0752A6FD0782A6ED01046DDE90F1232
:103820009047761C50E1C4F30250022806D00328CA
:1038300009D0042801CF09D0066045E101CFF11776
:10384000C0E9006140E101CF06803DE106703BE147
:1038500017F8040B8DF8000000208DF80100EB46EE
:10386000012003E057F804BB4FF0FF3061074FF031
:10387000000102D40DE008F10101884649450FDA44
:103880008045F8DB1BF808100029F4D108E008F1A6
:10389000010188468142FADB1BF808100029F6D1A5
:1038A000DDE90F23AAEB08008146214600F036F936
:1038B000304400EB080604E0DDE90F121BF8010BB1
:1038C0009047B8F10108F7D221464846F7E00A21AF
:1038D000C4F302534FF0000B0891022B04D001CF28
:1038E000C117032B09D00AE0FF1D27F00707F7E8EF
:1038F000020108E032E01FE020E000B2C117042B13
:1039000001D140B2C117031E71F1000307DA4FF075
:10391000000CD0EB0C006CEB01012D2302E0230521
:1039200004D52B238DF82430012303E0E30701D0D5
:103930002023F7E7984658E00A2110E010210EE016
:1039400010204FF0000B08900CE010214FF0000BFE
:1039500044F004044FF00809089103E008214FF0F7
:10396000000B0891C4F30253022B04D001CF0021B5
:10397000032B06D006E0FF1D27F00707F7E802013A
:1039800003E080B2042B00D1C0B24FF0000823073F
:103990002BD5702A07D0DDF820C08CF0100C5CEA23
:1039A0000B0C05D00EE040238DF82430012308E0F5
:1039B00050EA010306D030238DF824308DF82520FD
:1039C00002239846DDF820C08CF0080C5CEA0B0C52
:1039D0000BD150EA010301D1630706D530238DF8DE
:1039E00024304FF00108A9F10109582A04D038A267
:1039F0000B9208AA0A920BE03AA2F9E75B46089AF2
:103A0000FCF7DEFB0B9B9B5C0A9A521E0A9213701A
:103A100050EA0102F2D10A98ADEB000000F1200B50
:103A2000600702D524F4803401E04FF00109D94544
:103A300002DDA9EB0B0000E0002000EB0B0141448C
:103A40000890AAEB010AE00306D4DDE90F23214622
:103A5000504600F063F806444FF0000908E009A959
:103A600011F80900DDE90F12904709F10109761CF0
:103A7000C145F4DBE0030CD5DDE90F2321465046B8
:103A800000F04CF8064404E0DDE90F1230209047C6
:103A9000761C0899481E08900029F5DC08E00A9871
:103AA0000A990078491C0A91DDE90F129047761CAB
:103AB000BBF10001ABF1010BF1DC21465046DDE921
:103AC0000F2300F019F806446D1C1BE609280100BD
:103AD0003031323334353637383961626364656684
:103AE0000000000030313233343536373839414246
:103AF00043444546000000002DE9F04104460025FE
:103B00001E461746880404D405E039462020B047F5
:103B10006D1C641EF9D52846BDE8F0812DE9F04101
:103B2000044600251E469046C80301D5302700E014
:103B30002027880404D505E041463846B0476D1C6F
:103B4000641EF9D52846BDE8F0814A68002A06D0EF
:103B50000A68531C0B6010704868401E486070472C
:103B60000A68531C0B6010707047000010B50446C3
:103B700001E0FFF755FA14F8010B04490028F8D1C9
:103B8000BDE810400A20FFF74BBA000000000020FB
:103B9000DDDDDDDDDCBBBBDDDDDDDDDDDDDDDDDD9A
:103BA00098888888888888887777777777888888DA
:103BB0008555555666666666666666666668888872
:103BC0008333333222222222222222222228888D6B
:103BD00000000000000000000102030406070809BD
:103BE0000000000001020304473C0008BC00002064
:103BF000B50B00087C3C000810000020C90B000831
:103C00003E3C0008AC010020DD0B0008773C0008BA
:103C100070000020F10B0008353C00081C03002058
:103C2000050C0008653C000840000020190C000845
:103C3000BFD5CFD000D0A1B1E3B3E5CFB400B4F38A
:103C4000B1E3B3E5CFB400C7E5CFB400C7BFB3E974
:103C5000CEDB00CFC2C5E7B3E9CEDB00D6D0C5E7E7
:103C6000B3E9CEDB00D5E6BFD5CFE4D7D4C7E5BDF9
:103C7000E000C5AFB7E700B8C9D4EF00C7E5BDE0C5
:103C8000BFD5C6F800B5C8B4FD000000B03C0008C0
:103C9000000000201004000014080008A03E0008E6
:103CA00010040020F0070000D836000800000000D3
:103CB0004132017210320513853C14080D321B0885
:103CC0000F04323C1A7C101A110C1A1F04011069DF
:103CD000301305361B080704321E1A65101A090C2A
:103CE0001A230409163013C5341B08C704235802CD
:103CF0001A72101AC90C1AD70429201A60101AE572
:103D00000C1AF30401111324F45A5AB4694C1A2DF5
:103D1000981A2F0429101A4C101A310C2A35C05940
:103D20004C1A390C5A47101A5C101A490C1A5B04C9
:103D30005A0A201A6D0C5A6F4029201A710C9A8366
:103D4000401A950C5A97301A53101A990C9AAB4096
:103D50001ABD0C5ABF4029201AC10C5AD31039CCB5
:103D6000190C1AE7045A14B01AF50C1AF70469FC76
:103D70001AF90C8B0733301A150C1A230401106939
:103D8000F01A311C5A333029F01A350C1A390469EB
:103D9000B01A3D0C1A4B0469B01A4D0C5A5F102929
:103DA000201A710C5A734029201A750C9A87801AB0
:103DB000990C5A9B1029701AA90C9AAB201AAD0CB9
:103DC0009ABB201AC90C9ACB801ACD0C5ADB101A58
:103DD0005C101ADD0C9AEF801301341B08030429D0
:103DE0004029201A050C1A170469401A290C1A2BAD
:103DF0000469C01A2D0C5A3F1029201A510C5A532D
:103E00004029201A550C5A671029201A790C1A7B60
:103E1000045A14A01A890C1A8B042358021A72101F
:103E20001A8D0C9A9B301AA90C1AB704011069E07C
:103E30001B0135B0190429102A4CB0190C1A0904B9
:103E400069B01A0D0C1A1B04294129D01A1D0C1A2D
:103E50002F0469B01A410C5A434029201A450C9A84
:103E600057401A690C5A6B3029D01A6D0C9A7F4052
:103E70001A910C5A934029201A950C5AA710292000
:103E80001AB90C1ABB0469F01AC90C1ACB0469F0F0
:103E90001ACD0C9ADB301AE90C1AF7040114000051
:040000050800018965
:00000001FF
