:020000040800F2
:10000000B80B00209D010008F31D0008751C0008B6
:10001000F11D00087B0A0008092900080000000003
:100020000000000000000000000000003123000874
:100030007D0A000800000000092200082D250008A4
:10004000B7010008B7010008B7010008B7010008B0
:10005000B7010008B7010008B7010008B7010008A0
:10006000B7010008B7010008B7010008B701000890
:10007000B7010008B7010008B7010008B701000880
:10008000B7010008B7010008B7010008B701000870
:10009000B7010008B7010008B7010008B701000860
:1000A000B7010008B7010008B7010008B701000850
:1000B000B7010008B7010008B7010008B701000840
:1000C000B7010008B7010008B7010008B701000830
:1000D000B701000889280008B7010008B701000827
:1000E000B7010008B7010008B7010008B701000810
:1000F000B7010008B7010008B7010008B701000800
:10010000B7010008B7010008B7010008B7010008EF
:10011000B7010008B7010008E9250008B701000889
:10012000B7010008B7010008B7010008B7010008CF
:10013000B7010008B7010008B7010008B7010008BF
:10014000B7010008B7010008B7010008B7010008AF
:10015000B7010008B7010008B7010008B70100089F
:10016000B7010008B7010008B7010008B70100088F
:10017000B7010008B7010008B7010008000000003F
:10018000B7010008B7010008DFF80CD000F080F9D3
:100190000048004751290008B80B00200648804756
:1001A00006480047FEE7FEE7FEE7FEE7FEE7FEE75C
:1001B000FEE7FEE7FEE7FEE7D92500088901000813
:1001C0002DE9F05F0546002092469B46884606468C
:1001D000814640241BE0284641464746224600F01F
:1001E00004F953465A46C01A914110D31146184695
:1001F000224600F0EBF82D1A67EB01084F46224625
:100200000120002100F0E2F817EB00094E41201E0A
:10021000A4F10104DFDC484631462A464346BDE8E6
:10022000F09FD2B201E000F8012B491EFBD27047CB
:100230000022F6E710B513460A4604461946FFF7B2
:10024000F0FF204610BD00000FB400B58DB010A91E
:1002500009900B9000914FF0FF300A9000200C9015
:1002600005480690054807906A4609A80F9900F0CE
:10027000E1F80DB05DF814FB510400086F040008AC
:100280002DE9FF5F1D464FF0FF3BD5E90146914642
:100290005F464FF00008A9697F1C01988847296ACA
:1002A000824688470028F6D1BAF1FF3F0CD024F4EB
:1002B000C064002E19DD600614D5BAF12B0F09D0E9
:1002C000BAF12D0F0ED103E0584604B0BDE8F09FFF
:1002D00044F48064A9697F1C01988847761E824691
:1002E000002E02DDBAF1300F03D0B9F1000F26D095
:1002F00032E0A969761E44F400747F1C0198884797
:100300008246002E05DDBAF1780F06D0BAF1580FFB
:1003100003D0B9F1000F10D01EE0B9F1000F02D0E8
:10032000B9F1100F18D1A969761E24F400747F1C4E
:10033000019888478246102002E0082000E00A2049
:10034000814609E008FB0908A969761E44F4007497
:100350007F1C019888478246002E05DD494650469D
:1003600000F053F80028EDDAE96901988847A00504
:1003700002D46FF00100A8E7E00725D1600613D58D
:10038000600502D5C8F1000000E0404629680A1D5A
:100390002A600968220501D5087015E0220701D5F9
:1003A000088011E008600FE02868011D29600068DE
:1003B000210502D580F8008006E0210702D5A0F8CB
:1003C000008001E0C0F8008038467EE7202A04DB88
:1003D000203A00FA02F1002070479140C2F1200358
:1003E00020FA03F3194390407047202A04DB203A97
:1003F00021FA02F00021704721FA02F3D040C2F145
:10040000200291400843194670473A2800D23038FC
:1004100020F02002412A01D3A2F13700884201D303
:100420004FF0FF30704700000268114413780160FC
:1004300018467047D1600449516104491162002196
:100440001161114600F03CB829040008B504000809
:10045000426842B1016811F8013B23B1521EC0E964
:100460000012184670470121C160881E704742681B
:100470005AB1C368016843B983688B4205D0491EED
:10048000521CC0E90012002070474FF0FF30704747
:10049000064C074D06E0E06840F0010394E80700D1
:1004A00098471034AC42F6D3FFF772FE8835000847
:1004B000A8350008C0B24FF4F05100F097B9000021
:1004C0002DE9F34F8BB04FF0000801F10C000C4602
:1004D0004FF0010B46460DF1080A019062690121B7
:1004E00001989047051E2DD0252D2CD0216A8847D4
:1004F000C0B16269012101989047216A88470028AC
:10050000F7D1411E62690198904700E0761CA1690D
:100510000B988847216A88470028F7D1E1690B9832
:100520008847DBE7A1690B9888470746A84201D1B5
:10053000761CD3E7E1690B9888477F1C02D1B8F19C
:10054000000F6FD046E1002762693D4639460198A9
:1005500090472A2804D1626901210198904701251A
:10056000DFF884926269012101989047A0F130017F
:100570000A290AD24F45E5DC07EB870100EB41076A
:10058000303FDFD445F01005ECE7E90601D46FF009
:1005900000476C280AD04C2814D0682815D06A2847
:1005A0000DD074281CD07A281AD01DE06269012170
:1005B000019890476C2802D045F0040514E045F0FE
:1005C00002050DE045F020050AE06269012101986D
:1005D0009047682802D045F0080505E045F400651D
:1005E0006269012101989047C4E9015765283DD00F
:1005F00019DC58287AD00CDC452837D004DC2528B3
:1006000026D0412831D131E046282FD047282CD19F
:100610002CE05B2877D0612828D063287CD0642820
:1006200023D15AE0D0E06F2848D008DC66281DD0DE
:1006300067281BD0692821D06E2816D127E07028A2
:1006400045D0732868D0752847D078280DD14DE063
:10065000A1690B988847054625283FF469AFE169F1
:100660000B9888476D1C3FF46AAFB3E023466A4697
:100670006FF001000B99AFF300809EE045F0400061
:100680006060A80723464FF0000236D43EE0E8073A
:100690007FF447AF2068011D21600068290501D55E
:1006A00006701BE7290701D5068017E7A90703D5C0
:1006B000F117C0E9006111E706600FE745F040005F
:1006C0006060A80723464FF0080216D41EE040F6EB
:1006D0000E0125EA0100606016E045F04000606010
:1006E000A80723464FF00A0207D40FE045F0400068
:1006F0006060A80708D5234610226FF001000B990F
:10070000AFF3008059E007E0234610226FF00100AC
:100710000B99FFF7B5FD50E04FF000094F464B46EF
:10072000632802D05B2806D040E0E80601D401200F
:10073000A06001273AE062690121019890475E2894
:1007400005D14FF001096269494601989047216936
:1007500039B900210A46534643F82120491C08298B
:10076000FADBB0B3216969B9C11700EBD16253114B
:100770000AEB830122F01F02821A01200B689040CD
:1007800003430B6062690121019890475D28E8D11D
:10079000B9F1000F09D00020514651F82020D24372
:1007A00041F82020401C0828F7DB02AB22460097C6
:1007B0006FF001000B99AFF3008000280CDA401CA9
:1007C00008D1BBF1000F05D04FF0FF300DB0BDE8F0
:1007D000F08FFFE74046F9E7E90701D108F101088A
:1007E00006444FF0000B79E6CCCCCC0C7F2801D925
:1007F000002208E0064A02EB5002C007127800D13E
:10080000120902F00F0201209040084070470000DA
:100810008C34000870B58C1810F8015B15F00703D4
:1008200001D110F8013B2A1106D110F8012B03E089
:1008300010F8016B01F8016B5B1EF9D12B0705D491
:100840000023521E0DD401F8013BFAE710F8013BDA
:10085000CB1A921C03E013F8015B01F8015B521EF6
:10086000F9D5A142D8D3002070BD00007A484FF4DA
:100870008041002200F042BB77484FF480410122C2
:1008800000F03CBB80B500F087F800F091F800F074
:100890009BF800F0A5F800F0AFF800F0B9F800F010
:1008A000C3F800F0CDF800F06BF800F045F800F068
:1008B0004FF800F027F800F057F8FFF7D7FF00F0E7
:1008C0002FF800F013F800F0C9F8BDE8804000F000
:1008D00001B8000060484FF40041002200F00EBB58
:1008E0005D484FF40041012200F008BB61484FF41D
:1008F0008061002200F002BB5E484FF4806101225B
:1009000000F0FCBA05480421002200F0F7BA00BF4D
:1009100002480421012200F0F1BA00BF00040240A5
:1009200054484FF40071002200F0E8BA51484FF4E7
:100930000071012200F0E2BA4E484FF4005100224B
:1009400000F0DCBA4B484FF40051012200F0D6BA57
:1009500048484FF48041002200F0D0BA45484FF497
:100960008041012200F0CABA42484FF4807100224F
:1009700000F0C4BA3F484FF48071012200F0BEBAC3
:1009800035484FF40051002200F0B8BA32484FF415
:100990000051012200F0B2BA2F480821002200F0D5
:1009A000ADBA00BF2C480821012200F0A7BA00BF51
:1009B00029481021002200F0A1BA00BF26481021CA
:1009C000012200F09BBA00BF23482021002200F042
:1009D00095BA00BF20482021012200F08FBA00BF45
:1009E0001D484021002200F089BA00BF1A4840216A
:1009F000012200F083BA00BF17488021002200F0D6
:100A00007DBA00BF14488021012200F077BA00BFF0
:100A100011484FF48061002200F070BA0E484FF484
:100A20008061012200F06ABA0B484FF40061002295
:100A300000F064BA08484FF40061012200F05EBA89
:100A400005484FF48051002200F058BA02484FF494
:100A50008051012200F052BA000C0240054880216A
:100A6000002200F04BBA00BF02488021012200F0B2
:100A700045BA00BF001002407047FEE7704772B6EB
:100A8000FEE700002D484068002814BF00680748B2
:100A9000704700BF29480078704700BF274880682A
:100AA000002814BF40680148704700BF2C3500087B
:100AB0002248C068704700BF20480021C0E90111EA
:100AC000C1600170FFF7DEBE1C484068002818BFF7
:100AD000012070470146002071B1184A53685BB984
:100AE000486850B1036843B180B55160002101F0FE
:100AF000F5FF0120BDE8804070470020704700BF2F
:100B00000E484068002818BF01F000BF704700BFC2
:100B10000A49486830B1886820B1CA681AB1013AF8
:100B2000CA6000D0704750F8102F22B10978013107
:100B3000C9B201F0D3BF01F0E9BE00BF1404002028
:100B40004C4A904212D04D4A904212D04D4A9042A7
:100B500012D04E4A904212D04E4A904212D04E4A83
:100B6000904216D14A4800F130020CE0404A16206B
:100B70000AE0414A0E2007E0414A0E2004E0424AC2
:100B8000032001E0424A0220884282BF0801105837
:100B900070470020704700BF80B501200821002267
:100BA00001F02EFCBDE8804001F04ABC80B5012078
:100BB0000921002201F024FCBDE8804001F040BC86
:100BC00080B501200521002201F01AFCBDE880401B
:100BD00001F036BC80B501200721002201F010FC95
:100BE000BDE8804001F02CBC80B501200621002228
:100BF00001F006FCBDE8804001F022BC80B5012078
:100C00000A21002201F0FCFBBDE8804001F018BC85
:100C1000184B984212D0194B984212D0194B984257
:100C200012D01A4B984212D01A4B984212D01A4B3B
:100C300098421BD1164800F130030CE00C4B1620F3
:100C40000AE00D4B0E2007E00D4B0E2004E00E4B8A
:100C5000032001E00E4B0220884207D9002A4FEA08
:100C6000011008BF01221A50012070470020704770
:100C7000A8010020FC3400081803002014350008E7
:100C8000B8000020E4340008700000200835000897
:100C900010000020F03400082035000870B504462C
:100CA000A66D00F031F9054694F83500022829D1E7
:100CB0002068016821F016010160416921F080017E
:100CC0004161216C09B9A16C19B1016821F00801D9
:100CD0000160016821F00101016005E000F014F9F4
:100CE000401B052812D82068006810F0010FF5D1CC
:100CF000E06D3F2101FA00F0B060012084F835007A
:100D0000002008E080206065012004E0202060656C
:100D1000032084F835000021C0B284F8341070BD7F
:100D200090F8351002291FBF8021416501207047CE
:100D3000052180F835100068016821F0010101608B
:100D40000020704770B505466E1C00F0DDF80446C3
:100D50001EB18D480078054401E04FF0FF3500F0EA
:100D6000D3F8001BA842FAD370BD00BF2DE9FC4F99
:100D70005B4A08274FF0010E4FF0030A4FF0000BBB
:100D80004FF00008904208BF0727564A02444FEA36
:100D9000B223072B38BF4FEAB22700970027102F46
:100DA00008BFBDE8FC8F0A680EFA07F4224200F083
:100DB00090804B6803F00302551E012D15D8D0F822
:100DC00008C00AFA08F52CEA050CCD6805FA08F502
:100DD00045EA0C058560C3F3001505FA07FC456874
:100DE000A54345EA0C05456001E0032A1DD0C6680D
:100DF0000AFA08F5022A26EA05068D6805FA08F5BA
:100E000046EA0506C66010D1374D0BF01C020F23D1
:100E1000934005EA57060644356A25EA03030D693F
:100E200005FA02F21A4332624B68056803F00302C6
:100E30000AFA08F613F4403F02FA08F225EA060619
:100E400042EA0602026044D000220192274A136857
:100E500043F480431360126802F48042019227F049
:100E60000302234B019E234D0BF00C0602EB0309FA
:100E70000F2259F805C002FA06FE009A2CEA0E0C61
:100E800002FA06F64FF0010E46EA0C0649F8056034
:100E90009A684E68A24316F4801F18BF224316F4C6
:100EA000001F9A60144A156825EA040518BF2543F7
:100EB00016F4003F15605A6822EA040218BF224364
:100EC00016F4803F5A601A6822EA040218BF2243CF
:100ED0001A600BF1040B08F1020801375FE700BF4D
:100EE000001C02400000FEBFFCFFFF7F44380240B0
:100EF000003C014008FCFFFF0C3C0140002A08BFF9
:100F000009048161704700001F488068704700BF76
:100F10001D480178826811448160704780B50B4894
:100F2000016841F400710160016841F48061016071
:100F3000016841F480710160032000F07DF80F200A
:100F400000F006F800F022F8002080BD003C0240CE
:100F500070B50D4E04464FF47A713078B1FBF0F065
:100F600092490968B1FBF0F000F018FB01250F2C45
:100F700008D838B94FF0FF3021460022002500F094
:100F80002FF87460284670BD0400002082B0002055
:100F900001900B494A6842F480424A604A6802F470
:100FA00080420192019A0090086840F080500860E9
:100FB000086800F080500090009802B0704700BFB1
:100FC00040380240002808DB00F01F0101224009E0
:100FD00002FA01F1014A42F82010704700E100E0F6
:100FE000B0B5144C1A4D00F00F03B0F1FF3FA3F160
:100FF00004032B4403F10C03C8BF03192868C0F392
:101000000220051DC41E80F00700072D4FF00105CA
:1010100038BF0024042828BF042005FA00F0013856
:10102000084005FA04F10F31A040114008430001C7
:101030001870B0BD00E400E005494FF6FF030A68F0
:101040001A4060F30A22034810430860704700BF4B
:101050000CED00E00000FA052DE9F0410446884659
:10106000002C00F08480444FD7F8000400F0070003
:10107000404507D287F80084D7F8000400F0070045
:10108000404574D1206810F0020F11D0410742BFD3
:10109000B96841F4E051B960010742BFB96841F451
:1010A0006041B960B968A26821F0F0011143B960EC
:1010B000C0072BD06068811E022904D2396811F064
:1010C000007F0BD153E0012804D1396811F4003FAF
:1010D00004D14CE0396811F0020F48D0B96821F012
:1010E00003010843B860FFF70FFF064641F2883559
:1010F000B868616800F00C00B0EB810F06D0FFF714
:1011000003FF801BA842F3D9032031E0D7F8000485
:1011100000F00700404507D987F80084D7F800049D
:1011200000F00700404522D1206810F0040F05D0E0
:10113000B968E26821F4E0511143B960000706D5AF
:10114000B868216920F4604040EAC100B86000F04E
:1011500033F8B968094AC1F30311515CC840134917
:10116000086007480068FFF7F3FE002000E0012058
:10117000C0B2BDE8F08100BF00380240CC340008A6
:101180000800002009480B4A006809490968C1F3B2
:101190008221515CC84070470448064A00680449EF
:1011A0000968C1F34231515CC8407047B00000206B
:1011B00008380240DC34000810B5F14C606800F0DB
:1011C0000C0213481349082A04D0042A04BF084615
:1011D00010BD10BD2068236800F03F02206813F4A2
:1011E000800FC0F3881006D109490023A0FB01013C
:1011F000FEF7E6FF02E04843B0FBF2F0216802226E
:10120000C1F3014102EB4101B0FBF1F010BD00BFA1
:101210000024F40000127A002DE9F84F8246BAF15A
:10122000000F00F064819AF80000D44ED44FC0073C
:101230004AD0786800F00C00042807D1306810F418
:10124000003F41D0DAF80400F0BB50E1786800F0CC
:101250000C00082803D1386810F4800FEED1DAF8BA
:101260000480B8F5803F06D03068B8F5A02F13D1C0
:1012700040F480203060306840F480303060FFF708
:1012800043FE0546306810F4003F1DD1FFF73CFED9
:10129000401B6428F6D9C3E020F480303060306809
:1012A00020F480203060FFF72FFE0546B8F1000FD4
:1012B000E8D1306810F4003F06D0FFF725FE411B4F
:1012C00003206429F5D913E19AF80000AD4C80079A
:1012D00031D5786810F00C0F1CD0786800F00C0045
:1012E000082804BF386810F4800F13D0DAF80C0017
:1012F000002800F0978001202060FFF705FE0546DA
:10130000306810F0020F0ED1FFF7FEFD401B0228DF
:10131000F6D985E0306810F0020F1CBFDAF80C0037
:10132000012840F0E4803068DAF8101020F0F8006E
:1013300040EAC10030609AF80000000722D5DAF8D0
:10134000140078B10120C4F8800EFFF7DDFD0546DA
:10135000386F10F0020F15D1FFF7D6FD401B0228A1
:10136000F6D95DE00020C4F8800EFFF7CDFD0546FC
:10137000386F10F0020F05D0FFF7C6FD401B0228A2
:10138000F6D94DE09AF80000A34640077CD5F86BEB
:101390004FF0000810F0805F0CD1CDF800804FF0C6
:1013A0000108F86B40F08050F863F86B00F0805053
:1013B000009000987448305810F4807F12D1724821
:1013C000315841F480713150FFF79EFD05466E485B
:1013D000305810F4807F05D1FFF796FD401B02289E
:1013E000F5D91DE0DAF80890B9F1010F06D0F86ED2
:1013F000B9F1050F27D140F00400F866F86E40F00F
:101400000100F866FFF780FD054641F28834F86E6A
:1014100010F0020F31D1FFF777FD401BA042F6D943
:10142000032065E000202060FFF76EFD0546306870
:1014300010F0020F3FF47FAFFFF766FD411B032062
:101440000229F4D954E020F00100F866F86E20F08B
:101450000400F866FFF758FD0546B9F1000FD4D136
:1014600041F28839F86E10F0020F06D0FFF74CFDFC
:10147000411B03204945F5D93AE0B8F1010F02BFFD
:10148000F86B20F08050F863DAF81840002C72D026
:10149000786800F00C0008282ED1012C27D038687D
:1014A000DAF81C1000F480028A4220D1DAF8201009
:1014B00000F03F028A421AD1DAF8242047F6C071C0
:1014C0000140B1EB821F12D1DAF828104FF6FF72FB
:1014D000C903914300F44032A1F580318A4206D11C
:1014E000DAF82C1000F07060B0EB016F43D00120EF
:1014F000C0B201B0BDE8F08F0020CBF86000FFF76C
:1015000003FD0546022C0BD15C46306810F0007FCD
:1015100011D0FFF7F9FC411B03200229F5D9E7E7B9
:10152000306810F0007F26D0FFF7EEFC411B03204F
:101530000229F5D9DCE70AF11C052FCD0843D903B0
:1015400040EA82104FF6FF72914340EA0560A1F530
:1015500080310843386001202066FFF7D5FC04463F
:10156000306810F0007F06D1FFF7CEFC011B03208E
:101570000229F5D9BCE70020BAE700BF00380240D5
:1015800004380240000047420038FEFF024801686C
:1015900001310160704700BFD8040020411E0020C7
:1015A000B0EB116F1CBF01207047044AF02351605B
:1015B00003490B70072190601160704710E000E054
:1015C00023ED00E0FFF7E2BF704770477047B0B50A
:1015D00004462068C168026901EA0205A90714D51A
:1015E0006FF00201016101212177806910F0030F82
:1015F00003D02046FFF7EAFF05E0204600F074F82C
:10160000204600F072F800202077680715D5206882
:101610006FF00401016102212177806910F4407F9D
:1016200003D02046FFF7D2FF05E0204600F05CF82B
:10163000204600F05AF800202077280715D52068AA
:101640006FF00801016104212177C06910F0030FD8
:1016500003D02046FFF7BAFF05E0204600F044F82B
:10166000204600F042F800202077E80615D52068D3
:101670006FF01001016108212177C06910F4407FEB
:1016800003D02046FFF7A2FF05E0204600F02CF82B
:10169000204600F02AF800202077E80706D02068CE
:1016A0006FF001010161204600F020F8280606D500
:1016B00020686FF0800101612046FFF785FF680612
:1016C00006D520686FF040010161204600F00FF858
:1016D000A80658BFB0BD20686FF020010161204608
:1016E000BDE8B040FFF771BF704770477047704763
:1016F00070477047F8B5044620680168C2684569BC
:1017000001F02F0602F02003202E05D123B1204640
:10171000BDE8F84000F09ABF5FEA017C08D005F010
:10172000010E12F4907F8EF0010557D1002D55D097
:101730001140CA06226B3BD5012A39D10021009104
:1017400001680091416800910099416911F0400FD2
:1017500040F0A580A18DE28DE38D002B00F0198172
:10176000891A89B209B914E1206850E8030F226888
:1017700020F4907042E80303002BF5D1206850E874
:10178000050F226820F0010042E80503002BF5D187
:10179000202084F8420000202063206850E8030FD6
:1017A000226820F0100042E80303002BF5D1D5E0B9
:1017B0000A0640F1BA8094F84110212940F0E980EE
:1017C000A168B1F5805F04BF2169002900F0D380D2
:1017D000216A4A1C226209784160D3E0CE0706D014
:1017E00012F480761EBF666C46F00106666401F056
:1017F0000407012686EA97072F4302BF676C47F06C
:101800000207676401F0020786EA5706354302BF04
:10181000656C45F00405656453EA0E0318BF0123A7
:10182000BCF1000F05D5012B02BF636C43F0080328
:101830006364636C002B00F0AC801140890603D513
:10184000204600F003FF20684069616C00F0400012
:1018500001F00801084300F08880204600F0CFFE28
:101860002068416911F0400F01D16CE0206850E818
:10187000050F216820F0400041E80502002AF5D15B
:10188000E06B00285FD048490165FFF749FA00285E
:1018900000F07F80E06B016DBDE8F8400847E36B26
:1018A00019684D68A28DA9B2002951D091424FD23A
:1018B000E585D969B1F5807F01D130E0206850E835
:1018C000030F216820F4807041E80302002AF5D15B
:1018D000206850E8050F216820F0010041E805026A
:1018E000002AF5D1206850E8050F216820F040005B
:1018F00041E80502002AF5D1202084F842000020AA
:101900002063206850E8030F216820F0100041E8B0
:101910000302002AF5D1E06BFFF7C0F9A28D022087
:101920006063E08D101A81B21AE0490631D5C168B2
:1019300021F04001C160202084F841002046BDE82C
:10194000F84000F048B92046BDE8F840FFF7D1BEA6
:101950008A4204BFD869B0F5807F1AD10220606343
:101960002046BDE8F840FFF7C3BE2046FFF7C1FEA2
:1019700000206064F8BD216A31F8022B6FF35F220A
:1019800042602162E18C4FF6FF7201391142E1841D
:1019900000D0F8BDC16821F08001C160C16841F08C
:1019A0004001C160F8BD00BFF525000810B5044630
:1019B0004CB394F8410028B9002084F84000204638
:1019C00000F024F8242084F841002068C16821F444
:1019D0000051C160204600F09FFE2068016921F49B
:1019E00090410161416921F02A014161C16841F4DE
:1019F0000051C16000202021606484F8411084F807
:101A00004210606310BD012010BD000010B586B00B
:101A1000044601A81421FEF70BFC22682C48D44987
:101A2000F24B9A422DD0E34B9A424ED100220092C3
:101A30004B6943F010034B614B6903F010030093B3
:101A4000009B00920B6843F001030B60096801F0F2
:101A50000101009100994FF4C06101910221CDE98B
:101A60000212032104910721059101A9FFF77EF9D4
:101A7000252000210022FFF7B3FA2520FFF7A2FA64
:101A800023E0002200F5806000920B6943F480237C
:101A90000B610B6903F480230093009B00920B6899
:101AA00043F002030B60096801F002010091009904
:101AB0004FF4406101910221CDE90212032104910A
:101AC0000721059101A9FFF751F906B010BD00BF2C
:101AD0000000024010B590F84230202B07D10124BD
:101AE00031B12AB10024046300F07CFE00E002243E
:101AF000E0B210BD0068AF49884218BF7047B0B56A
:101B0000084D2C4614F8020F00F0CCFF2078214637
:101B10000122287001206870A548FFF7DBFFBDE8AF
:101B2000B0407047100400202DE9F84304461D46DC
:101B30001746884694F8410020281CD1B8F1000FC0
:101B40004FF0010018BF002F42D04FF000092120B4
:101B5000C4F8449084F84100FFF7D6F9A784E784DD
:101B60000646A068B0F5805F07D12769002F0CBF3B
:101B7000C146474618E002202AE0474614E02046C6
:101B8000802132462B4600F046FEE8B9206817B1A6
:101B900017F8011B04E039F8021B00276FF35F21DF
:101BA0004160E08C0138E084E08C0028E7D12046D9
:101BB000402132462B4600F02EFE2021002884F8DA
:101BC000411018BF032003E0202084F841000320C7
:101BD00001B0BDE8F083704710B5104C402120469D
:101BE00000F018FF0E490880088880B16078072847
:101BF0000ED172B6BFF34F8F0A4801680A4A01F44A
:101C0000E06111430160BFF34F8F00BFFDE710BDDE
:101C100009880248BDE8104000F0F8BA940400209A
:101C2000B40700200CED00E00400FA05F0B585B023
:101C30001E4604AB0C460546012710460CA11A4669
:101C40000497FEF701FB049A0A990AB90122049746
:101C50003046FEF7DDFF049A01AE05A1304601F0E3
:101C60009DF928462146324600F03CFC05B0F0BD07
:101C700025750000FEE700002DE9F04F87B0002732
:101C8000DFF8F48000224FF00409069701973848E6
:101C9000016841F004010160016801F00401019153
:101CA00001990197016841F080010160016801F02C
:101CB0008001019101990197016841F002010160E1
:101CC000016801F00201019101990197016841F059
:101CD00010010160016801F0100101910199019763
:101CE000016841F008010160016801F008010191FB
:101CF00001990197016841F0010101600421006828
:101D000000F00100019001981A4D2846C04705F5E2
:101D100040664FF4CF4100224FF4CF4A3046C047CF
:101D200005F500644FF6F84100222046C047DFF871
:101D30004CB00DF10808CDF808904FF00109284685
:101D40004146CDE903970597D84730464146CDE94E
:101D500002A9CDE90477D8474FF6F8404146CDE9CE
:101D600002092046CDE90477D84707B0BDE8F08FD7
:101D70003038024000040240FD0E00086D0D0008DE
:101D800080B50B480B494FF4E13200234FF00C0CA7
:101D900080E80E00C0E90333C0E905C3C361FFF763
:101DA00005FE18B1BDE88040FEF769BE80BD00BFEA
:101DB000240500200010014080B50B480B494FF46A
:101DC000E13200234FF00C0C80E80E00C0E9033331
:101DD000C0E905C3C361FFF7E9FD18B1BDE8804064
:101DE000FEF74DBE80BD00BF6C05002000480040DE
:101DF000FEE7FEE7B0B514460D4601281AD00A28C2
:101E00003AD1FEF761FE002836D1681E112833D87A
:101E1000DFE800F009373D43494F555B61676D735B
:101E2000797F858B9197002C00F09180BDE8B040C0
:101E3000FEF7B8BD681F052888BFB0BDDFE800F019
:101E400003070B0F1317012C17D1EE4812E0012CDA
:101E500013D1EB480EE0012C0FD1E7480AE0012C2A
:101E60000BD1E64806E0012C07D1E24802E0012C44
:101E700003D1DF48FEF72EFEB0BDBDE8B040FEF74F
:101E80003FBE002C67D0BDE8B040FEF797BD002CE8
:101E900065D0BDE8B040FEF79DBD002C63D0BDE825
:101EA000B040FEF7A3BD002C61D0BDE8B040FEF706
:101EB000A9BD002C5FD0BDE8B040FEF7AFBD002C3F
:101EC0005DD0BDE8B040FEF7B5BD002C5BD0BDE8ED
:101ED000B040FEF7BBBD002C59D0BDE8B040FEF7C6
:101EE00055BD002C57D0BDE8B040FEF7C5BC002C56
:101EF00055D0BDE8B040FEF7F3BC002C53D0BDE890
:101F0000B040FEF737BD002C51D0BDE8B040FEF721
:101F1000FFBC002C4FD0BDE8B040FEF707BD002C41
:101F20004DD0BDE8B040FEF7E7BC002C4BD0BDE87B
:101F3000B040FEF707BD002C49D0BDE8B040FEF729
:101F40000DBD002C47D0BDE8B040FEF78DBDBDE80B
:101F5000B040FEF721BDBDE8B040FEF729BDBDE8A9
:101F6000B040FEF731BDBDE8B040FEF739BDBDE879
:101F7000B040FEF741BDBDE8B040FEF749BDBDE849
:101F8000B040FEF751BDBDE8B040FEF759BDBDE819
:101F9000B040FEF7F5BCBDE8B040FEF767BCBDE859
:101FA000B040FEF797BCBDE8B040FEF7DDBCBDE831
:101FB000B040FEF7A7BCBDE8B040FEF7B1BCBDE83D
:101FC000B040FEF793BCBDE8B040FEF7B5BCBDE83D
:101FD000B040FEF7BDBCBDE8B040FEF73FBD00BF5E
:101FE0002DE9F8430E460A99DFF8F08091463C4C03
:101FF0001D460127012301F00F02090901EB8101B0
:1020000002EB4101C8F8001000F00F010009009731
:1020100000EB800001EB400208200121A0473109BC
:1020200006F00F000123009701EB810100EB410254
:1020300008200221A047290905F00F00012300977D
:1020400001EB810100EB410208200321A04700972A
:102050000123089800F00F01000900EB800001EB5C
:10206000400208200421A04700970123099800F0AE
:102070000F01000900EB800001EB40020820052160
:10208000A047D8F800200820062101230097A04788
:102090004FEA191109F00F0001EB810100EB41003B
:1020A000062888BFBDE8F883DFE800F00406080AC8
:1020B0000C0E100017A20AE014A208E011A206E01C
:1020C0000EA204E00BA202E008A200E005A2082094
:1020D0000721BDE8F84300F005BA00BFB4000020B6
:1020E00075240008D0C7C6DAC1F90000D0C7C6DA27
:1020F000CEE50000D0C7C6DACBC40000D0C7C6DA30
:10210000C8FD0000D0C7C6DAB6FE0000D0C7C6DAE8
:10211000D2BB0000D0C7C6DAC8D5000007490128E5
:10212000088018BF704780B5FEF7CEFC0028BDE8D8
:10213000804008BF00F084B9704700BFD40400207D
:10214000E0B50438052852D8DFE800F003101D2A56
:102150003744C81F80B2152849D85D4B01F1F900FA
:10216000C0B200900420FFF761FD8CBDC81F80B293
:102170000D283CD8584B01F1F900C0B20090052061
:10218000FFF754FD8CBDC81F80B20D282FD8534BCC
:1021900001F1F900C0B200900620FFF747FD8CBDA9
:1021A000C81F80B2022822D84D4B01F1F900C0B2FD
:1021B00000900720FFF73AFD8CBDC81F80B20128B0
:1021C00015D8484B01F1F900C0B200900820FFF784
:1021D0002DFD8CBDC81F80B2012888BF8CBD424B2D
:1021E00001F1F900C0B200900920FFF71FFD8CBD7E
:1021F00020350008F034000808350008E4340008F1
:1022000014350008FC340008704700004178B129FB
:1022100019D0F72930D11FB5DFF868C09CF802004B
:102220009CF803109CF804209CF805309CF806E00C
:102230009CF807409CF808C0CDE900E4CDF808C040
:10224000FFF7CEFE1FBDB0F8031009BA0B0C817862
:10225000012904BF1846FFF761BFB0F80510C27925
:1022600009BA112A4FEA114107D0102A18BF704746
:10227000427A1846FFF7BEBD704700F108021846C3
:10228000FFF75EBF9404002010B51149114C0420E3
:1022900007221623A0471049052007220E23A04736
:1022A0000E49062007220E23A0470D4907200722CA
:1022B0000323A0470B49082007220223A0470A490D
:1022C000092007220223A446BDE81040604700BF52
:1022D000FC340008ED22000814350008E43400083E
:1022E00008350008F0340008203500082DE9FF47C4
:1022F0001C4690468A460746002601AD0FF22C097F
:10230000B44208BFBDE8FF87F1B25046FEF718FCA3
:1023100002462846494600F041FE08EB06002A46E0
:1023200081B2384600F0DEF80136E9E7256C750029
:10233000704700002248002100220170602A08BF77
:10234000704783180C32C3E90111D960F6E700BF6A
:1023500080B5DFF86CC0864600209CF80030072B63
:1023600088BF80BD03EB43020CEB8202C2E901E1AE
:10237000D060581C8CF80000012080BD70B50F485B
:102380000F4E002504683078E9B2814228BF70BD45
:10239000480050FA85F006EB8000406860B101EB20
:1023A000410106EB81018A682AB151F80C3FE31A1A
:1023B000934201D30C6080470135E4E7D804002044
:1023C000300400201CB5084C8DF807000DF1070102
:1023D000012214232046FFF7A7FB2068016811F0B3
:1023E000400FFBD01CBD00BF2405002010B50446E3
:1023F00002E0FFF7E7FF013420780028F9D110BD93
:10240000F8B5494F0646EE2014460D46B847B120B0
:10241000B8471020B847300AB847F0B2B847280A82
:10242000B847E8B2B8472046B847FF20B847FC2075
:10243000B847FF20B847FF203946BDE8F8400847B5
:10244000B0B5084D08A201200D21A847084C012075
:102450000E212246A84701200F2122462B46BDE827
:10246000B0401847E5240008BFD5CFD000000000D9
:10247000853500082DE9F0412B4E0746EE201D461C
:1024800014468846B047B120B0470720B047380A05
:10249000B047F8B2B0474FEA1820B0475FFA88F06B
:1024A000B047002D18BF01252846B047069840F0D8
:1024B000800000F08F00B047200EB047C4F3074003
:1024C000B047C4F30720B047E0B2B047FF20B047A1
:1024D000FC20B047FF20B047FF203146BDE8F04167
:1024E000084700BFF8B5104F0646EE2014460D46CB
:1024F000B847B120B8471020B847300AB847F0B203
:10250000B847280AB847E8B2B8472046FFF76EFF39
:10251000FF20B847FC20B847FF20B847FF203946C6
:10252000BDE8F840084700BFC523000880B5FEF7A6
:10253000EFFCBDE88040FFF745B80000B0B592B0B1
:10254000002401A81421CDE90A44CDE90844FDF78F
:102550006FFE009402251E48016841F08051016021
:10256000006800F0805000900098009419480168BD
:1025700041F480410160A821006800F4804000908F
:102580000098012006904FF4803007904FF48000AF
:102590000C950D9004200E90CDE90F15119006A812
:1025A000FEF73AFE08B172B6FEE70F200521CDE92D
:1025B00001054FF4A050039404904FF4805005900F
:1025C00001A8FEF749FD08B172B6FEE712B0B0BD32
:1025D00040380240007000400248016841F4700138
:1025E0000160704788ED00E00148FEF7F0BF00BFD2
:1025F000DC040020806B0021C185FFF77AB80168F8
:1026000051E8031F026821F4907142E80313002B84
:10261000F5D1016851E8051F026821F0010142E887
:102620000513002BF5D1016B012909D1016851E88F
:10263000031F026821F0100142E80313002BF5D1BB
:10264000202180F8421000210163704790F8421069
:10265000222918BF70478368B3F5805F06D10269ED
:1026600000F12801A2B1D1F800C008E00146002B1A
:1026700051F828CF01D103690BB17F2300E0FF237C
:10268000026852681A4001238CF800200A6806E0AC
:102690000368826A5B686FF35F23138002231A4426
:1026A0000A604FF6FF72C18D01391142C18500D019
:1026B00070470168CA6822F02002CA60CA6822F422
:1026C0008072CA604A6922F001024A61202280F8C1
:1026D000422000224263036B012B18BFFFF70ABAA6
:1026E000026351E8031F026821F0100142E803135E
:1026F0000168002BF5D10A6812F0100F08D081B0E4
:10270000002200920A68009249680091009901B085
:10271000818DFEF7EDBF0000B0B5044649F20C65AF
:1027200020680169E26821F4405111430161D4F845
:1027300008C0D4E90423D4F81CE0C16842EA0C02C2
:10274000A9431A4342EA0E021143C1604169A269DA
:1027500021F440711143416140F480602049884276
:1027600002D1FEF719FD01E0FEF70CFDE269636896
:102770001921A0FB0101B2F5004F16D15A00DB0F61
:10278000FDF71EFD64216FF06303B0FBF1F202FB65
:102790000300322303EBC000B0FBF1F14FF4F870FB
:1027A00000EA410001F0070113E09A009B0FFDF7DA
:1027B00007FD64216FF06303B0FBF1F202FB03003D
:1027C000322303EB0010B0FBF1F101F0F00001F057
:1027D0000F0100EB0210084321688860B0BD00BF04
:1027E00000140140816200218285C285416422215A
:1027F00080F842100168006918B1C86840F4807020
:10280000C860486940F001004861C86840F0200095
:10281000C860002070472DE9FC4104461D469046E3
:102820000F4620686E1C01683940B94226D0002E40
:10283000F9D0FEF769FB03210DB3A0EB0800A84215
:102840001DD82068C16811F0040F18BF402FEAD0CE
:10285000802F1CBF016811F0080FE4D000250195FE
:10286000016801914068019001982046FFF7C7FE7A
:1028700008200121606484F8405000E00021C8B2C3
:1028800002B0BDE8F08100005348FEF733BF00BF3F
:10289000B0B58CB017480088012828D1FEF714F98C
:1028A000012824D1FEF7EEF8134D024601200D2138
:1028B000A847FEF7EFF80446FEF7F0F8631C04ACF7
:1028C00000900EA22021204600F050FB01200E2196
:1028D0002246A847FEF7ECF801AC034609A20C21FA
:1028E000204600F043FB01200F212246A8470CB0F0
:1028F000B0BD00BFD4040020E524000825642E25C7
:1029000073000000256C7500FEE7000010B57D4CDB
:10291000A06808B100F010FBFDF7B4FF606810B1CB
:10292000806800B180470020C4E90100E0602070A9
:1029300010BD00BFE0B50190044801A901224FF08D
:10294000FF33FFF7F1F8019802B080BD6C0500205D
:10295000F8B5FEF7E3FAFFF7F1FDFFF78DF9FFF7A2
:102960000FFAFFF729FAFEF787F800F0ADF84FF4F9
:102970009670FEF7E7F9184818490122FFF7AAF800
:1029800017A000F071FDFEF797F8FFF7D3FC17488A
:10299000174CC821A047174800210025A04716481A
:1029A0004FF47A71A04740F6B830FEF7CBF9FFF745
:1029B0006BFC124808210022FEF7A0FA104E114FBE
:1029C00011A4FFF7DBFC30780028FAD035702046E0
:1029D000397800F0BBFAF4E7240500201204002047
:1029E000697320636F6E6E6563740D009128000833
:1029F00051230008D91B0008110B0008000C0240ED
:102A0000110400201004002072783A20253032583A
:102A10000D0A00002DE9F041DFF8BCE0DFF8A480EA
:102A20000022BEF80230BEF8047003F5007CBCB290
:102A3000ACEB0405EE1705EBD65606F47E46AD1B4F
:102A40002D0428D09C421D461FBF18F804207D1C71
:102A50006FF35F25AEF80450BEF80060D4B2EE2CE0
:102A600002D0002E2F46E2D08E423FBF771CAEF838
:102A7000007082553E46DEF8087044EA0724CEF81E
:102A80000840074FBC422F46D1D10020CEF80800A5
:102A9000AEF8000000E00026B0B2BDE8F08100BF53
:102AA000FFFFFCFFDFF830C0BCF80220BCF80410C8
:102AB000531C6FF35F238B421EBF02498854ACF84E
:102AC00002307047B4050020034800218180418016
:102AD00081600180704700BF2404002070B5094E5A
:102AE00004460D46B06818B1A04218BF00F024FAA1
:102AF000B46035702068F060A06810B1BDE8704027
:102B0000004770BD140400207047704780B5FDF782
:102B1000E7FEBDE88040FDF7AFBE80B5FDF7DAFE09
:102B2000BDE88040FDF7A2BE70477047FDF776BF55
:102B3000FDF76EBF80B5FDF71DFFBDE88040FDF7D6
:102B4000CFBE704780B5FDF72DFFFDF743FFBDE811
:102B50008040FDF7F7BE80B5FDF71EFFFDF734FF9F
:102B6000BDE88040FDF7E8BE7047704780B5FDF7CF
:102B700019FFFDF72FFFBDE88040FDF7E3BE80B5EC
:102B8000FDF70AFFFDF720FFBDE88040FDF7D4BE4A
:102B90007047704780B5FDF711FFFDF71BFFBDE8DB
:102BA0008040FDF7CFBE80B5FDF702FFFDF70CFFBB
:102BB000BDE88040FDF7C0BE7047704780B5FDF7A7
:102BC000FDFEFDF707FFBDE88040FDF7BBBE80B509
:102BD000FDF7EEFEFDF7F8FEBDE88040FDF7ACBE68
:102BE000704780B5FDF7C0FEBDE88040FDF772BEBE
:102BF0007047704780B5FDF799FEBDE88040FDF74E
:102C00007BBE80B5FDF78CFEBDE88040FDF76EBE53
:102C100080B5FDF7AFFEBDE88040FDF761BE80B531
:102C2000FDF7A2FEBDE88040FDF754BE7047704737
:102C3000FDF7F4BEFDF7ECBE80B5FDF79BFEBDE8E9
:102C40008040FDF74DBE704780B5FDF7B7FEFDF73C
:102C5000C1FEBDE88040FDF775BE80B5FDF7A8FE5A
:102C6000FDF7B2FEBDE88040FDF766BE70477047D5
:102C700080B5FDF7A3FEFDF7ADFEBDE88040FDF792
:102C800061BE80B5FDF794FEFDF79EFEBDE8804075
:102C9000FDF752BE704780B5FDF766FEBDE8804087
:102CA000FDF718BE7047704780B5FDF763FEBDE8BD
:102CB0008040FDF715BE80B5FDF756FEBDE88040AB
:102CC000FDF708BE7047704780B5FDF753FEBDE8BD
:102CD0008040FDF705BE704780B5FDF763FEFDF748
:102CE00079FEBDE88040FDF72DBE80B5FDF754FEAE
:102CF000FDF76AFEBDE88040FDF71EBE70477047D5
:102D000080B5FDF74FFEFDF765FEBDE88040FDF79D
:102D100019BE80B5FDF740FEFDF756FEBDE88040C8
:102D2000FDF70ABE7047704780B5FDF747FEFDF717
:102D300051FEBDE88040FDF705BE80B5FDF738FEC9
:102D4000FDF742FEBDE88040FDF7F6BD70477047D5
:102D500080B5FDF733FEFDF73DFEBDE88040FDF791
:102D6000F1BD80B5FDF724FEFDF72EFEBDE88040E5
:102D7000FDF7E2BD704780B5FDF7F6FDBDE8804088
:102D8000FDF7A8BD7047704780B5FDF7CFFDBDE8E2
:102D90008040FDF7B1BD80B5FDF7C2FDBDE88040C4
:102DA000FDF7A4BD80B5FDF7E5FDBDE88040FDF76A
:102DB00097BD80B5FDF7D8FDBDE88040FDF78ABD21
:102DC0007047704780B5FDF7B1FDBDE88040FDF765
:102DD00093BD80B5FDF7A4FDBDE88040FDF786BD3D
:102DE00080B5FDF7C7FDBDE88040FDF779BD80B532
:102DF000FDF7BAFDBDE88040FDF76CBD7047704738
:102E0000FDF70CBEFDF704BE80B5FDF7B3FDBDE8D0
:102E10008040FDF765BD704780B5FDF7C3FDFDF748
:102E2000D9FDBDE88040FDF78DBD80B5FDF7B4FD4F
:102E3000FDF7CAFDBDE88040FDF77EBD70477047D5
:102E400080B5FDF7AFFDFDF7C5FDBDE88040FDF79E
:102E500079BD80B5FDF7A0FDFDF7B6FDBDE880406A
:102E6000FDF76ABD7047704780B5FDF7A7FDFDF718
:102E7000B1FDBDE88040FDF765BD80B5FDF798FD6B
:102E8000FDF7A2FDBDE88040FDF756BD70477047D5
:102E900080B5FDF793FDFDF79DFDBDE88040FDF792
:102EA00051BD80B5FDF784FDFDF78EFDBDE8804086
:102EB000FDF742BD704780B5FDF756FDBDE8804087
:102EC000FDF708BD7047704780B5FDF72FFDBDE8E1
:102ED0008040FDF711BD80B5FDF722FDBDE88040C3
:102EE000FDF704BD80B5FDF745FDBDE88040FDF769
:102EF000F7BC80B5FDF738FDBDE88040FDF7EABCC2
:102F00007047704780B5FDF765FDFDF71BFDFDF7C8
:102F10006DFDFDF78FFDBDE88040FDF72BBD80B551
:102F2000FDF752FDFDF708FDFDF75AFDFDF77CFDAD
:102F3000BDE88040FDF718BD0348806810B1C06847
:102F400000B10047704700BF140400200FB4054BC8
:102F500010B503A9044A029800F044F810BC5DF8CB
:102F600014FB000035290008000000200FB41CB538
:102F70000246002007AC00290BD0491ECDE90021F4
:102F8000054B6A462146069800F02CF8009A00216D
:102F900011701CBC5DF814FB473400080FB4084BDB
:102FA00010B504A902AA039800F01CF8044602A96F
:102FB000002000F053FA204610BC5DF814FB00001E
:102FC0005D34000802E008C8121F08C1002AFAD1C7
:102FD00070477047002001E001C1121F002AFBD199
:102FE000704700002DE9FF4F8DB00F4605460026C3
:102FF00006E025280BD0DDE90F1290476D1C761CEA
:1030000028780028F5D111B03046BDE8F08F0024B3
:10301000A246A1460122EC4900E0044315F8013F15
:10302000203B02FA03F00842F7D128782A2810D072
:103030006FF02F022878A0F13001092914D80AEB8B
:103040008A0102EB410144F0020400EB010A6D1C0D
:10305000F0E701CF5FEA000A03D544F40054CAF157
:10306000000A44F002046D1C28782E2817D115F8A8
:10307000010F44F004042A280ED06FF02F022878A4
:10308000A0F1300109290AD809EB890102EB4101BD
:1030900000EB01096D1CF2E757F8049B6D1C2878C2
:1030A0006C280FD006DC4C2817D068280DD06A2871
:1030B00014D104E0742810D07A280FD10DE044F424
:1030C00000140AE044F4801401E044F440146978E8
:1030D000814202D104F580146D1C6D1C2A786E2A81
:1030E0001FD00CDC632A31D004DC002A8BD0582A94
:1030F00011D1A3E0642A68D0692A0CD165E0732A53
:103100002ED004DC6F2A73D0702A04D19BE0752A7C
:103110006FD0782A6ED01046DDE90F129047761CEA
:1031200050E1C4F30250022806D0032809D0042835
:1031300001CF09D0066045E101CFF117C0E9006178
:1031400040E101CF06803DE106703BE117F8040B3A
:103150008DF8000000208DF80100EB46012003E00F
:1031600057F804BB4FF0FF3061074FF0000102D465
:103170000DE008F10101884649450FDA8045F8DB8A
:103180001BF808100029F4D108E008F10101884675
:103190008142FADB1BF808100029F6D1DDE90F2384
:1031A000AAEB08008146214600F036F9304400EBD6
:1031B000080604E0DDE90F121BF8010B9047B8F197
:1031C0000108F7D221464846F7E00A21C4F302532A
:1031D0004FF0000B0891022B04D001CFC117032B35
:1031E00009D00AE0FF1D27F00707F7E8020108E011
:1031F00032E01FE020E000B2C117042B01D140B241
:10320000C117031E71F1000307DA4FF0000CD0EB79
:103210000C006CEB01012D2302E0230504D52B23C8
:103220008DF82430012303E0E30701D02023F7E7E2
:10323000984658E00A2110E010210EE010204FF0CF
:10324000000B08900CE010214FF0000B44F0040438
:103250004FF00809089103E008214FF0000B089196
:10326000C4F30253022B04D001CF0021032B06D05C
:1032700006E0FF1D27F00707F7E8020103E080B230
:10328000042B00D1C0B24FF0000823072BD5702AC1
:1032900007D0DDF820C08CF0100C5CEA0B0C05D0D8
:1032A0000EE040238DF82430012308E050EA0103AA
:1032B00006D030238DF824308DF82520022398463F
:1032C000DDF820C08CF0080C5CEA0B0C0BD150EA46
:1032D000010301D1630706D530238DF824304FF068
:1032E0000108A9F10109582A04D038A20B9208AAB2
:1032F0000A920BE03AA2F9E75B46089AFCF760FFF6
:103300000B9B9B5C0A9A521E0A92137050EA0102B0
:10331000F2D10A98ADEB000000F1200B600702D556
:1033200024F4803401E04FF00109D94502DDA9EB16
:103330000B0000E0002000EB0B0141440890AAEBD9
:10334000010AE00306D4DDE90F232146504600F0D0
:1033500063F806444FF0000908E009A911F80900D4
:10336000DDE90F12904709F10109761CC145F4DB34
:10337000E0030CD5DDE90F232146504600F04CF860
:10338000064404E0DDE90F1230209047761C0899CE
:10339000481E08900029F5DC08E00A980A99007890
:1033A000491C0A91DDE90F129047761CBBF1000120
:1033B000ABF1010BF1DC21465046DDE90F2300F0B3
:1033C00019F806446D1C1BE6092801003031323320
:1033D0003435363738396162636465660000000051
:1033E000303132333435363738394142434445463B
:1033F000000000002DE9F041044600251E46174656
:10340000880404D405E039462020B0476D1C641EB2
:10341000F9D52846BDE8F0812DE9F04104460025A4
:103420001E469046C80301D5302700E020278804B7
:1034300004D505E041463846B0476D1C641EF9D5F9
:103440002846BDE8F0814A68002A06D00A68531C65
:103450000B6010704868401E486070470A68531C33
:103460000B6010707047000010B5044601E0FFF7D4
:1034700061FA14F8010B04490028F8D1BDE81040A6
:103480000A20FFF757BA000000000020DDDDDDDD77
:10349000DCBBBBDDDDDDDDDDDDDDDDDD98888888E5
:1034A000888888887777777777888888855555568C
:1034B00066666666666666666668888883333332E3
:1034C00022222222222222222228888D000000008D
:1034D00000000000010203040607080900000000C4
:1034E0000102030443350008B8000020990B0008CE
:1034F0007835000810000020AD0B00083A350008B0
:10350000A8010020C10B00087335000870000020DE
:10351000D50B00083135000818030020E90B00081E
:103520006135000840000020FD0B0008BFD5CFD05A
:1035300000D0A1B1E3B3E5CFB400B4F3B1E3B3E598
:10354000CFB400C7E5CFB400C7BFB3E9CEDB00CF2F
:10355000C2C5E7B3E9CEDB00D6D0C5E7B3E9CEDB21
:1035600000D5E6BFD5CFE4D7D4C7E5BDE000C5AFF1
:10357000B7E700B8C9D4EF00C7E5BDE0BFD5C6F8CE
:1035800000B5C8B4FD000000B03500080000002000
:103590001004000014080008A037000810040020E0
:1035A000A8070000D42F0008000000000000000061
:1035B000413201721032051381351408092B1B08A2
:1035C0000B04323C1A78101A0D0C1A1B04011069F6
:1035D0003013012F1B080304321E1A61101A050C48
:1035E0001A1F0409163013C12D1B08C304235802E7
:1035F0001A6E101AC50C1AD30429201A5C101AE18D
:103600000C1AEF0401113B24F4B069481A29941AEA
:103610002B0429101A48101A2D0C1A31045A0F487D
:103620001A350C5A43101A58101A450C1A57045AD6
:103630000A201A690C5A6B4029201A6D0C9A7F4097
:103640001A910C5A93301A4F101A950C9AA7401AD7
:10365000B90C5ABB4029201ABD0C5ACF1039C819D1
:103660000C1AE3045A14B01AF10C1AF30469F81A8C
:10367000F50C8B032C301A110C1A1F04011069F081
:103680001A2D1C5A2F3029F01A310C1A350469B042
:103690001A390C1A470469B01A490C5A5B102920D0
:1036A0001A6D0C5A6F4029201A710C9A83801A9552
:1036B0000C5A971029701AA50C9AA7201AA90C9ACF
:1036C000B7201AC50C9AC7801AC90C5AD7101A58B5
:1036D000101AD90C9AEB801AFD0C5AFF40292013BE
:1036E000012D1B08130469401A250C1A270469C010
:1036F0001A290C5A3B1029201A4D0C1A4F0469C084
:103700001A510C5A631029201A750C1A77045A148E
:10371000A01A850C1A87042358021A6E101A890CF5
:103720009A97301AA50C1AB304011069E01AFD1C0F
:103730005AFF302A48B01A2E0C190469B01A090C25
:103740001A1704294129D01A190C1A2B0469B01A26
:103750003D0C2A3F3459201A410C9A53401A650CEB
:103760005A673029D01A690C9A7B401A8D0C5A8FEF
:103770004029201A910C5AA31029201AB50C1AB707
:103780000469F01AC50C1AC70469F01AC90C9AD753
:10379000301AE50C1AF304011800000000000000C4
:040000050800018965
:00000001FF
