:020000040800F2
:10000000B80B00209D010008831D0008051C000896
:10001000811D00087B0A00081B2800080000000062
:10002000000000000000000000000000ED220008B9
:100030007D0A000800000000C5210008B524000862
:10004000B7010008B7010008B7010008B7010008B0
:10005000B7010008B7010008B7010008B7010008A0
:10006000B7010008B7010008B7010008B701000890
:10007000B7010008B7010008B7010008B701000880
:10008000B7010008B7010008B7010008B701000870
:10009000B7010008B7010008B7010008B701000860
:1000A000B7010008B7010008B7010008B701000850
:1000B000B7010008B7010008B7010008B701000840
:1000C000B7010008B7010008B7010008B701000830
:1000D000B701000811280008B7010008B70100089F
:1000E000B7010008B7010008B7010008B701000810
:1000F000B7010008B7010008B7010008B701000800
:10010000B7010008B7010008B7010008B7010008EF
:10011000B7010008B701000871250008B701000801
:10012000B7010008B7010008B7010008B7010008CF
:10013000B7010008B7010008B7010008B7010008BF
:10014000B7010008B7010008B7010008B7010008AF
:10015000B7010008B7010008B7010008B70100089F
:10016000B7010008B7010008B7010008B70100088F
:10017000B7010008B7010008B7010008000000003F
:10018000B7010008B7010008DFF80CD000F080F9D3
:100190000048004761280008B80B00200648804747
:1001A00006480047FEE7FEE7FEE7FEE7FEE7FEE75C
:1001B000FEE7FEE7FEE7FEE761250008890100088B
:1001C0002DE9F05F0546002092469B46884606468C
:1001D000814640241BE0284641464746224600F01F
:1001E00004F953465A46C01A914110D31146184695
:1001F000224600F0EBF82D1A67EB01084F46224625
:100200000120002100F0E2F817EB00094E41201E0A
:10021000A4F10104DFDC484631462A464346BDE8E6
:10022000F09FD2B201E000F8012B491EFBD27047CB
:100230000022F6E710B513460A4604461946FFF7B2
:10024000F0FF204610BD00000FB400B58DB010A91E
:1002500009900B9000914FF0FF300A9000200C9015
:1002600005480690054807906A4609A80F9900F0CE
:10027000E1F80DB05DF814FB510400086F040008AC
:100280002DE9FF5F1D464FF0FF3BD5E90146914642
:100290005F464FF00008A9697F1C01988847296ACA
:1002A000824688470028F6D1BAF1FF3F0CD024F4EB
:1002B000C064002E19DD600614D5BAF12B0F09D0E9
:1002C000BAF12D0F0ED103E0584604B0BDE8F09FFF
:1002D00044F48064A9697F1C01988847761E824691
:1002E000002E02DDBAF1300F03D0B9F1000F26D095
:1002F00032E0A969761E44F400747F1C0198884797
:100300008246002E05DDBAF1780F06D0BAF1580FFB
:1003100003D0B9F1000F10D01EE0B9F1000F02D0E8
:10032000B9F1100F18D1A969761E24F400747F1C4E
:10033000019888478246102002E0082000E00A2049
:10034000814609E008FB0908A969761E44F4007497
:100350007F1C019888478246002E05DD494650469D
:1003600000F053F80028EDDAE96901988847A00504
:1003700002D46FF00100A8E7E00725D1600613D58D
:10038000600502D5C8F1000000E0404629680A1D5A
:100390002A600968220501D5087015E0220701D5F9
:1003A000088011E008600FE02868011D29600068DE
:1003B000210502D580F8008006E0210702D5A0F8CB
:1003C000008001E0C0F8008038467EE7202A04DB88
:1003D000203A00FA02F1002070479140C2F1200358
:1003E00020FA03F3194390407047202A04DB203A97
:1003F00021FA02F00021704721FA02F3D040C2F145
:10040000200291400843194670473A2800D23038FC
:1004100020F02002412A01D3A2F13700884201D303
:100420004FF0FF30704700000268114413780160FC
:1004300018467047D1600449516104491162002196
:100440001161114600F03CB829040008B504000809
:10045000426842B1016811F8013B23B1521EC0E964
:100460000012184670470121C160881E704742681B
:100470005AB1C368016843B983688B4205D0491EED
:10048000521CC0E90012002070474FF0FF30704747
:10049000064C074D06E0E06840F0010394E80700D1
:1004A00098471034AC42F6D3FFF772FE4C34000884
:1004B0006C340008C0B24FF4F05100F097B900005E
:1004C0002DE9F34F8BB04FF0000801F10C000C4602
:1004D0004FF0010B46460DF1080A019062690121B7
:1004E00001989047051E2DD0252D2CD0216A8847D4
:1004F000C0B16269012101989047216A88470028AC
:10050000F7D1411E62690198904700E0761CA1690D
:100510000B988847216A88470028F7D1E1690B9832
:100520008847DBE7A1690B9888470746A84201D1B5
:10053000761CD3E7E1690B9888477F1C02D1B8F19C
:10054000000F6FD046E1002762693D4639460198A9
:1005500090472A2804D1626901210198904701251A
:10056000DFF884926269012101989047A0F130017F
:100570000A290AD24F45E5DC07EB870100EB41076A
:10058000303FDFD445F01005ECE7E90601D46FF009
:1005900000476C280AD04C2814D0682815D06A2847
:1005A0000DD074281CD07A281AD01DE06269012170
:1005B000019890476C2802D045F0040514E045F0FE
:1005C00002050DE045F020050AE06269012101986D
:1005D0009047682802D045F0080505E045F400651D
:1005E0006269012101989047C4E9015765283DD00F
:1005F00019DC58287AD00CDC452837D004DC2528B3
:1006000026D0412831D131E046282FD047282CD19F
:100610002CE05B2877D0612828D063287CD0642820
:1006200023D15AE0D0E06F2848D008DC66281DD0DE
:1006300067281BD0692821D06E2816D127E07028A2
:1006400045D0732868D0752847D078280DD14DE063
:10065000A1690B988847054625283FF469AFE169F1
:100660000B9888476D1C3FF46AAFB3E023466A4697
:100670006FF001000B99AFF300809EE045F0400061
:100680006060A80723464FF0000236D43EE0E8073A
:100690007FF447AF2068011D21600068290501D55E
:1006A00006701BE7290701D5068017E7A90703D5C0
:1006B000F117C0E9006111E706600FE745F040005F
:1006C0006060A80723464FF0080216D41EE040F6EB
:1006D0000E0125EA0100606016E045F04000606010
:1006E000A80723464FF00A0207D40FE045F0400068
:1006F0006060A80708D5234610226FF001000B990F
:10070000AFF3008059E007E0234610226FF00100AC
:100710000B99FFF7B5FD50E04FF000094F464B46EF
:10072000632802D05B2806D040E0E80601D401200F
:10073000A06001273AE062690121019890475E2894
:1007400005D14FF001096269494601989047216936
:1007500039B900210A46534643F82120491C08298B
:10076000FADBB0B3216969B9C11700EBD16253114B
:100770000AEB830122F01F02821A01200B689040CD
:1007800003430B6062690121019890475D28E8D11D
:10079000B9F1000F09D00020514651F82020D24372
:1007A00041F82020401C0828F7DB02AB22460097C6
:1007B0006FF001000B99AFF3008000280CDA401CA9
:1007C00008D1BBF1000F05D04FF0FF300DB0BDE8F0
:1007D000F08FFFE74046F9E7E90701D108F101088A
:1007E00006444FF0000B79E6CCCCCC0C7F2801D925
:1007F000002208E0064A02EB5002C007127800D13E
:10080000120902F00F0201209040084070470000DA
:100810005433000870B58C1810F8015B15F007030D
:1008200001D110F8013B2A1106D110F8012B03E089
:1008300010F8016B01F8016B5B1EF9D12B0705D491
:100840000023521E0DD401F8013BFAE710F8013BDA
:10085000CB1A921C03E013F8015B01F8015B521EF6
:10086000F9D5A142D8D3002070BD00007A484FF4DA
:100870008041002200F00ABB77484FF480410122FA
:1008800000F004BB80B500F087F800F091F800F0AC
:100890009BF800F0A5F800F0AFF800F0B9F800F010
:1008A000C3F800F0CDF800F06BF800F045F800F068
:1008B0004FF800F027F800F057F8FFF7D7FF00F0E7
:1008C0002FF800F013F800F0C9F8BDE8804000F000
:1008D00001B8000060484FF40041002200F0D6BA91
:1008E0005D484FF40041012200F0D0BA61484FF456
:1008F0008061002200F0CABA5E484FF48061012294
:1009000000F0C4BA05480421002200F0BFBA00BFBD
:1009100002480421012200F0B9BA00BF00040240DD
:1009200054484FF40071002200F0B0BA51484FF41F
:100930000071012200F0AABA4E484FF40051002283
:1009400000F0A4BA4B484FF40051012200F09EBAC7
:1009500048484FF48041002200F098BA45484FF4CF
:100960008041012200F092BA42484FF48071002287
:1009700000F08CBA3F484FF48071012200F086BA33
:1009800035484FF40051002200F080BA32484FF44D
:100990000051012200F07ABA2F480821002200F00D
:1009A00075BA00BF2C480821012200F06FBA00BFC1
:1009B00029481021002200F069BA00BF2648102102
:1009C000012200F063BA00BF23482021002200F07A
:1009D0005DBA00BF20482021012200F057BA00BFB5
:1009E0001D484021002200F051BA00BF1A484021A2
:1009F000012200F04BBA00BF17488021002200F00E
:100A000045BA00BF14488021012200F03FBA00BF60
:100A100011484FF48061002200F038BA0E484FF4BC
:100A20008061012200F032BA0B484FF400610022CD
:100A300000F02CBA08484FF40061012200F026BAF9
:100A400005484FF48051002200F020BA02484FF4CC
:100A50008051012200F01ABA000C024005488021A2
:100A6000002200F013BA00BF02488021012200F0EA
:100A70000DBA00BF001002407047FEE7704772B623
:100A8000FEE7000020480021C0E90111C1600170AB
:100A9000FFF7F8BE1C484068002818BF01207047C7
:100AA0000146002071B1184A53685BB9486850B1DB
:100AB000036843B180B55160002101F097FF012028
:100AC000BDE8804070470020704700BF0E48406876
:100AD000002818BF01F0A2BE704700BF0A4948684D
:100AE00030B1886820B1CA681AB1013ACA6000D032
:100AF000704750F8102F22B109780131C9B201F0C6
:100B000075BF01F08BBE00BF140400203D4A904227
:100B100012D03E4A904212D03E4A904212D03F4AF2
:100B2000904212D03F4A904212D03F4A904216D192
:100B30003B4800F130020CE0314A16200AE0324A0C
:100B40000E2007E0324A0E2004E0334A032001E081
:100B5000334A0220884282BF0801105870470020A3
:100B6000704700BF01200821002201F027BC0120AE
:100B70000921002201F022BC01200521002201F000
:100B80001DBC01200721002201F018BC0120062114
:100B9000002201F013BC01200A21002201F00EBC4A
:100BA000184B984212D0194B984212D0194B9842C8
:100BB00012D01A4B984212D01A4B984212D01A4BAC
:100BC00098421BD1164800F130030CE00C4B162064
:100BD0000AE00D4B0E2007E00D4B0E2004E00E4BFB
:100BE000032001E00E4B0220884207D9002A4FEA79
:100BF000011008BF01221A500120704700207047E1
:100C0000A8010020C433000818030020DC330008CA
:100C1000B8000020AC33000870000020D03300087A
:100C200010000020B8330008E833000870B504460F
:100C3000A66D00F031F9054694F83500022829D157
:100C40002068016821F016010160416921F08001EE
:100C50004161216C09B9A16C19B1016821F0080149
:100C60000160016821F00101016005E000F014F964
:100C7000401B052812D82068006810F0010FF5D13C
:100C8000E06D3F2101FA00F0B060012084F83500EA
:100C9000002008E080206065012004E020206065DD
:100CA000032084F835000021C0B284F8341070BDF0
:100CB00090F8351002291FBF80214165012070473F
:100CC000052180F835100068016821F001010160FC
:100CD0000020704770B505466E1C00F0DDF8044634
:100CE0001EB18D480078054401E04FF0FF3500F05B
:100CF000D3F8001BA842FAD370BD00BF2DE9FC4F0A
:100D00005B4A08274FF0010E4FF0030A4FF0000B2B
:100D10004FF00008904208BF0727564A02444FEAA6
:100D2000B223072B38BF4FEAB22700970027102FB6
:100D300008BFBDE8FC8F0A680EFA07F4224200F0F3
:100D400090804B6803F00302551E012D15D8D0F892
:100D500008C00AFA08F52CEA050CCD6805FA08F572
:100D600045EA0C058560C3F3001505FA07FC4568E4
:100D7000A54345EA0C05456001E0032A1DD0C6687D
:100D80000AFA08F5022A26EA05068D6805FA08F52A
:100D900046EA0506C66010D1374D0BF01C020F2342
:100DA000934005EA57060644356A25EA03030D69B0
:100DB00005FA02F21A4332624B68056803F0030237
:100DC0000AFA08F613F4403F02FA08F225EA06068A
:100DD00042EA0602026044D000220192274A1368C8
:100DE00043F480431360126802F48042019227F0BA
:100DF0000302234B019E234D0BF00C0602EB03096B
:100E00000F2259F805C002FA06FE009A2CEA0E0CD1
:100E100002FA06F64FF0010E46EA0C0649F80560A4
:100E20009A684E68A24316F4801F18BF224316F436
:100E3000001F9A60144A156825EA040518BF254367
:100E400016F4003F15605A6822EA040218BF2243D4
:100E500016F4803F5A601A6822EA040218BF22433F
:100E60001A600BF1040B08F1020801375FE700BFBD
:100E7000001C02400000FEBFFCFFFF7F4438024020
:100E8000003C014008FCFFFF0C3C0140002A08BF69
:100E900009048161704700001F488068704700BFE7
:100EA0001D480178826811448160704780B50B4805
:100EB000016841F400710160016841F480610160E2
:100EC000016841F480710160032000F07DF80F207B
:100ED00000F006F800F022F8002080BD003C02403F
:100EE00070B50D4E04464FF47A713078B1FBF0F0D6
:100EF00092490968B1FBF0F000F018FB01250F2CB6
:100F000008D838B94FF0FF3021460022002500F004
:100F10002FF87460284670BD0400002082B00020C5
:100F200001900B494A6842F480424A604A6802F4E0
:100F300080420192019A0090086840F08050086059
:100F4000086800F080500090009802B0704700BF21
:100F500040380240002808DB00F01F010122400950
:100F600002FA01F1014A42F82010704700E100E066
:100F7000B0B5144C1A4D00F00F03B0F1FF3FA3F1D0
:100F800004032B4403F10C03C8BF03192868C0F302
:100F90000220051DC41E80F00700072D4FF001053B
:100FA00038BF0024042828BF042005FA00F00138C7
:100FB000084005FA04F10F31A04011400843000138
:100FC0001870B0BD00E400E005494FF6FF030A6861
:100FD0001A4060F30A22034810430860704700BFBC
:100FE0000CED00E00000FA052DE9F04104468846CA
:100FF000002C00F08480444FD7F8000400F0070074
:10100000404507D287F80084D7F8000400F00700B5
:10101000404574D1206810F0020F11D0410742BF43
:10102000B96841F4E051B960010742BFB96841F4C1
:101030006041B960B968A26821F0F0011143B9605C
:10104000C0072BD06068811E022904D2396811F0D4
:10105000007F0BD153E0012804D1396811F4003F1F
:1010600004D14CE0396811F0020F48D0B96821F082
:1010700003010843B860FFF70FFF064641F28835C9
:10108000B868616800F00C00B0EB810F06D0FFF784
:1010900003FF801BA842F3D9032031E0D7F80004F6
:1010A00000F00700404507D987F80084D7F800040E
:1010B00000F00700404522D1206810F0040F05D051
:1010C000B968E26821F4E0511143B960000706D520
:1010D000B868216920F4604040EAC100B86000F0BF
:1010E00033F8B968094AC1F30311515CC840134988
:1010F000086007480068FFF7F3FE002000E00120C9
:10110000C0B2BDE8F08100BF00380240943300084F
:101110000800002009480B4A006809490968C1F322
:101120008221515CC84070470448064A006804495F
:101130000968C1F34231515CC8407047B0000020DB
:1011400008380240A433000810B5F14C606800F084
:101150000C0213481349082A04D0042A04BF084685
:1011600010BD10BD2068236800F03F02206813F412
:10117000800FC0F3881006D109490023A0FB0101AC
:10118000FFF71EF802E04843B0FBF2F021680222AC
:10119000C1F3014102EB4101B0FBF1F010BD00BF12
:1011A0000024F40000127A002DE9F84F8246BAF1CB
:1011B000000F00F064819AF80000D44ED44FC007AD
:1011C0004AD0786800F00C00042807D1306810F489
:1011D000003F41D0DAF80400F0BB50E1786800F03D
:1011E0000C00082803D1386810F4800FEED1DAF82B
:1011F0000480B8F5803F06D03068B8F5A02F13D131
:1012000040F480203060306840F480303060FFF778
:1012100043FE0546306810F4003F1DD1FFF73CFE49
:10122000401B6428F6D9C3E020F480303060306879
:1012300020F480203060FFF72FFE0546B8F1000F44
:10124000E8D1306810F4003F06D0FFF725FE411BBF
:1012500003206429F5D913E19AF80000AD4C80070A
:1012600031D5786810F00C0F1CD0786800F00C00B5
:10127000082804BF386810F4800F13D0DAF80C0087
:10128000002800F0978001202060FFF705FE05464A
:10129000306810F0020F0ED1FFF7FEFD401B022850
:1012A000F6D985E0306810F0020F1CBFDAF80C00A8
:1012B000012840F0E4803068DAF8101020F0F800DF
:1012C00040EAC10030609AF80000000722D5DAF841
:1012D000140078B10120C4F8800EFFF7DDFD05464B
:1012E000386F10F0020F15D1FFF7D6FD401B022812
:1012F000F6D95DE00020C4F8800EFFF7CDFD05466D
:10130000386F10F0020F05D0FFF7C6FD401B022812
:10131000F6D94DE09AF80000A34640077CD5F86B5B
:101320004FF0000810F0805F0CD1CDF800804FF036
:101330000108F86B40F08050F863F86B00F08050C3
:10134000009000987448305810F4807F12D1724891
:10135000315841F480713150FFF79EFD05466E48CB
:10136000305810F4807F05D1FFF796FD401B02280E
:10137000F5D91DE0DAF80890B9F1010F06D0F86E42
:10138000B9F1050F27D140F00400F866F86E40F07F
:101390000100F866FFF780FD054641F28834F86EDB
:1013A00010F0020F31D1FFF777FD401BA042F6D9B4
:1013B000032065E000202060FFF76EFD05463068E1
:1013C00010F0020F3FF47FAFFFF766FD411B0320D3
:1013D0000229F4D954E020F00100F866F86E20F0FC
:1013E0000400F866FFF758FD0546B9F1000FD4D1A7
:1013F00041F28839F86E10F0020F06D0FFF74CFD6D
:10140000411B03204945F5D93AE0B8F1010F02BF6D
:10141000F86B20F08050F863DAF81840002C72D096
:10142000786800F00C0008282ED1012C27D03868ED
:10143000DAF81C1000F480028A4220D1DAF8201079
:1014400000F03F028A421AD1DAF8242047F6C07130
:101450000140B1EB821F12D1DAF828104FF6FF726B
:10146000C903914300F44032A1F580318A4206D18C
:10147000DAF82C1000F07060B0EB016F43D001205F
:10148000C0B201B0BDE8F08F0020CBF86000FFF7DC
:1014900003FD0546022C0BD15C46306810F0007F3E
:1014A00011D0FFF7F9FC411B03200229F5D9E7E72A
:1014B000306810F0007F26D0FFF7EEFC411B0320C0
:1014C0000229F5D9DCE70AF11C052FCD0843D90321
:1014D00040EA82104FF6FF72914340EA0560A1F5A1
:1014E00080310843386001202066FFF7D5FC0446B0
:1014F000306810F0007F06D1FFF7CEFC011B0320FF
:101500000229F5D9BCE70020BAE700BF0038024045
:1015100004380240000047420038FEFF02480168DC
:1015200001310160704700BFD4040020411E00203B
:10153000B0EB116F1CBF01207047044AF0235160CB
:1015400003490B70072190601160704710E000E0C4
:1015500023ED00E0FFF7E2BF704770477047B0B57A
:1015600004462068C168026901EA0205A90714D58A
:101570006FF00201016101212177806910F0030FF2
:1015800003D02046FFF7EAFF05E0204600F074F89C
:10159000204600F072F800202077680715D52068F3
:1015A0006FF00401016102212177806910F4407F0E
:1015B00003D02046FFF7D2FF05E0204600F05CF89C
:1015C000204600F05AF800202077280715D520681B
:1015D0006FF00801016104212177C06910F0030F49
:1015E00003D02046FFF7BAFF05E0204600F044F89C
:1015F000204600F042F800202077E80615D5206844
:101600006FF01001016108212177C06910F4407F5B
:1016100003D02046FFF7A2FF05E0204600F02CF89B
:10162000204600F02AF800202077E80706D020683E
:101630006FF001010161204600F020F8280606D570
:1016400020686FF0800101612046FFF785FF680682
:1016500006D520686FF040010161204600F00FF8C8
:10166000A80658BFB0BD20686FF020010161204678
:10167000BDE8B040FFF771BF7047704770477047D3
:1016800070477047F8B5044620680168C26845692C
:1016900001F02F0602F02003202E05D123B12046B1
:1016A000BDE8F84000F096BF5FEA017C08D005F085
:1016B000010E12F4907F8EF0010557D1002D55D008
:1016C0001140CA06226B3BD5012A39D10021009175
:1016D00001680091416800910099416911F0400F43
:1016E00040F0A580A18DE28DE38D002B00F01981E3
:1016F000891A89B209B914E1206850E8030F2268F9
:1017000020F4907042E80303002BF5D1206850E8E4
:10171000050F226820F0010042E80503002BF5D1F7
:10172000202084F8420000202063206850E8030F46
:10173000226820F0100042E80303002BF5D1D5E029
:101740000A0640F1BA8094F84110212940F0E9805E
:10175000A168B1F5805F04BF2169002900F0D38042
:10176000216A4A1C226209784160D3E0CE0706D084
:1017700012F480761EBF666C46F00106666401F0C6
:101780000407012686EA97072F4302BF676C47F0DC
:101790000207676401F0020786EA5706354302BF75
:1017A000656C45F00405656453EA0E0318BF012318
:1017B000BCF1000F05D5012B02BF636C43F0080399
:1017C0006364636C002B00F0AC801140890603D584
:1017D000204600F0FFFE20684069616C00F0400088
:1017E00001F00801084300F08880204600F0CBFE9D
:1017F0002068416911F0400F01D16CE0206850E889
:10180000050F216820F0400041E80502002AF5D1CB
:10181000E06B00285FD048490165FFF749FA0028CE
:1018200000F07F80E06B016DBDE8F8400847E36B96
:1018300019684D68A28DA9B2002951D091424FD2AA
:10184000E585D969B1F5807F01D130E0206850E8A5
:10185000030F216820F4807041E80302002AF5D1CB
:10186000206850E8050F216820F0010041E80502DA
:10187000002AF5D1206850E8050F216820F04000CB
:1018800041E80502002AF5D1202084F8420000201A
:101890002063206850E8030F216820F0100041E821
:1018A0000302002AF5D1E06BFFF7C0F9A28D0220F8
:1018B0006063E08D101A81B21AE0490631D5C16823
:1018C00021F04001C160202084F841002046BDE89D
:1018D000F84000F048B92046BDE8F840FFF7D1BE17
:1018E0008A4204BFD869B0F5807F1AD102206063B4
:1018F0002046BDE8F840FFF7C3BE2046FFF7C1FE13
:1019000000206064F8BD216A31F8022B6FF35F227A
:1019100042602162E18C4FF6FF7201391142E1848D
:1019200000D0F8BDC16821F08001C160C16841F0FC
:101930004001C160F8BD00BF7D25000810B5044618
:101940004CB394F8410028B9002084F840002046A8
:1019500000F024F8242084F841002068C16821F4B4
:101960000051C160204600F09BFE2068016921F40F
:1019700090410161416921F02A014161C16841F44E
:101980000051C16000202021606484F8411084F877
:101990004210606310BD012010BD000010B586B07C
:1019A000044601A81421FEF743FC22682C48D449C0
:1019B000F24B9A422DD0E34B9A424ED10022009234
:1019C0004B6943F010034B614B6903F01003009324
:1019D000009B00920B6843F001030B60096801F063
:1019E0000101009100994FF4C06101910221CDE9FC
:1019F0000212032104910721059101A9FFF77EF945
:101A0000252000210022FFF7B3FA2520FFF7A2FAD4
:101A100023E0002200F5806000920B6943F48023EC
:101A20000B610B6903F480230093009B00920B6809
:101A300043F002030B60096801F002010091009974
:101A40004FF4406101910221CDE90212032104917A
:101A50000721059101A9FFF751F906B010BD00BF9C
:101A60000000024010B590F84230202B07D101242D
:101A700031B12AB10024046300F078FE00E00224B2
:101A8000E0B210BD0068AF49884218BF7047B0B5DA
:101A9000084D2C4614F8020F00F08CFF20782146E8
:101AA0000122287001206870A548FFF7DBFFBDE820
:101AB000B0407047100400202DE9F84304461D464D
:101AC0001746884694F8410020281CD1B8F1000F31
:101AD0004FF0010018BF002F42D04FF00009212025
:101AE000C4F8449084F84100FFF7D6F9A784E7844E
:101AF0000646A068B0F5805F07D12769002F0CBFAC
:101B0000C146474618E002202AE0474614E0204636
:101B1000802132462B4600F042FEE8B9206817B11A
:101B200017F8011B04E039F8021B00276FF35F214F
:101B30004160E08C0138E084E08C0028E7D1204649
:101B4000402132462B4600F02AFE2021002884F84E
:101B5000411018BF032003E0202084F84100032037
:101B600001B0BDE8F083704710B5104C402120460D
:101B700000F0D8FE0E490880088880B160780728F8
:101B80000ED172B6BFF34F8F0A4801680A4A01F4BA
:101B9000E06111430160BFF34F8F00BFFDE710BD4F
:101BA00009880248BDE8104000F00EBB94040020F4
:101BB000B00700200CED00E00400FA05F0B585B098
:101BC0001E4604AB0C460546012710460CA11A46DA
:101BD0000497FEF739FB049A0A990AB9012204977F
:101BE0003046FEF7DDFF049A01AE05A1304601F054
:101BF00045F928462146324600F038FC05B0F0BDD4
:101C000025750000FEE700002DE9F04F87B00027A2
:101C1000DFF8F48000224FF0040906970197384856
:101C2000016841F004010160016801F004010191C3
:101C300001990197016841F080010160016801F09C
:101C40008001019101990197016841F00201016051
:101C5000016801F00201019101990197016841F0C9
:101C600010010160016801F01001019101990197D3
:101C7000016841F008010160016801F0080101916B
:101C800001990197016841F0010101600421006898
:101C900000F00100019001981A4D2846C04705F553
:101CA00040664FF4CF4100224FF4CF4A3046C04740
:101CB00005F500644FF6F84100222046C047DFF8E2
:101CC0004CB00DF10808CDF808904FF001092846F6
:101CD0004146CDE903970597D84730464146CDE9BF
:101CE00002A9CDE90477D8474FF6F8404146CDE93F
:101CF00002092046CDE90477D84707B0BDE8F08F48
:101D000030380240000402408D0E0008FD0C00082F
:101D100080B50B480B494FF4E13200234FF00C0C17
:101D200080E80E00C0E90333C0E905C3C361FFF7D3
:101D300005FE18B1BDE88040FEF7A1BE80BD00BF22
:101D4000200500200010014080B50B480B494FF4DE
:101D5000E13200234FF00C0C80E80E00C0E90333A1
:101D6000C0E905C3C361FFF7E9FD18B1BDE88040D4
:101D7000FEF785BE80BD00BF68050020004800401A
:101D8000FEE7FEE7B0B514460D4601281AD00A2832
:101D90003AD1FEF77FFE002836D1681E112833D8CD
:101DA000DFE800F009373D43494F555B61676D73CC
:101DB000797F858B9197002C00F09180BDE8B04031
:101DC000FEF7F0BD681F052888BFB0BDDFE800F052
:101DD00003070B0F1317012C17D1C94812E0012C70
:101DE00013D1C6480EE0012C0FD1F4480AE0012CB3
:101DF0000BD1F34806E0012C07D1EF4802E0012C9B
:101E000003D1EC48FEF74CFEB0BDBDE8B040FEF794
:101E10005DBE002C67D0BDE8B040FEF7CFBD002C02
:101E200065D0BDE8B040FEF7D5BD002C63D0BDE85D
:101E3000B040FEF7DBBD002C61D0BDE8B040FEF73E
:101E4000E1BD002C5FD0BDE8B040FEF7E7BD002C3F
:101E50005DD0BDE8B040FEF7EDBD002C5BD0BDE825
:101E6000B040FEF7F3BD002C59D0BDE8B040FEF7FE
:101E70008DBD002C57D0BDE8B040FEF7FDBC002C56
:101E800055D0BDE8B040FEF72BBD002C53D0BDE8C7
:101E9000B040FEF76FBD002C51D0BDE8B040FEF75A
:101EA00037BD002C4FD0BDE8B040FEF73FBD002C41
:101EB0004DD0BDE8B040FEF71FBD002C4BD0BDE8B3
:101EC000B040FEF73FBD002C49D0BDE8B040FEF762
:101ED00045BD002C47D0BDE8B040FEF7C5BDBDE80C
:101EE000B040FEF759BDBDE8B040FEF761BDBDE8AA
:101EF000B040FEF769BDBDE8B040FEF771BDBDE87A
:101F0000B040FEF779BDBDE8B040FEF781BDBDE849
:101F1000B040FEF789BDBDE8B040FEF791BDBDE819
:101F2000B040FEF72DBDBDE8B040FEF79FBCBDE858
:101F3000B040FEF7CFBCBDE8B040FEF715BDBDE830
:101F4000B040FEF7DFBCBDE8B040FEF7E9BCBDE83D
:101F5000B040FEF7CBBCBDE8B040FEF7EDBCBDE83D
:101F6000B040FEF7F5BCBDE8B040FEF777BD00BF5E
:101F70002DE9F8430E460A99DFF8F08091463C4C73
:101F80001D460127012301F00F02090901EB810120
:101F900002EB4101C8F8001000F00F0100090097A2
:101FA00000EB800001EB400208200121A04731092D
:101FB00006F00F000123009701EB810100EB4102C5
:101FC00008200221A047290905F00F0001230097EE
:101FD00001EB810100EB410208200321A04700979B
:101FE0000123089800F00F01000900EB800001EBCD
:101FF000400208200421A04700970123099800F01F
:102000000F01000900EB800001EB400208200521D0
:10201000A047D8F800200820062101230097A047F8
:102020004FEA191109F00F0001EB810100EB4100AB
:10203000062888BFBDE8F883DFE800F00406080A38
:102040000C0E100017A20AE014A208E011A206E08C
:102050000EA204E00BA202E008A200E005A2082004
:102060000721BDE8F84300F001BA00BFB40000202A
:10207000FD230008D0C7C6DAC1F90000D0C7C6DA10
:10208000CEE50000D0C7C6DACBC40000D0C7C6DAA0
:10209000C8FD0000D0C7C6DAB6FE0000D0C7C6DA59
:1020A000D2BB0000D0C7C6DAC8D500000438052866
:1020B00088BF7047DFE800F003090C12181B734952
:1020C00004200722162300F0EFB87249052001E032
:1020D0007149062007220E2300F0E6B86F49072059
:1020E0000722032300F0E0B86D49082001E06D49A4
:1020F00009200722022300F0D7B800BFDC33000814
:10210000C4330008E0B50438052852D8DFE800F0F1
:1021100003101D2A3744C81F80B2152849D85B4BCD
:1021200001F1F900C0B200900420FFF747FD8CBD1B
:10213000C81F80B20D283CD8564B01F1F900C0B23F
:1021400000900520FFF73AFD8CBDC81F80B20D2816
:102150002FD8514B01F1F900C0B200900620FFF7D3
:102160002DFD8CBDC81F80B2022822D84B4B01F137
:10217000F900C0B200900720FFF720FD8CBDC81FFA
:1021800080B2012815D8464B01F1F900C0B2009089
:102190000820FFF713FD8CBDC81F80B2012888BF3F
:1021A0008CBD404B01F1F900C0B200900920FFF74F
:1021B00005FD8CBDE8330008B8330008D0330008B3
:1021C000AC330008704700004178B12919D0F729D5
:1021D00030D11FB5DFF868C09CF802009CF80310EE
:1021E0009CF804209CF805309CF806E09CF8074019
:1021F0009CF808C0CDE900E4CDF808C0FFF7B8FEB0
:102200001FBDB0F8031009BA0B0C8178012904BF77
:102210001846FFF74BBFB0F80510C27909BA112A6A
:102220004FEA114107D0102A18BF7047427A18466A
:10223000FFF7A8BD704700F108021846FFF762BF1C
:102240009404002010B51149114C042007221623D4
:10225000A0471049052007220E23A0470E4906205B
:1022600007220E23A0470D49072007220323A0477A
:102270000B49082007220223A0470A490920072208
:102280000223A446BDE81040604700BFC4330008E5
:10229000A9220008DC330008AC330008D033000862
:1022A000B8330008E83300082DE9FF471C46904684
:1022B0008A460746002601AD0FF22C09B44208BF3A
:1022C000BDE8FF87F1B25046FEF720FC02462846E3
:1022D000494600F0D3FD08EB06002A4681B2384695
:1022E00000F0C4F80136E9E7256C7500704700007E
:1022F0002248002100220170602A08BF704783181D
:102300000C32C3E90111D960F6E700BF80B5DFF8F0
:102310006CC0864600209CF80030072B88BF80BD2B
:1023200003EB43020CEB8202C2E901E1D060581CCE
:102330008CF80000012080BD70B50F480F4E0025BD
:1023400004683078E9B2814228BF70BD480050FA75
:1023500085F006EB8000406860B101EB410106EBBF
:1023600081018A682AB151F80C3FE31A934201D3E4
:102370000C6080470135E4E7D404002030040020DD
:102380001CB5084C8DF807000DF10701012214233C
:102390002046FFF791FB2068016811F0400FFBD049
:1023A0001CBD00BF2005002010B5044602E0FFF769
:1023B000E7FF013420780028F9D110BDF8B53C4F73
:1023C0000646EE2014460D46B847B120B847102007
:1023D000B847300AB847F0B2B847280AB847E8B259
:1023E000B8472046B847FF20B847FC20B847FF2031
:1023F000B847FF203946BDE8F84008472DE9F041CD
:102400002B4E0746EE201D4614468846B047B120A5
:10241000B0470720B047380AB047F8B2B0474FEA94
:102420001820B0475FFA88F0B047002D18BF01258B
:102430002846B047069840F0800000F08F00B04773
:10244000200EB047C4F30740B047C4F30720B0479D
:10245000E0B2B047FF20B047FC20B047FF20B047B4
:10246000FF203146BDE8F041084700BFF8B5104FE6
:102470000646EE2014460D46B847B120B847102056
:10248000B847300AB847F0B2B847280AB847E8B2A8
:10249000B8472046FFF788FFFF20B847FC20B84721
:1024A000FF20B847FF203946BDE8F840084700BF85
:1024B0008123000880B5FEF7F3FCBDE88040FFF7FC
:1024C00049B80000B0B592B0002401A81421CDE9AC
:1024D0000A44CDE90844FDF7ABFE009402251E48EE
:1024E000016841F080510160006800F08050009068
:1024F000009800941948016841F480410160A821C6
:10250000006800F4804000900098012006904FF48D
:10251000803007904FF480000C950D9004200E90B1
:10252000CDE90F15119006A8FEF73EFE08B172B670
:10253000FEE70F200521CDE901054FF4A0500394DB
:1025400004904FF48050059001A8FEF74DFD08B1AE
:1025500072B6FEE712B0B0BD4038024000700040D5
:102560000248016841F470010160704788ED00E0A5
:102570000148FEF7F4BF00BFD8040020806B0021A3
:10258000C185FFF77EB8016851E8031F026821F496
:10259000907142E80313002BF5D1016851E8051F43
:1025A000026821F0010142E80513002BF5D1016B0F
:1025B000012909D1016851E8031F026821F01001C7
:1025C00042E80313002BF5D1202180F842100021AE
:1025D0000163704790F84210222918BF7047836842
:1025E000B3F5805F06D1026900F12801A2B1D1F8EC
:1025F00000C008E00146002B51F828CF01D1036943
:102600000BB17F2300E0FF23026852681A400123C8
:102610008CF800200A6806E00368826A5B686FF342
:102620005F23138002231A440A604FF6FF72C18DA4
:1026300001391142C18500D070470168CA6822F093
:102640002002CA60CA6822F48072CA604A6922F015
:1026500001024A61202280F8422000224263036B7B
:10266000012B18BFFFF70EBA026351E8031F02687F
:1026700021F0100142E803130168002BF5D10A682C
:1026800012F0100F08D081B0002200920A68009268
:1026900049680091009901B0818DFEF7F1BF0000FB
:1026A000B0B5044649F20C6520680169E26821F47E
:1026B000405111430161D4F808C0D4E90423D4F88F
:1026C0001CE0C16842EA0C02A9431A4342EA0E0226
:1026D0001143C1604169A26921F440711143416114
:1026E00040F480602049884202D1FEF71DFD01E0E0
:1026F000FEF710FDE26963681921A0FB0101B2F544
:10270000004F16D15A00DB0FFDF75AFD64216FF020
:102710006303B0FBF1F202FB0300322303EBC000C2
:10272000B0FBF1F14FF4F87000EA410001F007014D
:1027300013E09A009B0FFDF743FD64216FF06303E4
:10274000B0FBF1F202FB0300322303EB0010B0FBFD
:10275000F1F101F0F00001F00F0100EB021008436D
:1027600021688860B0BD00BF001401408162002173
:102770008285C2854164222180F842100168006987
:1027800018B1C86840F48070C860486940F0010022
:102790004861C86840F02000C860002070472DE9FB
:1027A000FC4104461D4690460F4620686E1C016899
:1027B0003940B94226D0002EF9D0FEF76DFB032137
:1027C0000DB3A0EB0800A8421DD82068C16811F025
:1027D000040F18BF402FEAD0802F1CBF016811F0F2
:1027E000080FE4D00025019501680191406801902F
:1027F00001982046FFF7C7FE08200121606484F895
:10280000405000E00021C8B202B0BDE8F0810000F5
:102810003548FEF737BF00BF7047FEE710B57D4C67
:10282000A06808B100F010FBFEF72CF8606810B14A
:10283000806800B180470020C4E90100E06020709A
:1028400010BD00BFE0B50190044801A901224FF07E
:10285000FF33FFF731F9019802B080BD6805002011
:10286000F8B5FEF723FBFFF72DFEFFF7CDF9FFF7D5
:102870004FFAFFF769FAFEF7FFF800F0ADF84FF4F2
:102880009670FEF727FA184818490122FFF7EAF870
:1028900017A000F04DFDFEF7F5F8FFF729FD1748EA
:1028A000174CC821A047174800210025A04716480B
:1028B0004FF47A71A04740F6B830FEF70BFAFFF7F5
:1028C000C1FC124808210022FEF7E0FA104E114F19
:1028D00011A4FFF731FD30780028FAD0357020467A
:1028E000397800F0BBFAF4E720050020120400203C
:1028F000697320636F6E6E6563740D00192800089C
:102900000D230008691B0008DD0A0008000C0240C6
:10291000110400201004002072783A20253032582B
:102920000D0A00002DE9F041DFF8BCE0DFF8A480DB
:102930000022BEF80230BEF8047003F5007CBCB281
:10294000ACEB0405EE1705EBD65606F47E46AD1B40
:102950002D0428D09C421D461FBF18F804207D1C62
:102960006FF35F25AEF80450BEF80060D4B2EE2CD1
:1029700002D0002E2F46E2D08E423FBF771CAEF829
:10298000007082553E46DEF8087044EA0724CEF80F
:102990000840074FBC422F46D1D10020CEF8080096
:1029A000AEF8000000E00026B0B2BDE8F08100BF44
:1029B000FFFFFCFFDFF830C0BCF80220BCF80410B9
:1029C000531C6FF35F238B421EBF02498854ACF83F
:1029D00002307047B005002003480021818041800B
:1029E00081600180704700BF2404002070B5094E4B
:1029F00004460D46B06818B1A04218BF00F024FA92
:102A0000B46035702068F060A06810B1BDE8704017
:102A1000004770BD140400207047704780B5FDF773
:102A20005FFFBDE88040FDF727BF80B5FDF752FF8F
:102A3000BDE88040FDF71ABF70477047FDF7EEBF55
:102A4000FDF7E6BF80B5FDF795FFBDE88040FDF7D7
:102A500047BF704780B5FDF7A5FFFDF7BBFFBDE899
:102A60008040FDF76FBF80B5FDF796FFFDF7ACFF27
:102A7000BDE88040FDF760BF7047704780B5FDF747
:102A800091FFFDF7A7FFBDE88040FDF75BBF80B574
:102A9000FDF782FFFDF798FFBDE88040FDF74CBFD2
:102AA0007047704780B5FDF789FFFDF793FFBDE8DC
:102AB0008040FDF747BF80B5FDF77AFFFDF784FF43
:102AC000BDE88040FDF738BF7047704780B5FDF71F
:102AD00075FFFDF77FFFBDE88040FDF733BF80B590
:102AE000FDF766FFFDF770FFBDE88040FDF724BFEE
:102AF000704780B5FDF738FFBDE88040FDF7EABEBE
:102B00007047704780B5FDF711FFBDE88040FDF7C5
:102B1000F3BE80B5FDF704FFBDE88040FDF7E6BEDB
:102B200080B5FDF727FFBDE88040FDF7D9BE80B531
:102B3000FDF71AFFBDE88040FDF7CCBE7047704737
:102B4000FDF76CBFFDF764BF80B5FDF713FFBDE86F
:102B50008040FDF7C5BE704780B5FDF72FFFFDF73C
:102B600039FFBDE88040FDF7EDBE80B5FDF720FFE1
:102B7000FDF72AFFBDE88040FDF7DEBE70477047D5
:102B800080B5FDF71BFFFDF725FFBDE88040FDF791
:102B9000D9BE80B5FDF70CFFFDF716FFBDE88040FC
:102BA000FDF7CABE704780B5FDF7DEFEBDE8804088
:102BB000FDF790BE7047704780B5FDF7DBFEBDE8BE
:102BC0008040FDF78DBE80B5FDF7CEFEBDE88040AC
:102BD000FDF780BE7047704780B5FDF7CBFEBDE8BE
:102BE0008040FDF77DBE704780B5FDF7DBFEFDF749
:102BF000F1FEBDE88040FDF7A5BE80B5FDF7CCFE37
:102C0000FDF7E2FEBDE88040FDF796BE70477047D5
:102C100080B5FDF7C7FEFDF7DDFEBDE88040FDF79E
:102C200091BE80B5FDF7B8FEFDF7CEFEBDE8804051
:102C3000FDF782BE7047704780B5FDF7BFFEFDF718
:102C4000C9FEBDE88040FDF77DBE80B5FDF7B0FE52
:102C5000FDF7BAFEBDE88040FDF76EBE70477047D5
:102C600080B5FDF7ABFEFDF7B5FEBDE88040FDF792
:102C700069BE80B5FDF79CFEFDF7A6FEBDE880406D
:102C8000FDF75ABE704780B5FDF76EFEBDE8804087
:102C9000FDF720BE7047704780B5FDF747FEBDE8E1
:102CA0008040FDF729BE80B5FDF73AFEBDE88040C3
:102CB000FDF71CBE80B5FDF75DFEBDE88040FDF769
:102CC0000FBE80B5FDF750FEBDE88040FDF702BEA7
:102CD0007047704780B5FDF729FEBDE88040FDF7DD
:102CE0000BBE80B5FDF71CFEBDE88040FDF7FEBDC4
:102CF00080B5FDF73FFEBDE88040FDF7F1BD80B532
:102D0000FDF732FEBDE88040FDF7E4BD7047704737
:102D1000FDF784BEFDF77CBE80B5FDF72BFEBDE858
:102D20008040FDF7DDBD704780B5FDF73BFEFDF748
:102D300051FEBDE88040FDF705BE80B5FDF72CFED5
:102D4000FDF742FEBDE88040FDF7F6BD70477047D5
:102D500080B5FDF727FEFDF73DFEBDE88040FDF79D
:102D6000F1BD80B5FDF718FEFDF72EFEBDE88040F1
:102D7000FDF7E2BD7047704780B5FDF71FFEFDF718
:102D800029FEBDE88040FDF7DDBD80B5FDF710FEF2
:102D9000FDF71AFEBDE88040FDF7CEBD70477047D5
:102DA00080B5FDF70BFEFDF715FEBDE88040FDF791
:102DB000C9BD80B5FDF7FCFDFDF706FEBDE880400E
:102DC000FDF7BABD704780B5FDF7CEFDBDE8804088
:102DD000FDF780BD7047704780B5FDF7A7FDBDE8E2
:102DE0008040FDF789BD80B5FDF79AFDBDE88040C4
:102DF000FDF77CBD80B5FDF7BDFDBDE88040FDF76A
:102E00006FBD80B5FDF7B0FDBDE88040FDF762BD48
:102E10007047704780B5FDF7DDFDFDF793FDFDF7C9
:102E2000E5FDFDF707FEBDE88040FDF7A3BD80B5D9
:102E3000FDF7CAFDFDF780FDFDF7D2FDFDF7F4FDBE
:102E4000BDE88040FDF790BD0348806810B1C068C0
:102E500000B10047704700BF140400200FB4054BB9
:102E600010B503A9044A029800F02CF810BC5DF8D4
:102E700014FB000045280008000000200FB4084B98
:102E800010B504A902AA039800F01CF8044602A990
:102E9000002000F048FA204610BC5DF814FB00004A
:102EA0002733000802E008C8121F08C1002AFAD11F
:102EB00070477047002001E001C1121F002AFBD1BA
:102EC000704700002DE9FF4F8DB00F4605460026E4
:102ED00006E025280BD0DDE90F1290476D1C761C0B
:102EE00028780028F5D111B03046BDE8F08F0024D5
:102EF000A246A1460122EC4900E0044315F8013F37
:102F0000203B02FA03F00842F7D128782A2810D093
:102F10006FF02F022878A0F13001092914D80AEBAC
:102F20008A0102EB410144F0020400EB010A6D1C2E
:102F3000F0E701CF5FEA000A03D544F40054CAF178
:102F4000000A44F002046D1C28782E2817D115F8C9
:102F5000010F44F004042A280ED06FF02F022878C5
:102F6000A0F1300109290AD809EB890102EB4101DE
:102F700000EB01096D1CF2E757F8049B6D1C2878E3
:102F80006C280FD006DC4C2817D068280DD06A2892
:102F900014D104E0742810D07A280FD10DE044F445
:102FA00000140AE044F4801401E044F44014697809
:102FB000814202D104F580146D1C6D1C2A786E2AA2
:102FC0001FD00CDC632A31D004DC002A8BD0582AB5
:102FD00011D1A3E0642A68D0692A0CD165E0732A74
:102FE0002ED004DC6F2A73D0702A04D19BE0752A9E
:102FF0006FD0782A6ED01046DDE90F129047761C0C
:1030000050E1C4F30250022806D0032809D0042856
:1030100001CF09D0066045E101CFF117C0E9006199
:1030200040E101CF06803DE106703BE117F8040B5B
:103030008DF8000000208DF80100EB46012003E030
:1030400057F804BB4FF0FF3061074FF0000102D486
:103050000DE008F10101884649450FDA8045F8DBAB
:103060001BF808100029F4D108E008F10101884696
:103070008142FADB1BF808100029F6D1DDE90F23A5
:10308000AAEB08008146214600F036F9304400EBF7
:10309000080604E0DDE90F121BF8010B9047B8F1B8
:1030A0000108F7D221464846F7E00A21C4F302534B
:1030B0004FF0000B0891022B04D001CFC117032B56
:1030C00009D00AE0FF1D27F00707F7E8020108E032
:1030D00032E01FE020E000B2C117042B01D140B262
:1030E000C117031E71F1000307DA4FF0000CD0EB9B
:1030F0000C006CEB01012D2302E0230504D52B23EA
:103100008DF82430012303E0E30701D02023F7E703
:10311000984658E00A2110E010210EE010204FF0F0
:10312000000B08900CE010214FF0000B44F0040459
:103130004FF00809089103E008214FF0000B0891B7
:10314000C4F30253022B04D001CF0021032B06D07D
:1031500006E0FF1D27F00707F7E8020103E080B251
:10316000042B00D1C0B24FF0000823072BD5702AE2
:1031700007D0DDF820C08CF0100C5CEA0B0C05D0F9
:103180000EE040238DF82430012308E050EA0103CB
:1031900006D030238DF824308DF825200223984660
:1031A000DDF820C08CF0080C5CEA0B0C0BD150EA67
:1031B000010301D1630706D530238DF824304FF089
:1031C0000108A9F10109582A04D038A20B9208AAD3
:1031D0000A920BE03AA2F9E75B46089AFCF7F0FF87
:1031E0000B9B9B5C0A9A521E0A92137050EA0102D2
:1031F000F2D10A98ADEB000000F1200B600702D578
:1032000024F4803401E04FF00109D94502DDA9EB37
:103210000B0000E0002000EB0B0141440890AAEBFA
:10322000010AE00306D4DDE90F232146504600F0F1
:1032300063F806444FF0000908E009A911F80900F5
:10324000DDE90F12904709F10109761CC145F4DB55
:10325000E0030CD5DDE90F232146504600F04CF881
:10326000064404E0DDE90F1230209047761C0899EF
:10327000481E08900029F5DC08E00A980A990078B1
:10328000491C0A91DDE90F129047761CBBF1000141
:10329000ABF1010BF1DC21465046DDE90F2300F0D4
:1032A00019F806446D1C1BE6092801003031323341
:1032B0003435363738396162636465660000000072
:1032C000303132333435363738394142434445465C
:1032D000000000002DE9F041044600251E46174677
:1032E000880404D405E039462020B0476D1C641ED4
:1032F000F9D52846BDE8F0812DE9F04104460025C6
:103300001E469046C80301D5302700E020278804D8
:1033100004D505E041463846B0476D1C641EF9D51A
:103320002846BDE8F0810A68531C0B601070704796
:1033300010B5044601E0FFF785FA14F8010B0449C3
:103340000028F8D1BDE810400A20FFF77BBA000042
:1033500000000020DDDDDDDDDCBBBBDDDDDDDDDD36
:10336000DDDDDDDD988888888888888877777777BD
:103370007788888885555556666666666666666689
:103380006668888883333332222222222222222234
:103390002228888D000000000000000001020304C4
:1033A00006070809000000000102030406340008B3
:1033B000B8000020650B00083B3400081000002016
:1033C0006F0B0008FD330008A8010020790B0008EE
:1033D0003634000870000020830B0008F433000826
:1033E000180300208D0B0008243400084000002042
:1033F000970B0008D0A1B1E3B3E5CFB400B4F3B1AB
:10340000E3B3E5CFB400C7E5CFB400C7BFB3E9CE9F
:10341000DB00CFC2C5E7B3E9CEDB00D6D0C5E7B34A
:10342000E9CEDB00D5E6BFD5CFE4D7D4C7E5BDE014
:1034300000C5AFB7E700B8C9D4EF00C7E5BDE0BF2E
:10344000D5C6F800B5C8B4FD00000000703400080F
:103450000000002010040000140800086036000876
:1034600010040020A8070000B42E0008000000008F
:10347000413201721032051344341408192A1B0812
:103480001B04323C1A3B101A1D0C1A2B0401106944
:103490003013112E1B081304321E1A24101A150C97
:1034A0001A2F0409163013D12C1B08D304235802F9
:1034B0001A31101AD50C1AE30429201A1F101AF118
:1034C0000C1AFF0401113B24F4B069481A39941A0C
:1034D0003B0429101A0B101A3D0C1A41045A0F48CC
:1034E0001A450C5A53101A1B101A550C1A67045A15
:1034F0000A201A790C5A7B4029201A7D0C9A8F4099
:103500001AA10C5AA3301A12101AA50C9AB7401A15
:10351000C90C5ACB4029201ACD0C5ADF1039C819D2
:103520000C1AF3045A14B013012B1B08030469F896
:103530001A050C1A130469301A210C1A2F040110F1
:1035400069F01A3D1C5A3F3029F01A410C1A450403
:1035500069B01A490C1A570469B01A590C5A6B1001
:1035600029201A7D0C5A7F4029201A810C9A9380B9
:103570001AA50C5AA71029701AB50C9AB7201AB9B7
:103580000C9AC7201AD50C9AD7801AD90C5AE71072
:103590001A1B101AE90C9AFB801B0D2C1C1904290C
:1035A0004029201A110C2A231459201A350C1A37D5
:1035B0000469C01A390C5A4B1029201A5D0C5A5F45
:1035C0004029201A610C5A731029201A850C1A8779
:1035D000045A14A01A950C1A97042358021A311091
:1035E0001A990C9AA7301AB50C1AC304011069E095
:1035F0001B0D2D9C190429102A0BB0190C2A151427
:1036000059401A190C1A2704294129D01A290C1AD1
:103610003B0469B01A4D0C5A4F4029201A510C9A9C
:1036200063401A750C5A773029D01A790C9A8B405E
:103630001A9D0C5A9F4029201AA10C5AB310292018
:103640001AC50C1AC70469F01AD50C1AD70469F008
:103650001AD90C9AE7301AF50C0B10032EF08100E2
:040000050800018965
:00000001FF
